{
  "contractName": "CommunityFactory",
  "abi": [
    {
      "inputs": [
        {
          "internalType": "address",
          "name": "_cUSDAddress",
          "type": "address"
        },
        {
          "internalType": "address",
          "name": "_loanerAddress",
          "type": "address"
        },
        {
          "internalType": "address",
          "name": "_loanFactoryAddress",
          "type": "address"
        }
      ],
      "stateMutability": "nonpayable",
      "type": "constructor"
    },
    {
      "inputs": [],
      "name": "cUSDAddress",
      "outputs": [
        {
          "internalType": "address",
          "name": "",
          "type": "address"
        }
      ],
      "stateMutability": "view",
      "type": "function",
      "constant": true
    },
    {
      "inputs": [],
      "name": "loanFactoryAddress",
      "outputs": [
        {
          "internalType": "address",
          "name": "",
          "type": "address"
        }
      ],
      "stateMutability": "view",
      "type": "function",
      "constant": true
    },
    {
      "inputs": [],
      "name": "loanerAddress",
      "outputs": [
        {
          "internalType": "address",
          "name": "",
          "type": "address"
        }
      ],
      "stateMutability": "view",
      "type": "function",
      "constant": true
    },
    {
      "inputs": [
        {
          "internalType": "address",
          "name": "_firstManager",
          "type": "address"
        },
        {
          "internalType": "address",
          "name": "_previousCommunityAddress",
          "type": "address"
        }
      ],
      "name": "deployCommunity",
      "outputs": [
        {
          "internalType": "address",
          "name": "",
          "type": "address"
        }
      ],
      "stateMutability": "nonpayable",
      "type": "function"
    }
  ],
  "bytecode": "0x608060405234801561001057600080fd5b506040516132b53803806132b58339818101604052606081101561003357600080fd5b5080516020820151604090920151600080546001600160a01b039384166001600160a01b03199182161790915560018054948416948216949094179093556002805492909116919092161790556132268061008f6000396000f3fe608060405234801561001057600080fd5b506004361061004c5760003560e01c806320d1f56f146100515780633ff574b61461007557806367a67c531461007d578063e668a915146100ab575b600080fd5b6100596100b3565b604080516001600160a01b039092168252519081900360200190f35b6100596100c2565b6100596004803603604081101561009357600080fd5b506001600160a01b03813581169160200135166100d1565b61005961019b565b6002546001600160a01b031681565b6000546001600160a01b031681565b6001546000906001600160a01b0316331461011d5760405162461bcd60e51b815260040180806020018281038252602d8152602001806131c4602d913960400191505060405180910390fd5b600054600254604051859285926001600160a01b03918216929116903390610144906101aa565b6001600160a01b039586168152938516602085015291841660408085019190915290841660608401529216608082015290519081900360a001906000f080158015610193573d6000803e3d6000fd5b509392505050565b6001546001600160a01b031681565b61300c806101b88339019056fe60806040523480156200001157600080fd5b506040516200300c3803806200300c833981810160405260a08110156200003757600080fd5b5080516020820151604080840151606085015160809095015182516b4d414e414745525f524f4c4560a01b8152925192839003600c0190922093949293909291906200008d90866001600160e01b036200016f16565b604080516b4d414e414745525f524f4c4560a01b808252825191829003600c90810183209183529251918290039092019020620000d491906001600160e01b036200018816565b60016008556040516001600160a01b038616907f3b4a40cccf2058c593542587329dd385be4f0b588db5471fbd9598e56dd7093a90600090a2600580546001600160a01b03199081166001600160a01b039687161790915560018054821694861694909417909355600280548416928516929092179091556006805490921692169190911760ff60a01b19169055506109c4600755620002f9565b6200018482826001600160e01b03620001da16565b5050565b600082815260208190526040808220600201549051839285917fbd79b86ffe0ab8e8776151514217cd7cacd52c909f66475c3af44e129f0b00ff9190a460009182526020829052604090912060020155565b600082815260208181526040909120620001ff918390620022336200025c821b17901c565b156200018457620002186001600160e01b036200028516565b6001600160a01b0316816001600160a01b0316837f2f8788117e7eff1d82e926ec794901d17c78024a50270940304540a733656f0d60405160405180910390a45050565b60006200027c836001600160a01b0384166001600160e01b036200028916565b90505b92915050565b3390565b6000620002a083836001600160e01b03620002e116565b620002d8575081546001818101845560008481526020808220909301849055845484825282860190935260409020919091556200027f565b5060006200027f565b60009081526001919091016020526040902054151590565b612d0380620003096000396000f3fe608060405234801561001057600080fd5b50600436106102535760003560e01c8063a0ff66ba11610146578063cad925ef116100c3578063e68777d711610087578063e68777d714610761578063ec87621c14610769578063f3fef3a314610771578063f83d08ba1461079d578063f99acb5b146107a5578063f9fb51c8146107d357610253565b8063cad925ef146106d9578063cf309012146106ff578063d547741f14610707578063e3a8e29c14610733578063e668a9151461075957610253565b8063bb45b0561161010a578063bb45b05614610632578063bd30562514610658578063c45a01551461068e578063c821f90c14610696578063ca15c873146106bc57610253565b8063a0ff66ba146105aa578063a1903eab146105d6578063a217fddf146105fc578063a69df4b514610604578063ac18de431461060c57610253565b80633df03b4a116101d4578063645b8b1b11610198578063645b8b1b1461048957806373b4086b146104d357806376c7fc55146105215780639010d07c1461054757806391d148541461056a57610253565b80633df03b4a146103bb5780635027d70f146103c357806350bc4a98146103f15780635a55bf48146104355780635b3f91221461045b57610253565b8063248a9ca31161021b578063248a9ca31461030657806328e91918146103355780632d06177a1461033d5780632f2ff15d1461036357806336568abe1461038f57610253565b806301ac1e6014610258578063095ea7b3146102625780631175022f1461028e5780631fccf672146102b45780631fe9578e146102d8575b600080fd5b6102606107f9565b005b6102606004803603604081101561027857600080fd5b506001600160a01b0381351690602001356108ad565b610260600480360360208110156102a457600080fd5b50356001600160a01b0316610911565b6102bc610a44565b604080516001600160a01b039092168252519081900360200190f35b610260600480360360408110156102ee57600080fd5b506001600160a01b0381358116916020013516610a53565b6103236004803603602081101561031c57600080fd5b5035610db6565b60408051918252519081900360200190f35b610323610dce565b6102606004803603602081101561035357600080fd5b50356001600160a01b0316610dd4565b6102606004803603604081101561037957600080fd5b50803590602001356001600160a01b0316610eb7565b610260600480360360408110156103a557600080fd5b50803590602001356001600160a01b0316610f23565b6102bc610f84565b610323600480360360408110156103d957600080fd5b506001600160a01b0381351690602001351515610f93565b6104176004803603602081101561040757600080fd5b50356001600160a01b0316610fee565b60408051938452602084019290925282820152519081900360600190f35b6103236004803603602081101561044b57600080fd5b50356001600160a01b031661101b565b6103236004803603604081101561047157600080fd5b506001600160a01b0381358116916020013516611044565b6104af6004803603602081101561049f57600080fd5b50356001600160a01b0316611078565b604051808260058111156104bf57fe5b60ff16815260200191505060405180910390f35b6104f9600480360360208110156104e957600080fd5b50356001600160a01b03166111c6565b604080516001600160a01b039094168452602084019290925282820152519081900360600190f35b6102606004803603602081101561053757600080fd5b50356001600160a01b03166111f1565b6102bc6004803603604081101561055d57600080fd5b50803590602001356112aa565b6105966004803603604081101561058057600080fd5b50803590602001356001600160a01b03166112c8565b604080519115158252519081900360200190f35b610260600480360360408110156105c057600080fd5b506001600160a01b0381351690602001356112e6565b610260600480360360208110156105ec57600080fd5b50356001600160a01b0316611345565b610323611748565b61026061174d565b6102606004803603602081101561062257600080fd5b50356001600160a01b03166117f1565b6102606004803603602081101561064857600080fd5b50356001600160a01b03166118d4565b61067e6004803603602081101561066e57600080fd5b50356001600160a01b03166119f1565b604051808260038111156104bf57fe5b6102bc611a06565b610323600480360360208110156106ac57600080fd5b50356001600160a01b0316611a15565b610323600480360360208110156106d257600080fd5b5035611a3f565b610323600480360360208110156106ef57600080fd5b50356001600160a01b0316611a56565b610596611a8d565b6102606004803603604081101561071d57600080fd5b50803590602001356001600160a01b0316611a9d565b6102606004803603602081101561074957600080fd5b50356001600160a01b0316611af6565b6102bc611c14565b610323611c23565b610323611c29565b6102606004803603604081101561078757600080fd5b506001600160a01b038135169060200135611c4d565b610260612019565b610323600480360360408110156107bb57600080fd5b506001600160a01b03813581169160200135166120c3565b610260600480360360208110156107e957600080fd5b50356001600160a01b03166120f8565b6005546040805163bd30562560e01b815233600482015290516001600160a01b039092169163bd30562591602480820192602092909190829003018186803b15801561084457600080fd5b505afa158015610858573d6000803e3d6000fd5b505050506040513d602081101561086e57600080fd5b5051600381111561087b57fe5b3360009081526003602081905260409091208054909160ff199091169060019084908111156108a657fe5b0217905550565b8160016108b982611078565b60058111156108c457fe5b146109005760405162461bcd60e51b8152600401808060200182810382526028815260200180612c496028913960400191505060405180910390fd5b61090c83836001612248565b505050565b604080516b4d414e414745525f524f4c4560a01b8152905190819003600c01902061093c90336112c8565b61097b576040805162461bcd60e51b81526020600482015260186024820152600080516020612b6a833981519152604482015290519081900360640190fd5b60026001600160a01b03821660009081526003602081905260409091205460ff16908111156109a657fe5b146109f8576040805162461bcd60e51b815260206004820152601e60248201527f436f6d6d756e6974793a20626f72726f776572206e6f74206c6f636b65640000604482015290519081900360640190fd5b6001600160a01b038116600081815260036020526040808220805460ff19166001179055517f1f63002bebd1d135a67977167241bb23965b08f9ff1f24f3871b0238e11b8f339190a250565b6001546001600160a01b031681565b6006546001600160a01b03163314610a9c5760405162461bcd60e51b8152600401808060200182810382526026815260200180612afb6026913960400191505060405180910390fd5b604080516b4d414e414745525f524f4c4560a01b8152815190819003600c018120632474521560e21b825260048201526001600160a01b038381166024830152915184928316916391d14854916044808301926020929190829003018186803b158015610b0857600080fd5b505afa158015610b1c573d6000803e3d6000fd5b505050506040513d6020811015610b3257600080fd5b50511515600114610b78576040805162461bcd60e51b815260206004820152600b60248201526a1393d517d0531313d5d15160aa1b604482015290519081900360640190fd5b306001600160a01b0316816001600160a01b0316633df03b4a6040518163ffffffff1660e01b815260040160206040518083038186803b158015610bbb57600080fd5b505afa158015610bcf573d6000803e3d6000fd5b505050506040513d6020811015610be557600080fd5b50516001600160a01b031614610c30576040805162461bcd60e51b815260206004820152600b60248201526a1393d517d0531313d5d15160aa1b604482015290519081900360640190fd5b600154604080516370a0823160e01b815230600482015290516000926001600160a01b0316916370a08231916024808301926020929190829003018186803b158015610c7b57600080fd5b505afa158015610c8f573d6000803e3d6000fd5b505050506040513d6020811015610ca557600080fd5b50516001546040805163a9059cbb60e01b81526001600160a01b038881166004830152602482018590529151939450600093919092169163a9059cbb91604480830192602092919082900301818787803b158015610d0257600080fd5b505af1158015610d16573d6000803e3d6000fd5b505050506040513d6020811015610d2c57600080fd5b5051905080610d70576040805162461bcd60e51b815260206004820152600b60248201526a1393d517d0531313d5d15160aa1b604482015290519081900360640190fd5b6040805183815290516001600160a01b038716917fec3fe17382089950d15d61fa7c2347c1b7eeb9a828e1cc790f522eca57ed18ec919081900360200190a25050505050565b6000818152602081905260409020600201545b919050565b60075481565b604080516b4d414e414745525f524f4c4560a01b8152905190819003600c019020610dff90336112c8565b610e3e576040805162461bcd60e51b81526020600482015260186024820152600080516020612b6a833981519152604482015290519081900360640190fd5b604080516b4d414e414745525f524f4c4560a01b8152905190819003600c019020610e699082610eb7565b600854610e7d90600163ffffffff6125b316565b6008556040516001600160a01b038216907f3b4a40cccf2058c593542587329dd385be4f0b588db5471fbd9598e56dd7093a90600090a250565b600082815260208190526040902060020154610eda90610ed561260d565b6112c8565b610f155760405162461bcd60e51b815260040180806020018281038252602f815260200180612aab602f913960400191505060405180910390fd5b610f1f8282612611565b5050565b610f2b61260d565b6001600160a01b0316816001600160a01b031614610f7a5760405162461bcd60e51b815260040180806020018281038252602f815260200180612c9f602f913960400191505060405180910390fd5b610f1f8282612680565b6005546001600160a01b031681565b6007546001600160a01b038316600090815260046020908152604080832085151584526003019091528120549091610fe59161271091610fd9919063ffffffff6126ef16565b9063ffffffff61274816565b90505b92915050565b6000806000610ffc84611a56565b6110058561101b565b61100e86611a15565b9250925092509193909250565b6001600160a01b0316600090815260046020908152604080832083805260030190915290205490565b6001600160a01b03918216600090815260046020818152604080842094909516835292018252828120818052909152205490565b6001600160a01b038082166000908152600460205260408120805491929091161580156110a757506002810154155b156110b6576000915050610dc9565b80546001600160a01b03161580156110d15750600281015415155b156110e0576002915050610dc9565b6000836001600160a01b031663200d2ed26040518163ffffffff1660e01b815260040160206040518083038186803b15801561111b57600080fd5b505afa15801561112f573d6000803e3d6000fd5b505050506040513d602081101561114557600080fd5b50519050600181600481111561115757fe5b148061116e5750600281600481111561116c57fe5b145b1561117e57600392505050610dc9565b600381600481111561118c57fe5b141561119d57600492505050610dc9565b60048160048111156111ab57fe5b14156111bc57600592505050610dc9565b5060019392505050565b6004602052600090815260409020805460018201546002909201546001600160a01b03909116919083565b604080516b4d414e414745525f524f4c4560a01b8152905190819003600c01902061121c90336112c8565b61125b576040805162461bcd60e51b81526020600482015260186024820152600080516020612b6a833981519152604482015290519081900360640190fd5b6001600160a01b0381166000818152600360208190526040808320805460ff1916909217909155517feb31998799e9a09df1e8e5fd968bfeb5519b82b1b88d59dec8c860eac02658649190a250565b6000828152602081905260408120610fe5908363ffffffff6127af16565b6000828152602081905260408120610fe5908363ffffffff6127bb16565b8160016112f282611078565b60058111156112fd57fe5b146113395760405162461bcd60e51b8152600401808060200182810382526028815260200180612c496028913960400191505060405180910390fd5b61090c83836000612248565b60023360009081526003602081905260409091205460ff169081111561136757fe5b14156113ba576040805162461bcd60e51b815260206004820152601d60248201527f436f6d6d756e6974793a20626f72726f776572206973206c6f636b6564000000604482015290519081900360640190fd5b3360009081526003602081905260409091205460ff16818111156113da57fe5b141561142d576040805162461bcd60e51b815260206004820152601e60248201527f436f6d6d756e6974793a20626f72726f7765722069732072656d6f7665640000604482015290519081900360640190fd5b60013360009081526003602081905260409091205460ff169081111561144f57fe5b146114a1576040805162461bcd60e51b815260206004820181905260248201527f436f6d6d756e6974793a20626f72726f776572206973206e6f742076616c6964604482015290519081900360640190fd5b8060006114ad82611078565b60058111156114b857fe5b1461150a576040805162461bcd60e51b815260206004820152601f60248201527f436f6d6d756e6974793a204c6f616e20616c7265616479206372656174656400604482015290519081900360640190fd5b600654600160a01b900460ff16156115535760405162461bcd60e51b8152600401808060200182810382526025815260200180612b216025913960400191505060405180910390fd5b336001600160a01b0316826001600160a01b0316637df1f1b96040518163ffffffff1660e01b815260040160206040518083038186803b15801561159657600080fd5b505afa1580156115aa573d6000803e3d6000fd5b505050506040513d60208110156115c057600080fd5b50516001600160a01b0316146116075760405162461bcd60e51b8152600401808060200182810382526024815260200180612b466024913960400191505060405180910390fd5b60025460408051632dd96d6160e01b81526001600160a01b03858116600483015291519190921691632dd96d61916024808301926020929190829003018186803b15801561165457600080fd5b505afa158015611668573d6000803e3d6000fd5b505050506040513d602081101561167e57600080fd5b50516116bb5760405162461bcd60e51b815260040180806020018281038252603f815260200180612bdb603f913960400191505060405180910390fd5b6040805160608101825233815260006020808301828152428486019081526001600160a01b038881168086526004855294879020955186546001600160a01b03191691161785559051600185015551600290930192909255825190815291517f2422f295d893a267f4fc269fca3368d2b3308ddde64a360080d7c037633327b69281900390910190a15050565b600081565b604080516b4d414e414745525f524f4c4560a01b8152905190819003600c01902061177890336112c8565b6117b7576040805162461bcd60e51b81526020600482015260186024820152600080516020612b6a833981519152604482015290519081900360640190fd5b6006805460ff60a01b1916905560405133907f4e50048c25972c85ad169c2302967f1e633e8dc6108d6aca51a90d2a59d4934d90600090a2565b604080516b4d414e414745525f524f4c4560a01b8152905190819003600c01902061181c90336112c8565b61185b576040805162461bcd60e51b81526020600482015260186024820152600080516020612b6a833981519152604482015290519081900360640190fd5b604080516b4d414e414745525f524f4c4560a01b8152905190819003600c0190206118869082611a9d565b60085461189a90600163ffffffff6127d016565b6008556040516001600160a01b038216907fef69f7d97228658c92417be1b16b19058315de71fecb435d07b7d23728b6bd3190600090a250565b604080516b4d414e414745525f524f4c4560a01b8152905190819003600c0190206118ff90336112c8565b61193e576040805162461bcd60e51b81526020600482015260186024820152600080516020612b6a833981519152604482015290519081900360640190fd5b60016001600160a01b03821660009081526003602081905260409091205460ff169081111561196957fe5b146119a55760405162461bcd60e51b8152600401808060200182810382526021815260200180612ada6021913960400191505060405180910390fd5b6001600160a01b038116600081815260036020526040808220805460ff19166002179055517f167f15a85bd77c9dcd19e5d717056ff87a3efc8db2e6ad2c0b3f7a3fdb5f04029190a250565b60036020526000908152604090205460ff1681565b6002546001600160a01b031681565b6001600160a01b031660009081526004602090815260408083206001845260030190915290205490565b6000818152602081905260408120610fe89061282d565b6008546001600160a01b0382166000908152600460205260408120600101549091610fe891610fd99061271063ffffffff6126ef16565b600654600160a01b900460ff1681565b600082815260208190526040902060020154611abb90610ed561260d565b610f7a5760405162461bcd60e51b8152600401808060200182810382526030815260200180612b8a6030913960400191505060405180910390fd5b604080516b4d414e414745525f524f4c4560a01b8152905190819003600c019020611b2190336112c8565b611b60576040805162461bcd60e51b81526020600482015260186024820152600080516020612b6a833981519152604482015290519081900360640190fd5b60016001600160a01b03821660009081526003602081905260409091205460ff1690811115611b8b57fe5b1415611bc85760405162461bcd60e51b8152600401808060200182810382526021815260200180612a8a6021913960400191505060405180910390fd5b6001600160a01b038116600081815260036020526040808220805460ff19166001179055517ff936762bbd5951fd80f529c57a3ca1141f0b79ab926abd60a3879f75eb6b72a69190a250565b6006546001600160a01b031681565b60085481565b604080516b4d414e414745525f524f4c4560a01b8152905190819003600c01902081565b816003611c5982611078565b6005811115611c6457fe5b1415611ca15760405162461bcd60e51b8152600401808060200182810382526024815260200180612a666024913960400191505060405180910390fd5b6001600160a01b03831660009081526004602081815260408084203385529092018152818320600184529052812054151590611cdc85611078565b6001600160a01b0386166000908152600460208181526040808420338552909201815281832086151584529052902054909150841115611d4d5760405162461bcd60e51b815260040180806020018281038252602f815260200180612c1a602f913960400191505060405180910390fd5b836003826005811115611d5c57fe5b1115611e1e576000611d6e8785612838565b90508015611de957611de2611dd5600460008a6001600160a01b03166001600160a01b0316815260200190815260200160002060030160008715151515815260200190815260200160002054610fd989611dc98c8a15610f93565b9063ffffffff6126ef16565b839063ffffffff6125b316565b9150611e1c565b6000611e06612710610fd9600754866126ef90919063ffffffff16565b9050611e18838263ffffffff6127d016565b9250505b505b6001826005811115611e2c57fe5b1415611ed0576001600160a01b03861660009081526004602090815260408083208615158452600301909152902054611e6b908663ffffffff6127d016565b6001600160a01b0387166000818152600460208181526040808420891515855260038101835290842095909555929091529052600190810154611eb39163ffffffff6127d016565b6001600160a01b0387166000908152600460205260409020600101555b6001600160a01b0386166000908152600460208181526040808420338552909201815281832086151584529052902054611f10908663ffffffff6127d016565b6001600160a01b0380881660009081526004602081815260408084203380865290840183528185208a15158652835281852096909655600154815163a9059cbb60e01b8152938401969096526024830187905251949093169363a9059cbb9360448084019491938390030190829087803b158015611f8d57600080fd5b505af1158015611fa1573d6000803e3d6000fd5b505050506040513d6020811015611fb757600080fd5b5051611fc257600080fd5b604080516001600160a01b03881681523360208201528082018790526060810183905290517f91fb9d98b786c57d74c099ccd2beca1739e9f6a81fb49001ca465c4b7591bbe29181900360800190a1505050505050565b604080516b4d414e414745525f524f4c4560a01b8152905190819003600c01902061204490336112c8565b612083576040805162461bcd60e51b81526020600482015260186024820152600080516020612b6a833981519152604482015290519081900360640190fd5b6006805460ff60a01b1916600160a01b17905560405133907fe1e6bc10311f2f958d6cd2d0ab7308c32089aa1acb8ab11a2ccb60028e332bd090600090a2565b6001600160a01b0391821660009081526004602081815260408084209490951683529201825282812060018252909152205490565b80600161210482611078565b600581111561210f57fe5b1461214b5760405162461bcd60e51b8152600401808060200182810382526028815260200180612c496028913960400191505060405180910390fd5b6001600160a01b0380831660009081526004602052604090205483911633146121bb576040805162461bcd60e51b815260206004820152601c60248201527f436f6d6d756e6974793a204e6f742053656e6465722773206c6f616e00000000604482015290519081900360640190fd5b6001600160a01b038316600081815260046020908152604080832080546001600160a01b031916815560018452600301825280832083905582805280832092909255815192835290517f52931f4d5b71be71cb7ca5ffea4e5b0612be3263adc836902c82fabfcadf49399281900390910190a1505050565b6000610fe5836001600160a01b03841661289e565b604080516b4d414e414745525f524f4c4560a01b8152905190819003600c01902061227390336112c8565b6122b2576040805162461bcd60e51b81526020600482015260186024820152600080516020612b6a833981519152604482015290519081900360640190fd5b6001600160a01b038316600090815260046020818152604080842033855290920181528183208415845290529020541561231d5760405162461bcd60e51b815260040180806020018281038252602e815260200180612c71602e913960400191505060405180910390fd5b6001600160a01b038316600090815260046020818152604080842033855290920181528183208415158452905290205461239b576001600160a01b038316600090815260046020526040902060019081015461237e9163ffffffff6125b316565b6001600160a01b0384166000908152600460205260409020600101555b6001600160a01b038316600090815260046020908152604080832084151584526003019091529020546123d4908363ffffffff6125b316565b6001600160a01b0384166000908152600460208181526040808420861515808652600382018452828620969096553385529092018152818320938352929092522054612426908363ffffffff6125b316565b6001600160a01b038085166000908152600460208181526040808420338552830182528084208715158552825280842095909555600154855163095ea7b360e01b81523093810193909352602483018890529451949093169363095ea7b39360448084019491938390030190829087803b1580156124a357600080fd5b505af11580156124b7573d6000803e3d6000fd5b505050506040513d60208110156124cd57600080fd5b5050600154604080516323b872dd60e01b81523360048201523060248201526044810185905290516001600160a01b03909216916323b872dd916064808201926020929091908290030181600087803b15801561252957600080fd5b505af115801561253d573d6000803e3d6000fd5b505050506040513d602081101561255357600080fd5b505161255e57600080fd5b604080516001600160a01b0385168152336020820152821515818301526060810184905290517f3a072b0d7409044781ad05a2b4bf1d6ae598dd58bf8f3db9eec733d93326fae59181900360800190a1505050565b600082820183811015610fe5576040805162461bcd60e51b815260206004820152601b60248201527f536166654d6174683a206164646974696f6e206f766572666c6f770000000000604482015290519081900360640190fd5b3390565b600082815260208190526040902061262f908263ffffffff61223316565b15610f1f5761263c61260d565b6001600160a01b0316816001600160a01b0316837f2f8788117e7eff1d82e926ec794901d17c78024a50270940304540a733656f0d60405160405180910390a45050565b600082815260208190526040902061269e908263ffffffff6128e816565b15610f1f576126ab61260d565b6001600160a01b0316816001600160a01b0316837ff6391f5c32d9c69d2a47ea670b442974b53935d1edc7fd64eb21e047a839171b60405160405180910390a45050565b6000826126fe57506000610fe8565b8282028284828161270b57fe5b0414610fe55760405162461bcd60e51b8152600401808060200182810382526021815260200180612bba6021913960400191505060405180910390fd5b600080821161279e576040805162461bcd60e51b815260206004820152601a60248201527f536166654d6174683a206469766973696f6e206279207a65726f000000000000604482015290519081900360640190fd5b8183816127a757fe5b049392505050565b6000610fe583836128fd565b6000610fe5836001600160a01b038416612961565b600082821115612827576040805162461bcd60e51b815260206004820152601e60248201527f536166654d6174683a207375627472616374696f6e206f766572666c6f770000604482015290519081900360640190fd5b50900390565b6000610fe882612979565b6000600461284584611078565b600581111561285057fe5b14801561285a5750815b1561286757506001610fe8565b600561287284611078565b600581111561287d57fe5b148015612888575081155b1561289557506001610fe8565b50600092915050565b60006128aa8383612961565b6128e057508154600181810184556000848152602080822090930184905584548482528286019093526040902091909155610fe8565b506000610fe8565b6000610fe5836001600160a01b03841661297d565b8154600090821061293f5760405162461bcd60e51b8152600401808060200182810382526022815260200180612a446022913960400191505060405180910390fd5b82600001828154811061294e57fe5b9060005260206000200154905092915050565b60009081526001919091016020526040902054151590565b5490565b60008181526001830160205260408120548015612a3957835460001980830191908101906000908790839081106129b057fe5b90600052602060002001549050808760000184815481106129cd57fe5b6000918252602080832090910192909255828152600189810190925260409020908401905586548790806129fd57fe5b60019003818190600052602060002001600090559055866001016000878152602001908152602001600020600090556001945050505050610fe8565b6000915050610fe856fe456e756d657261626c655365743a20696e646578206f7574206f6620626f756e6473436f6d6d756e6974793a204c6f616e2069732063757272656e746c792072756e6e696e67436f6d6d756e6974793a20426f72726f77657220616c7265616479206164646564416363657373436f6e74726f6c3a2073656e646572206d75737420626520616e2061646d696e20746f206772616e74436f6d6d756e6974793a20426f72726f77657220737461746520696e76616c6964436f6d6d756e6974793a206f6e6c79204c6f616e6572206164647265737320616c6c6f776564436f6d6d756e6974793a204e6577207375626d697373696f6e7320617265206c6f636b6564436f6d6d756e6974793a205375626d6974746572206973206e6f7420626f72726f776572436f6d6d756e6974793a204f6e6c79206d616e61676572730000000000000000416363657373436f6e74726f6c3a2073656e646572206d75737420626520616e2061646d696e20746f207265766f6b65536166654d6174683a206d756c7469706c69636174696f6e206f766572666c6f77436f6d6d756e6974793a204f6e6c79206c6f616e732063726561746564207468726f75676820746865206c6f616e20666163746f7279206163636570746564436f6d6d756e6974793a2043616e6e6f74207769746864726177206d6f7265207468616e20776173207374616b6564436f6d6d756e6974793a204c6f616e206973206e6f742063757272656e746c792070656e64696e67436f6d6d756e6974793a2043616e6e6f7420766f746520626f746820617070726f766520616e642072656a656374416363657373436f6e74726f6c3a2063616e206f6e6c792072656e6f756e636520726f6c657320666f722073656c66a2646970667358221220038f75d062c9554f5205e336496cea5da7b3fc5f650b36fcdfd128afac488f2164736f6c634300060a0033436f6d6d756e697479466163746f72793a206f6e6c79206c6f616e6572206164647265737320616c6c6f776564a264697066735822122039cf3afd3a81f44878c694debbb811560c4c919e4d02c4359288e224646c65db64736f6c634300060a0033",
  "immutableReferences": {},
  "source": "// SPDX-License-Identifier: Apache-2.0\npragma solidity ^0.6.10;\n\nimport \"./Community.sol\";\nimport \"../interfaces/ICommunityFactory.sol\";\n\n/**\n * @notice Welcome to CommunityFactory\n */\ncontract CommunityFactory {\n    address public cUSDAddress;\n    address public loanerAddress;\n    address public loanFactoryAddress;\n\n    constructor(address _cUSDAddress, address _loanerAddress, address _loanFactoryAddress) public {\n        cUSDAddress = _cUSDAddress;\n        loanerAddress = _loanerAddress;\n        loanFactoryAddress = _loanFactoryAddress;\n    }\n\n    modifier onlyLoaner() {\n        require(msg.sender == loanerAddress, \"CommunityFactory: only loaner address allowed\");\n        _;\n    }\n\n    /**\n     * @dev Add a new community. Can be used only by an admin.\n     * For further information regarding each parameter, see\n     * *Community* smart contract constructor.\n     */\n    function deployCommunity(\n        address _firstManager,\n        address _previousCommunityAddress\n    ) external onlyLoaner returns (address) {\n        return\n            address(\n                new Community(\n                    _firstManager,\n                    _previousCommunityAddress,\n                    cUSDAddress,\n                    loanFactoryAddress,\n                    msg.sender\n                )\n            );\n    }\n}",
  "sourcePath": "/home/bob/loaner-celo/smart-contracts/contracts/community/CommunityFactory.sol",
  "compiler": {
    "name": "solc",
    "version": "0.6.10+commit.00c0fcaf.Emscripten.clang"
  },
  "schemaVersion": "3.3.3",
  "updatedAt": "2021-03-19T23:14:35.049Z",
  "networkType": "ethereum",
  "devdoc": {
    "methods": {
      "deployCommunity(address,address)": {
        "details": "Add a new community. Can be used only by an admin. For further information regarding each parameter, see *Community* smart contract constructor."
      }
    }
  },
  "userdoc": {
    "methods": {},
    "notice": "Welcome to CommunityFactory"
  }
}