{
  "contractName": "LoanerPoolFactory",
  "abi": [
    {
      "inputs": [
        {
          "internalType": "address",
          "name": "_cUSDAddress",
          "type": "address"
        },
        {
          "internalType": "address",
          "name": "_loanerAddress",
          "type": "address"
        },
        {
          "internalType": "address",
          "name": "_moolaAddressesProviderAddress",
          "type": "address"
        }
      ],
      "stateMutability": "nonpayable",
      "type": "constructor"
    },
    {
      "inputs": [],
      "name": "cUSDAddress",
      "outputs": [
        {
          "internalType": "address",
          "name": "",
          "type": "address"
        }
      ],
      "stateMutability": "view",
      "type": "function",
      "constant": true
    },
    {
      "inputs": [],
      "name": "loanerAddress",
      "outputs": [
        {
          "internalType": "address",
          "name": "",
          "type": "address"
        }
      ],
      "stateMutability": "view",
      "type": "function",
      "constant": true
    },
    {
      "inputs": [],
      "name": "moolaAddressesProviderAddress",
      "outputs": [
        {
          "internalType": "address",
          "name": "",
          "type": "address"
        }
      ],
      "stateMutability": "view",
      "type": "function",
      "constant": true
    },
    {
      "inputs": [
        {
          "internalType": "address",
          "name": "_fundsManager",
          "type": "address"
        },
        {
          "internalType": "address",
          "name": "_communityAddress",
          "type": "address"
        }
      ],
      "name": "deployPool",
      "outputs": [
        {
          "internalType": "address",
          "name": "",
          "type": "address"
        }
      ],
      "stateMutability": "nonpayable",
      "type": "function"
    }
  ],
  "bytecode": "0x608060405234801561001057600080fd5b506040516139463803806139468339818101604052606081101561003357600080fd5b5080516020820151604090920151600080546001600160a01b039384166001600160a01b03199182161790915560018054948416948216949094179093556002805492909116919092161790556138b78061008f6000396000f3fe608060405234801561001057600080fd5b506004361061004c5760003560e01c80633ff574b6146100515780639e412a2c14610075578063b962bf1f1461007d578063e668a915146100ab575b600080fd5b6100596100b3565b604080516001600160a01b039092168252519081900360200190f35b6100596100c2565b6100596004803603604081101561009357600080fd5b506001600160a01b03813581169160200135166100d1565b61005961019c565b6000546001600160a01b031681565b6002546001600160a01b031681565b6001546000906001600160a01b0316331461011d5760405162461bcd60e51b815260040180806020018281038252602e815260200180613854602e913960400191505060405180910390fd5b6002546000546040516001600160a01b039283169290911690849086903390610145906101ab565b6001600160a01b039586168152938516602085015291841660408085019190915290841660608401529216608082015290519081900360a001906000f080158015610194573d6000803e3d6000fd5b509392505050565b6001546001600160a01b031681565b61369b806101b98339019056fe60806040523480156200001157600080fd5b506040516200369b3803806200369b833981810160405260a08110156200003757600080fd5b508051602080830151604080850151606086015160809096015182518084018452600981526804c6f616e6572204c560bc1b8187019081528451808601909552600685526504d4b4f2d4c560d41b968501969096528051969794969295919390929091620000a99160039190620001df565b508051620000bf906004906020840190620001df565b50506005805460ff191660121790555060016006556000620000e96001600160e01b03620001da16565b600780546001600160a01b0319166001600160a01b038316908117909155604051919250906000907f8be0079c531659141344cd1fd0a4f28419497f9722a3daafe3b4186f6b6457e0908290a350600a80546001600160a01b038088166001600160a01b031992831617909255600b805487841690831617905560098054868416908316179055600d8054848416908316179055600c8054928516929091168217905560408051918252517fe73ec16f0f6043487af9cb91eb14c278096f172773ad13f392cd1f9507c9a8ee9181900360200190a150506103e86011555050611f4060138190556012555062000281565b335b90565b828054600181600116156101000203166002900490600052602060002090601f016020900481019282601f106200022257805160ff191683800117855562000252565b8280016001018555821562000252579182015b828111156200025257825182559160200191906001019062000235565b506200026092915062000264565b5090565b620001dc91905b808211156200026057600081556001016200026b565b61340a80620002916000396000f3fe608060405234801561001057600080fd5b50600436106102745760003560e01c80638da5cb5b11610151578063dcbdce6b116100c3578063e9cbd82211610087578063e9cbd8221461068d578063f2fa12d214610695578063f2fde38b1461069d578063f91f3869146106c3578063fc772c8b146106e0578063fe0ee1151461070657610274565b8063dcbdce6b1461062a578063dd62ed3e14610647578063e348c51814610675578063e668a9151461067d578063e9a377381461068557610274565b8063af4d592711610115578063af4d5927146105ca578063b29c55bc146105d2578063b3d1958d146105da578063b8615071146105f7578063c63942e5146105ff578063dc1fb5a51461062257610274565b80638da5cb5b1461053c57806395d89b411461054457806399c7e2e81461054c578063a457c2d714610572578063a9059cbb1461059e57610274565b806344e5fa79116101ea57806370a08231116101ae57806370a08231146104c2578063715018a6146104e85780637f8661a1146104f057806382967c471461050d5780638c7646f91461052c5780638d68deb21461053457610274565b806344e5fa79146104675780634d0392a81461046f5780634d657df11461048c57806350628140146104945780636b2fa374146104ba57610274565b806318160ddd1161023c57806318160ddd1461039f57806323024408146103b957806323b872dd146103df578063313ce5671461041557806339509351146104335780634339037f1461045f57610274565b8063049878f31461027957806306fdde0314610298578063095ea7b3146103155780630d1166521461035557806315da0b0214610379575b600080fd5b6102966004803603602081101561028f57600080fd5b5035610729565b005b6102a0610859565b6040805160208082528351818301528351919283929083019185019080838360005b838110156102da5781810151838201526020016102c2565b50505050905090810190601f1680156103075780820380516001836020036101000a031916815260200191505b509250505060405180910390f35b6103416004803603604081101561032b57600080fd5b506001600160a01b0381351690602001356108f0565b604080519115158252519081900360200190f35b61035d61090e565b604080516001600160a01b039092168252519081900360200190f35b6102966004803603602081101561038f57600080fd5b50356001600160a01b031661091d565b6103a76109ba565b60408051918252519081900360200190f35b610296600480360360208110156103cf57600080fd5b50356001600160a01b03166109c0565b610341600480360360608110156103f557600080fd5b506001600160a01b03813581169160208101359091169060400135610efa565b61041d610f87565b6040805160ff9092168252519081900360200190f35b6103416004803603604081101561044957600080fd5b506001600160a01b038135169060200135610f90565b6103a7610fe4565b6103a7611053565b6102966004803603602081101561048557600080fd5b5035611059565b6103a761116f565b6103a7600480360360208110156104aa57600080fd5b50356001600160a01b0316611175565b61035d61159c565b6103a7600480360360208110156104d857600080fd5b50356001600160a01b03166115ab565b6102966115c6565b6102966004803603602081101561050657600080fd5b5035611672565b6102966004803603602081101561052357600080fd5b503515156119d4565b610341611a93565b61035d611aa3565b61035d611ab2565b6102a0611ac1565b6102966004803603602081101561056257600080fd5b50356001600160a01b0316611b22565b6103416004803603604081101561058857600080fd5b506001600160a01b038135169060200135611bbf565b610341600480360360408110156105b457600080fd5b506001600160a01b038135169060200135611c2d565b6103a7611c41565b61035d611cc8565b610296600480360360208110156105f057600080fd5b5035611dd1565b6103a76120a7565b6103416004803603604081101561061557600080fd5b50803590602001356120c1565b61035d6120f5565b6103416004803603602081101561064057600080fd5b5035612104565b6103a76004803603604081101561065d57600080fd5b506001600160a01b038135811691602001351661210c565b6103a7612137565b61035d61213d565b6103a761214c565b61035d6121a1565b6103a76121b0565b610296600480360360208110156106b357600080fd5b50356001600160a01b03166121c5565b610296600480360360208110156106d957600080fd5b50356122c8565b610296600480360360208110156106f657600080fd5b50356001600160a01b031661234c565b6103416004803603604081101561071c57600080fd5b50803590602001356127da565b600d54600160a01b900460ff16156107725760405162461bcd60e51b815260040180806020018281038252602681526020018061335c6026913960400191505060405180910390fd5b600061077d8261280b565b326000908152600e60209081526040808320439055600b5481516323b872dd60e01b81523360048201523060248201526044810188905291519495506001600160a01b0316936323b872dd93606480840194938390030190829087803b1580156107e657600080fd5b505af11580156107fa573d6000803e3d6000fd5b505050506040513d602081101561081057600080fd5b505161081b57600080fd5b6040805183815260208101839052815133927f16a5410c80ce4d4082839ea17ff9fae01b3924da3e586c0e4ba3cdb1c9f7dae2928290030190a25050565b60038054604080516020601f60026000196101006001881615020190951694909404938401819004810282018101909252828152606093909290918301828280156108e55780601f106108ba576101008083540402835291602001916108e5565b820191906000526020600020905b8154815290600101906020018083116108c857829003601f168201915b505050505090505b90565b60006109046108fd61284e565b8484612852565b5060015b92915050565b600c546001600160a01b031681565b600d546001600160a01b031633146109665760405162461bcd60e51b8152600401808060200182810382526029815260200180612f636029913960400191505060405180910390fd5b600980546001600160a01b0383166001600160a01b0319909116811790915560408051918252517fd7d8a202347cf9690a2262c553544cd1de4ee2144020d4c611b6e24dbfdfdb6c9181900360200190a150565b60025490565b336001600160a01b0316816001600160a01b0316637df1f1b96040518163ffffffff1660e01b815260040160206040518083038186803b158015610a0357600080fd5b505afa158015610a17573d6000803e3d6000fd5b505050506040513d6020811015610a2d57600080fd5b50516001600160a01b031614610a745760405162461bcd60e51b815260040180806020018281038252602281526020018061302d6022913960400191505060405180910390fd5b806001600160a01b0316636e31d80a6040518163ffffffff1660e01b815260040160206040518083038186803b158015610aad57600080fd5b505afa158015610ac1573d6000803e3d6000fd5b505050506040513d6020811015610ad757600080fd5b5051610b145760405162461bcd60e51b815260040180806020018281038252602981526020018061313d6029913960400191505060405180910390fd5b600b5460408051631acbe8dd60e21b815290516001600160a01b0392831692841691636b2fa374916004808301926020929190829003018186803b158015610b5b57600080fd5b505afa158015610b6f573d6000803e3d6000fd5b505050506040513d6020811015610b8557600080fd5b50516001600160a01b031614610bcc5760405162461bcd60e51b815260040180806020018281038252603b815260200180613255603b913960400191505060405180910390fd5b6000816001600160a01b031663a5ea11da6040518163ffffffff1660e01b815260040160606040518083038186803b158015610c0757600080fd5b505afa158015610c1b573d6000803e3d6000fd5b505050506040513d6060811015610c3157600080fd5b505160095460408051630a17895360e31b81526001600160a01b03868116600483015291519394506000938493849316916350bc4a98916024808301926060929190829003018186803b158015610c8757600080fd5b505afa158015610c9b573d6000803e3d6000fd5b505050506040513d6060811015610cb157600080fd5b50805160208201516040909201519094509092509050610cd184826127da565b610d0c5760405162461bcd60e51b815260040180806020018281038252602f815260200180613187602f913960400191505060405180910390fd5b610d1583612104565b610d505760405162461bcd60e51b81526004018080602001828103825260368152602001806130756036913960400191505060405180910390fd5b610d5a81836120c1565b610d955760405162461bcd60e51b81526004018080602001828103825260368152602001806131fe6036913960400191505060405180910390fd5b6008805460018101825560009182527ff3f7a9fe364faab93b216da50a3214154f22a0a2b415b23a84c8169e8b636ee30180546001600160a01b0319166001600160a01b03888116918217909255600b546040805163095ea7b360e01b81526004810193909352602483018990525192169263095ea7b3926044808401936020939083900390910190829087803b158015610e2f57600080fd5b505af1158015610e43573d6000803e3d6000fd5b505050506040513d6020811015610e5957600080fd5b5050604080516316c1a85160e31b815290516001600160a01b0387169163b60d428891600480830192600092919082900301818387803b158015610e9c57600080fd5b505af1158015610eb0573d6000803e3d6000fd5b50506040805187815290516001600160a01b03891693507f5af8184bef8e4b45eb9f6ed7734d04da38ced226495548f46e0c8ff8d7d9a52492509081900360200190a25050505050565b6000610f0784848461293e565b610f7d84610f1361284e565b610f78856040518060600160405280602881526020016131b6602891396001600160a01b038a16600090815260016020526040812090610f5161284e565b6001600160a01b03168152602081019190915260400160002054919063ffffffff612aa516565b612852565b5060019392505050565b60055460ff1690565b6000610904610f9d61284e565b84610f788560016000610fae61284e565b6001600160a01b03908116825260208083019390935260409182016000908120918c16815292529020549063ffffffff612b3c16565b600f5460009060ff1615610ffb57506010546108ed565b6000805b60085481101561104d576110436110366008838154811061101c57fe5b6000918252602090912001546001600160a01b0316611175565b839063ffffffff612b3c16565b9150600101610fff565b50905090565b60115481565b61106161284e565b6001600160a01b0316611072611ab2565b6001600160a01b0316146110bb576040805162461bcd60e51b815260206004820181905260248201526000805160206131de833981519152604482015290519081900360640190fd5b6110c361214c565b8111156111015760405162461bcd60e51b815260040180806020018281038252602781526020018061330e6027913960400191505060405180910390fd5b600061110b611cc8565b9050806001600160a01b031663db006a75836040518263ffffffff1660e01b815260040180828152602001915050600060405180830381600087803b15801561115357600080fd5b505af1158015611167573d6000803e3d6000fd5b505050505050565b60135481565b604080516370a0823160e01b8152306004820152905160009182916001600160a01b038516916370a08231916024808301926020929190829003018186803b1580156111c057600080fd5b505afa1580156111d4573d6000803e3d6000fd5b505050506040513d60208110156111ea57600080fd5b50519050806111fd576000915050611597565b6000611274846001600160a01b031663be9a65556040518163ffffffff1660e01b815260040160206040518083038186803b15801561123b57600080fd5b505afa15801561124f573d6000803e3d6000fd5b505050506040513d602081101561126557600080fd5b5051429063ffffffff612b9d16565b9050836001600160a01b031663a10ffbed6040518163ffffffff1660e01b815260040160206040518083038186803b1580156112af57600080fd5b505afa1580156112c3573d6000803e3d6000fd5b505050506040513d60208110156112d957600080fd5b505181111561134a57836001600160a01b031663a10ffbed6040518163ffffffff1660e01b815260040160206040518083038186803b15801561131b57600080fd5b505afa15801561132f573d6000803e3d6000fd5b505050506040513d602081101561134557600080fd5b505190505b60006114408361143484611434896001600160a01b0316633bcfc4b86040518163ffffffff1660e01b815260040160206040518083038186803b15801561139057600080fd5b505afa1580156113a4573d6000803e3d6000fd5b505050506040513d60208110156113ba57600080fd5b505160408051632aa3085f60e21b815290516001600160a01b038d169163aa8c217c916004808301926020929190829003018186803b1580156113fc57600080fd5b505afa158015611410573d6000803e3d6000fd5b505050506040513d602081101561142657600080fd5b50519063ffffffff612bfa16565b9063ffffffff612bfa16565b905060006114d0866001600160a01b0316630dca59c16040518163ffffffff1660e01b815260040160206040518083038186803b15801561148057600080fd5b505afa158015611494573d6000803e3d6000fd5b505050506040513d60208110156114aa57600080fd5b50516114c461271081866301e1338063ffffffff612c5316565b9063ffffffff612c5316565b905061159081611584886001600160a01b0316630dca59c16040518163ffffffff1660e01b815260040160206040518083038186803b15801561151257600080fd5b505afa158015611526573d6000803e3d6000fd5b505050506040513d602081101561153c57600080fd5b505160408051632aa3085f60e21b815290516114c4918a916001600160a01b038e169163aa8c217c916004808301926020929190829003018186803b1580156113fc57600080fd5b9063ffffffff612b3c16565b9450505050505b919050565b600b546001600160a01b031690565b6001600160a01b031660009081526020819052604090205490565b6115ce61284e565b6001600160a01b03166115df611ab2565b6001600160a01b031614611628576040805162461bcd60e51b815260206004820181905260248201526000805160206131de833981519152604482015290519081900360640190fd5b6007546040516000916001600160a01b0316907f8be0079c531659141344cd1fd0a4f28419497f9722a3daafe3b4186f6b6457e0908390a3600780546001600160a01b0319169055565b600260065414156116ca576040805162461bcd60e51b815260206004820152601f60248201527f5265656e7472616e637947756172643a207265656e7472616e742063616c6c00604482015290519081900360640190fd5b60026006556116d7610fe4565b601055600f805460ff19166001179055326000908152600e60205260409020544314156117355760405162461bcd60e51b815260040180806020018281038252602e815260200180613382602e913960400191505060405180910390fd5b61173e336115ab565b811115611792576040805162461bcd60e51b815260206004820152601e60248201527f4c6f616e6572506f6f6c3a20696e73756666696369656e742066756e64730000604482015290519081900360640190fd5b60006117ab61179f6109ba565b6114c4846114346120a7565b90506117b56121b0565b8111156117f35760405162461bcd60e51b81526004018080602001828103825260288152602001806131156028913960400191505060405180910390fd5b6117fd3383612cba565b611805612dc2565b8111156118fd576000611826611819612dc2565b839063ffffffff612b9d16565b90506000611832611cc8565b9050806001600160a01b031663db006a75611866611859611851611c41565b6114c461214c565b859063ffffffff612bfa16565b6040518263ffffffff1660e01b815260040180828152602001915050600060405180830381600087803b15801561189c57600080fd5b505af11580156118b0573d6000803e3d6000fd5b505050506118bc612dc2565b8311156118fa5760405162461bcd60e51b81526004018080602001828103825260368152602001806130ab6036913960400191505060405180910390fd5b50505b600b546040805163a9059cbb60e01b81523360048201526024810184905290516001600160a01b039092169163a9059cbb916044808201926020929091908290030181600087803b15801561195157600080fd5b505af1158015611965573d6000803e3d6000fd5b505050506040513d602081101561197b57600080fd5b505161198657600080fd5b60408051828152905133917f920bb94eb3842a728db98228c375ff6b00c5bc5a54fac6736155517a0a20a61a919081900360200190a25050600f805460ff1916905560006010556001600655565b6119dc611ab2565b6001600160a01b0316336001600160a01b03161480611a055750600c546001600160a01b031633145b611a405760405162461bcd60e51b81526004018080602001828103825260358152602001806132d96035913960400191505060405180910390fd5b600d8054821515600160a01b810260ff60a01b199092169190911790915560408051918252517f6a147bcbe06eaf6543da2b36bda52729a5da9daed5086311758cb80ffec18b079181900360200190a150565b600d54600160a01b900460ff1681565b600a546001600160a01b031681565b6007546001600160a01b031690565b60048054604080516020601f60026000196101006001881615020190951694909404938401819004810282018101909252828152606093909290918301828280156108e55780601f106108ba576101008083540402835291602001916108e5565b600d546001600160a01b03163314611b6b5760405162461bcd60e51b8152600401808060200182810382526029815260200180612f636029913960400191505060405180910390fd5b600c80546001600160a01b0383166001600160a01b0319909116811790915560408051918252517fe73ec16f0f6043487af9cb91eb14c278096f172773ad13f392cd1f9507c9a8ee9181900360200190a150565b6000610904611bcc61284e565b84610f78856040518060600160405280602581526020016133b06025913960016000611bf661284e565b6001600160a01b03908116825260208083019390935260409182016000908120918d1681529252902054919063ffffffff612aa516565b6000610904611c3a61284e565b848461293e565b600080611c4c611cc8565b604080516370a0823160e01b815230600482015290519192506001600160a01b038316916370a0823191602480820192602092909190829003018186803b158015611c9657600080fd5b505afa158015611caa573d6000803e3d6000fd5b505050506040513d6020811015611cc057600080fd5b505191505090565b600080600a60009054906101000a90046001600160a01b03166001600160a01b0316630261bf8b6040518163ffffffff1660e01b815260040160206040518083038186803b158015611d1957600080fd5b505afa158015611d2d573d6000803e3d6000fd5b505050506040513d6020811015611d4357600080fd5b5051600b54604080516335ea6a7560e01b81526001600160a01b0392831660048201529051929350600092918416916335ea6a75916024808201926101a092909190829003018186803b158015611d9957600080fd5b505afa158015611dad573d6000803e3d6000fd5b505050506040513d6101a0811015611dc457600080fd5b5061016001519250505090565b611dd961284e565b6001600160a01b0316611dea611ab2565b6001600160a01b031614611e33576040805162461bcd60e51b815260206004820181905260248201526000805160206131de833981519152604482015290519081900360640190fd5b611e3b612dc2565b811115611e8f576040805162461bcd60e51b815260206004820181905260248201527f4c6f616e6572506f6f6c3a20496e73756666696369656e742042616c616e6365604482015290519081900360640190fd5b600a5460408051630261bf8b60e01b815290516000926001600160a01b031691630261bf8b916004808301926020929190829003018186803b158015611ed457600080fd5b505afa158015611ee8573d6000803e3d6000fd5b505050506040513d6020811015611efe57600080fd5b5051600a546040805163076b7fbb60e51b815290519293506000926001600160a01b039092169163ed6ff76091600480820192602092909190829003018186803b158015611f4b57600080fd5b505afa158015611f5f573d6000803e3d6000fd5b505050506040513d6020811015611f7557600080fd5b5051600b546040805163095ea7b360e01b81526001600160a01b03808516600483015260248201889052915193945091169163095ea7b3916044808201926020929091908290030181600087803b158015611fcf57600080fd5b505af1158015611fe3573d6000803e3d6000fd5b505050506040513d6020811015611ff957600080fd5b5050600b5460408051636968703360e11b81526001600160a01b0392831660048201526024810186905260006044820181905291519285169263d2d0e0669260648084019391929182900301818387803b15801561205657600080fd5b505af115801561206a573d6000803e3d6000fd5b50506040805186815290517fed1eeda1fde9cc22a2ecf41efc0d6cf519c1d95184b36b93b4cd4877881488ee9350908190036020019150a1505050565b60006120bc6120b4610fe4565b6115846121b0565b905090565b6013546000906120ec6120da858563ffffffff612b3c16565b6114c48661271063ffffffff612bfa16565b10159392505050565b6009546001600160a01b031681565b601254111590565b6001600160a01b03918216600090815260016020908152604080832093909416825291909152205490565b60125481565b600d546001600160a01b031681565b600080612157611cc8565b6040805163631a6fd560e11b815230600482015290519192506001600160a01b0383169163c634dfaa91602480820192602092909190829003018186803b158015611c9657600080fd5b600b546001600160a01b031681565b60006120bc6121bd611c41565b611584612dc2565b6121cd61284e565b6001600160a01b03166121de611ab2565b6001600160a01b031614612227576040805162461bcd60e51b815260206004820181905260248201526000805160206131de833981519152604482015290519081900360640190fd5b6001600160a01b03811661226c5760405162461bcd60e51b8152600401808060200182810382526026815260200180612fe56026913960400191505060405180910390fd5b6007546040516001600160a01b038084169216907f8be0079c531659141344cd1fd0a4f28419497f9722a3daafe3b4186f6b6457e090600090a3600780546001600160a01b0319166001600160a01b0392909216919091179055565b600d546001600160a01b031633146123115760405162461bcd60e51b8152600401808060200182810382526029815260200180612f636029913960400191505060405180910390fd5b60118190556040805182815290517faa7021e7e742a4202060dcb401d1ae31b56926da2226d122a41b533c734d0ca89181900360200190a150565b806001600160a01b0316636e31d80a6040518163ffffffff1660e01b815260040160206040518083038186803b15801561238557600080fd5b505afa158015612399573d6000803e3d6000fd5b505050506040513d60208110156123af57600080fd5b50516123ec5760405162461bcd60e51b81526004018080602001828103825260348152602001806130e16034913960400191505060405180910390fd5b6000816001600160a01b031663200d2ed26040518163ffffffff1660e01b815260040160206040518083038186803b15801561242757600080fd5b505afa15801561243b573d6000803e3d6000fd5b505050506040513d602081101561245157600080fd5b50519050600381600481111561246357fe5b10156124a05760405162461bcd60e51b81526004018080602001828103825260278152602001806133356027913960400191505060405180910390fd5b600b54604080516370a0823160e01b815230600482015290516000926001600160a01b0316916370a08231916024808301926020929190829003018186803b1580156124eb57600080fd5b505afa1580156124ff573d6000803e3d6000fd5b505050506040513d602081101561251557600080fd5b5051604080516370a0823160e01b815230600482015290519192506001600160a01b0385169163db006a759183916370a0823191602480820192602092909190829003018186803b15801561256957600080fd5b505afa15801561257d573d6000803e3d6000fd5b505050506040513d602081101561259357600080fd5b5051604080516001600160e01b031960e085901b168152600481019290925251602480830192600092919082900301818387803b1580156125d357600080fd5b505af11580156125e7573d6000803e3d6000fd5b5050600b54604080516370a0823160e01b81523060048201529051600094506001600160a01b0390921692506370a08231916024808301926020929190829003018186803b15801561263857600080fd5b505afa15801561264c573d6000803e3d6000fd5b505050506040513d602081101561266257600080fd5b505190506000612678828463ffffffff612b9d16565b905060005b60085481101561279f57856001600160a01b03166008828154811061269e57fe5b6000918252602090912001546001600160a01b03161415612797576008805460001981019081106126cb57fe5b600091825260209091200154600880546001600160a01b0390921691839081106126f157fe5b9060005260206000200160006101000a8154816001600160a01b0302191690836001600160a01b03160217905550600880548061272a57fe5b6000828152602090819020820160001990810180546001600160a01b03191690559091019091556040805184815290516001600160a01b038916927fcab347be18c8c37ef504626a027a12ea6725f491b5f5b154778d8d0c54f7841e928290030190a250505050506127d7565b60010161267d565b5060405162461bcd60e51b8152600401808060200182810382526037815260200180612f8c6037913960400191505060405180910390fd5b50565b60006127ee8261271063ffffffff612bfa16565b60115461280290859063ffffffff612bfa16565b11159392505050565b6000818061281a579050611597565b60006128246109ba565b1115612844576128416128356120a7565b6114c4856114346109ba565b90505b6109083382612e3e565b3390565b6001600160a01b0383166128975760405162461bcd60e51b81526004018080602001828103825260248152602001806132b56024913960400191505060405180910390fd5b6001600160a01b0382166128dc5760405162461bcd60e51b815260040180806020018281038252602281526020018061300b6022913960400191505060405180910390fd5b6001600160a01b03808416600081815260016020908152604080832094871680845294825291829020859055815185815291517f8c5be1e5ebec7d5bd14f71427d1e84f3dd0314c0f7b2291e5b200ac8c7c3b9259281900390910190a3505050565b6001600160a01b0383166129835760405162461bcd60e51b81526004018080602001828103825260258152602001806132906025913960400191505060405180910390fd5b6001600160a01b0382166129c85760405162461bcd60e51b8152600401808060200182810382526023815260200180612f406023913960400191505060405180910390fd5b6129d3838383612f3a565b612a168160405180606001604052806026815260200161304f602691396001600160a01b038616600090815260208190526040902054919063ffffffff612aa516565b6001600160a01b038085166000908152602081905260408082209390935590841681522054612a4b908263ffffffff612b3c16565b6001600160a01b038084166000818152602081815260409182902094909455805185815290519193928716927fddf252ad1be2c89b69c2b068fc378daa952ba7f163c4a11628f55a4df523b3ef92918290030190a3505050565b60008184841115612b345760405162461bcd60e51b81526004018080602001828103825283818151815260200191508051906020019080838360005b83811015612af9578181015183820152602001612ae1565b50505050905090810190601f168015612b265780820380516001836020036101000a031916815260200191505b509250505060405180910390fd5b505050900390565b600082820183811015612b96576040805162461bcd60e51b815260206004820152601b60248201527f536166654d6174683a206164646974696f6e206f766572666c6f770000000000604482015290519081900360640190fd5b9392505050565b600082821115612bf4576040805162461bcd60e51b815260206004820152601e60248201527f536166654d6174683a207375627472616374696f6e206f766572666c6f770000604482015290519081900360640190fd5b50900390565b600082612c0957506000610908565b82820282848281612c1657fe5b0414612b965760405162461bcd60e51b81526004018080602001828103825260218152602001806131666021913960400191505060405180910390fd5b6000808211612ca9576040805162461bcd60e51b815260206004820152601a60248201527f536166654d6174683a206469766973696f6e206279207a65726f000000000000604482015290519081900360640190fd5b818381612cb257fe5b049392505050565b6001600160a01b038216612cff5760405162461bcd60e51b81526004018080602001828103825260218152602001806132346021913960400191505060405180910390fd5b612d0b82600083612f3a565b612d4e81604051806060016040528060228152602001612fc3602291396001600160a01b038516600090815260208190526040902054919063ffffffff612aa516565b6001600160a01b038316600090815260208190526040902055600254612d7a908263ffffffff612b9d16565b6002556040805182815290516000916001600160a01b038516917fddf252ad1be2c89b69c2b068fc378daa952ba7f163c4a11628f55a4df523b3ef9181900360200190a35050565b600b54604080516370a0823160e01b815230600482015290516000926001600160a01b0316916370a08231916024808301926020929190829003018186803b158015612e0d57600080fd5b505afa158015612e21573d6000803e3d6000fd5b505050506040513d6020811015612e3757600080fd5b5051905090565b6001600160a01b038216612e99576040805162461bcd60e51b815260206004820152601f60248201527f45524332303a206d696e7420746f20746865207a65726f206164647265737300604482015290519081900360640190fd5b612ea560008383612f3a565b600254612eb8908263ffffffff612b3c16565b6002556001600160a01b038216600090815260208190526040902054612ee4908263ffffffff612b3c16565b6001600160a01b0383166000818152602081815260408083209490945583518581529351929391927fddf252ad1be2c89b69c2b068fc378daa952ba7f163c4a11628f55a4df523b3ef9281900390910190a35050565b50505056fe45524332303a207472616e7366657220746f20746865207a65726f20616464726573734c6f616e6572506f6f6c3a2043616c6c6572206973206e6f74204c6f616e657220636f6e74726163744c6f616e6572506f6f6c3a2054686973206c6f616e20686173206e6f74206265656e2066756e64656420627920746865206c656e64657245524332303a206275726e20616d6f756e7420657863656564732062616c616e63654f776e61626c653a206e6577206f776e657220697320746865207a65726f206164647265737345524332303a20617070726f766520746f20746865207a65726f20616464726573734c6f616e6572506f6f6c3a2053656e646572206973206e6f7420626f72726f77657245524332303a207472616e7366657220616d6f756e7420657863656564732062616c616e63654c6f616e6572506f6f6c3a204e6f7420656e6f75676820636f6d6d756e697479206d616e6167657273207061727469636970617465644c6f616e6572506f6f6c3a204e6f7420656e6f7567682066756e647320776572652077697468647261776e2066726f6d204d6f6f6c614c6f616e6572506f6f6c3a204f6e6c79204c6f616e546f6b656e732063616e206265207573656420746f207265636c61696d65644c6f616e6572506f6f6c3a204e6f7420656e6f756768206c697175696469747920696e20706f6f6c4c6f616e6572506f6f6c3a204f6e6c79204c6f616e546f6b656e732063616e2062652066756e646564536166654d6174683a206d756c7469706c69636174696f6e206f766572666c6f774c6f616e6572506f6f6c3a204e6f7420656e6f75676820766f74657320676976656e20666f7220746865206c6f616e45524332303a207472616e7366657220616d6f756e74206578636565647320616c6c6f77616e63654f776e61626c653a2063616c6c6572206973206e6f7420746865206f776e65724c6f616e6572506f6f6c3a204c6f616e20646f6573206e6f74206861766520656e6f75676820617070726f76616c20726174696e677345524332303a206275726e2066726f6d20746865207a65726f20616464726573734c6f616e6572506f6f6c3a204f6e6c79207468652073616d652063757272656e6379204c6f616e546f6b656e732063616e2062652066756e64656445524332303a207472616e736665722066726f6d20746865207a65726f206164647265737345524332303a20617070726f76652066726f6d20746865207a65726f20616464726573734c6f616e6572506f6f6c3a2043616c6c6572206973206e656974686572206f776e6572206e6f722066756e6473206d616e616765724c6f616e6572506f6f6c3b20496e73756666696369656e742061546f6b656e2042616c616e63654c6f616e6572506f6f6c3a204c6f616e546f6b656e206973206e6f7420636c6f736564207965744c6f616e6572506f6f6c3a204a6f696e696e672074686520706f6f6c206973207061757365644c6f616e6572506f6f6c3a2043616e6e6f74206a6f696e20616e64206578697420696e2073616d6520626c6f636b45524332303a2064656372656173656420616c6c6f77616e63652062656c6f77207a65726fa26469706673582212204e2858cce97f174a9428bcfc6a5d071be291e797f7c74a693e29e0d5c326a83b64736f6c634300060a00334c6f616e6572506f6f6c466163746f72793a206f6e6c79206c6f616e6572206164647265737320616c6c6f776564a2646970667358221220bf58ac96aa30c2ba6a3a3c59f6d6195b0fd854d719bd22cab351ec854758d96f64736f6c634300060a0033",
  "immutableReferences": {},
  "source": "// SPDX-License-Identifier: Apache-2.0\npragma solidity ^0.6.10;\n\nimport \"./LoanerPool.sol\";\nimport \"../interfaces/ILoanerPoolFactory.sol\";\n\n/**\n * @notice Welcome to LoanerPoolFactory\n */\ncontract LoanerPoolFactory {\n    address public cUSDAddress;\n    address public loanerAddress;\n    address public moolaAddressesProviderAddress;\n\n    constructor(address _cUSDAddress, address _loanerAddress, address _moolaAddressesProviderAddress) public {\n        cUSDAddress = _cUSDAddress;\n        loanerAddress = _loanerAddress;\n        moolaAddressesProviderAddress = _moolaAddressesProviderAddress;\n    }\n\n    modifier onlyLoaner() {\n        require(msg.sender == loanerAddress, \"LoanerPoolFactory: only loaner address allowed\");\n        _;\n    }\n\n    /**\n     * @dev Add a new pool. Can be used only by an admin.\n     * For further information regarding each parameter, see\n     * *LoanerPool* smart contract constructor.\n     */\n    function deployPool(\n        address _fundsManager,\n        address _communityAddress\n    ) external onlyLoaner returns (address) {\n        return\n            address(\n                new LoanerPool(\n                    moolaAddressesProviderAddress,\n                    cUSDAddress,\n                    _communityAddress,\n                    _fundsManager,\n                    msg.sender\n                )\n            );\n    }\n}\n",
  "sourcePath": "/home/bob/loaner-celo/smart-contracts/contracts/lending/LoanerPoolFactory.sol",
  "compiler": {
    "name": "solc",
    "version": "0.6.10+commit.00c0fcaf.Emscripten.clang"
  },
  "schemaVersion": "3.3.3",
  "updatedAt": "2021-03-19T23:14:35.051Z",
  "networkType": "ethereum",
  "devdoc": {
    "methods": {
      "deployPool(address,address)": {
        "details": "Add a new pool. Can be used only by an admin. For further information regarding each parameter, see *LoanerPool* smart contract constructor."
      }
    }
  },
  "userdoc": {
    "methods": {},
    "notice": "Welcome to LoanerPoolFactory"
  }
}