{
  "contractName": "LoanToken",
  "abi": [
    {
      "inputs": [
        {
          "internalType": "contract IERC20",
          "name": "_currencyToken",
          "type": "address"
        },
        {
          "internalType": "address",
          "name": "_borrower",
          "type": "address"
        },
        {
          "internalType": "address",
          "name": "_lender",
          "type": "address"
        },
        {
          "internalType": "uint256",
          "name": "_amount",
          "type": "uint256"
        },
        {
          "internalType": "uint256",
          "name": "_term",
          "type": "uint256"
        },
        {
          "internalType": "uint256",
          "name": "_apy",
          "type": "uint256"
        }
      ],
      "stateMutability": "nonpayable",
      "type": "constructor"
    },
    {
      "anonymous": false,
      "inputs": [
        {
          "indexed": true,
          "internalType": "address",
          "name": "owner",
          "type": "address"
        },
        {
          "indexed": true,
          "internalType": "address",
          "name": "spender",
          "type": "address"
        },
        {
          "indexed": false,
          "internalType": "uint256",
          "name": "value",
          "type": "uint256"
        }
      ],
      "name": "Approval",
      "type": "event"
    },
    {
      "anonymous": false,
      "inputs": [
        {
          "indexed": false,
          "internalType": "enum ILoanToken.Status",
          "name": "status",
          "type": "uint8"
        },
        {
          "indexed": false,
          "internalType": "uint256",
          "name": "returnedAmount",
          "type": "uint256"
        }
      ],
      "name": "Closed",
      "type": "event"
    },
    {
      "anonymous": false,
      "inputs": [
        {
          "indexed": false,
          "internalType": "address",
          "name": "lender",
          "type": "address"
        }
      ],
      "name": "Funded",
      "type": "event"
    },
    {
      "anonymous": false,
      "inputs": [
        {
          "indexed": false,
          "internalType": "address",
          "name": "borrower",
          "type": "address"
        },
        {
          "indexed": false,
          "internalType": "uint256",
          "name": "reclaimedAmount",
          "type": "uint256"
        }
      ],
      "name": "Reclaimed",
      "type": "event"
    },
    {
      "anonymous": false,
      "inputs": [
        {
          "indexed": false,
          "internalType": "address",
          "name": "receiver",
          "type": "address"
        },
        {
          "indexed": false,
          "internalType": "uint256",
          "name": "burnedAmount",
          "type": "uint256"
        },
        {
          "indexed": false,
          "internalType": "uint256",
          "name": "redeemedAmount",
          "type": "uint256"
        }
      ],
      "name": "Redeemed",
      "type": "event"
    },
    {
      "anonymous": false,
      "inputs": [
        {
          "indexed": false,
          "internalType": "address",
          "name": "repayer",
          "type": "address"
        },
        {
          "indexed": false,
          "internalType": "uint256",
          "name": "repaidAmount",
          "type": "uint256"
        }
      ],
      "name": "Repaid",
      "type": "event"
    },
    {
      "anonymous": false,
      "inputs": [
        {
          "indexed": true,
          "internalType": "address",
          "name": "from",
          "type": "address"
        },
        {
          "indexed": true,
          "internalType": "address",
          "name": "to",
          "type": "address"
        },
        {
          "indexed": false,
          "internalType": "uint256",
          "name": "value",
          "type": "uint256"
        }
      ],
      "name": "Transfer",
      "type": "event"
    },
    {
      "anonymous": false,
      "inputs": [
        {
          "indexed": false,
          "internalType": "address",
          "name": "account",
          "type": "address"
        },
        {
          "indexed": false,
          "internalType": "bool",
          "name": "status",
          "type": "bool"
        }
      ],
      "name": "TransferAllowanceChanged",
      "type": "event"
    },
    {
      "anonymous": false,
      "inputs": [
        {
          "indexed": false,
          "internalType": "address",
          "name": "beneficiary",
          "type": "address"
        }
      ],
      "name": "Withdrawn",
      "type": "event"
    },
    {
      "inputs": [
        {
          "internalType": "address",
          "name": "owner",
          "type": "address"
        },
        {
          "internalType": "address",
          "name": "spender",
          "type": "address"
        }
      ],
      "name": "allowance",
      "outputs": [
        {
          "internalType": "uint256",
          "name": "",
          "type": "uint256"
        }
      ],
      "stateMutability": "view",
      "type": "function"
    },
    {
      "inputs": [],
      "name": "amount",
      "outputs": [
        {
          "internalType": "uint256",
          "name": "",
          "type": "uint256"
        }
      ],
      "stateMutability": "view",
      "type": "function"
    },
    {
      "inputs": [
        {
          "internalType": "address",
          "name": "spender",
          "type": "address"
        },
        {
          "internalType": "uint256",
          "name": "amount",
          "type": "uint256"
        }
      ],
      "name": "approve",
      "outputs": [
        {
          "internalType": "bool",
          "name": "",
          "type": "bool"
        }
      ],
      "stateMutability": "nonpayable",
      "type": "function"
    },
    {
      "inputs": [],
      "name": "apy",
      "outputs": [
        {
          "internalType": "uint256",
          "name": "",
          "type": "uint256"
        }
      ],
      "stateMutability": "view",
      "type": "function"
    },
    {
      "inputs": [
        {
          "internalType": "address",
          "name": "account",
          "type": "address"
        }
      ],
      "name": "balanceOf",
      "outputs": [
        {
          "internalType": "uint256",
          "name": "",
          "type": "uint256"
        }
      ],
      "stateMutability": "view",
      "type": "function"
    },
    {
      "inputs": [],
      "name": "borrower",
      "outputs": [
        {
          "internalType": "address",
          "name": "",
          "type": "address"
        }
      ],
      "stateMutability": "view",
      "type": "function"
    },
    {
      "inputs": [
        {
          "internalType": "address",
          "name": "",
          "type": "address"
        }
      ],
      "name": "canTransfer",
      "outputs": [
        {
          "internalType": "bool",
          "name": "",
          "type": "bool"
        }
      ],
      "stateMutability": "view",
      "type": "function"
    },
    {
      "inputs": [],
      "name": "currencyToken",
      "outputs": [
        {
          "internalType": "contract IERC20",
          "name": "",
          "type": "address"
        }
      ],
      "stateMutability": "view",
      "type": "function"
    },
    {
      "inputs": [],
      "name": "debt",
      "outputs": [
        {
          "internalType": "uint256",
          "name": "",
          "type": "uint256"
        }
      ],
      "stateMutability": "view",
      "type": "function"
    },
    {
      "inputs": [],
      "name": "decimals",
      "outputs": [
        {
          "internalType": "uint8",
          "name": "",
          "type": "uint8"
        }
      ],
      "stateMutability": "view",
      "type": "function"
    },
    {
      "inputs": [
        {
          "internalType": "address",
          "name": "spender",
          "type": "address"
        },
        {
          "internalType": "uint256",
          "name": "subtractedValue",
          "type": "uint256"
        }
      ],
      "name": "decreaseAllowance",
      "outputs": [
        {
          "internalType": "bool",
          "name": "",
          "type": "bool"
        }
      ],
      "stateMutability": "nonpayable",
      "type": "function"
    },
    {
      "inputs": [
        {
          "internalType": "address",
          "name": "spender",
          "type": "address"
        },
        {
          "internalType": "uint256",
          "name": "addedValue",
          "type": "uint256"
        }
      ],
      "name": "increaseAllowance",
      "outputs": [
        {
          "internalType": "bool",
          "name": "",
          "type": "bool"
        }
      ],
      "stateMutability": "nonpayable",
      "type": "function"
    },
    {
      "inputs": [],
      "name": "lender",
      "outputs": [
        {
          "internalType": "address",
          "name": "",
          "type": "address"
        }
      ],
      "stateMutability": "view",
      "type": "function"
    },
    {
      "inputs": [],
      "name": "name",
      "outputs": [
        {
          "internalType": "string",
          "name": "",
          "type": "string"
        }
      ],
      "stateMutability": "view",
      "type": "function"
    },
    {
      "inputs": [],
      "name": "redeemed",
      "outputs": [
        {
          "internalType": "uint256",
          "name": "",
          "type": "uint256"
        }
      ],
      "stateMutability": "view",
      "type": "function"
    },
    {
      "inputs": [],
      "name": "start",
      "outputs": [
        {
          "internalType": "uint256",
          "name": "",
          "type": "uint256"
        }
      ],
      "stateMutability": "view",
      "type": "function"
    },
    {
      "inputs": [],
      "name": "status",
      "outputs": [
        {
          "internalType": "enum ILoanToken.Status",
          "name": "",
          "type": "uint8"
        }
      ],
      "stateMutability": "view",
      "type": "function"
    },
    {
      "inputs": [],
      "name": "symbol",
      "outputs": [
        {
          "internalType": "string",
          "name": "",
          "type": "string"
        }
      ],
      "stateMutability": "view",
      "type": "function"
    },
    {
      "inputs": [],
      "name": "term",
      "outputs": [
        {
          "internalType": "uint256",
          "name": "",
          "type": "uint256"
        }
      ],
      "stateMutability": "view",
      "type": "function"
    },
    {
      "inputs": [],
      "name": "totalSupply",
      "outputs": [
        {
          "internalType": "uint256",
          "name": "",
          "type": "uint256"
        }
      ],
      "stateMutability": "view",
      "type": "function"
    },
    {
      "inputs": [
        {
          "internalType": "address",
          "name": "recipient",
          "type": "address"
        },
        {
          "internalType": "uint256",
          "name": "amount",
          "type": "uint256"
        }
      ],
      "name": "transfer",
      "outputs": [
        {
          "internalType": "bool",
          "name": "",
          "type": "bool"
        }
      ],
      "stateMutability": "nonpayable",
      "type": "function"
    },
    {
      "inputs": [
        {
          "internalType": "address",
          "name": "sender",
          "type": "address"
        },
        {
          "internalType": "address",
          "name": "recipient",
          "type": "address"
        },
        {
          "internalType": "uint256",
          "name": "amount",
          "type": "uint256"
        }
      ],
      "name": "transferFrom",
      "outputs": [
        {
          "internalType": "bool",
          "name": "",
          "type": "bool"
        }
      ],
      "stateMutability": "nonpayable",
      "type": "function"
    },
    {
      "inputs": [],
      "name": "isLoanToken",
      "outputs": [
        {
          "internalType": "bool",
          "name": "",
          "type": "bool"
        }
      ],
      "stateMutability": "pure",
      "type": "function"
    },
    {
      "inputs": [],
      "name": "getParameters",
      "outputs": [
        {
          "internalType": "uint256",
          "name": "",
          "type": "uint256"
        },
        {
          "internalType": "uint256",
          "name": "",
          "type": "uint256"
        },
        {
          "internalType": "uint256",
          "name": "",
          "type": "uint256"
        }
      ],
      "stateMutability": "view",
      "type": "function"
    },
    {
      "inputs": [
        {
          "internalType": "uint256",
          "name": "_balance",
          "type": "uint256"
        }
      ],
      "name": "value",
      "outputs": [
        {
          "internalType": "uint256",
          "name": "",
          "type": "uint256"
        }
      ],
      "stateMutability": "view",
      "type": "function"
    },
    {
      "inputs": [],
      "name": "fund",
      "outputs": [],
      "stateMutability": "nonpayable",
      "type": "function"
    },
    {
      "inputs": [
        {
          "internalType": "address",
          "name": "account",
          "type": "address"
        },
        {
          "internalType": "bool",
          "name": "_status",
          "type": "bool"
        }
      ],
      "name": "allowTransfer",
      "outputs": [],
      "stateMutability": "nonpayable",
      "type": "function"
    },
    {
      "inputs": [
        {
          "internalType": "address",
          "name": "_beneficiary",
          "type": "address"
        }
      ],
      "name": "withdraw",
      "outputs": [],
      "stateMutability": "nonpayable",
      "type": "function"
    },
    {
      "inputs": [],
      "name": "close",
      "outputs": [],
      "stateMutability": "nonpayable",
      "type": "function"
    },
    {
      "inputs": [
        {
          "internalType": "uint256",
          "name": "_amount",
          "type": "uint256"
        }
      ],
      "name": "redeem",
      "outputs": [],
      "stateMutability": "nonpayable",
      "type": "function"
    },
    {
      "inputs": [
        {
          "internalType": "address",
          "name": "_sender",
          "type": "address"
        },
        {
          "internalType": "uint256",
          "name": "_amount",
          "type": "uint256"
        }
      ],
      "name": "repay",
      "outputs": [],
      "stateMutability": "nonpayable",
      "type": "function"
    },
    {
      "inputs": [],
      "name": "reclaim",
      "outputs": [],
      "stateMutability": "nonpayable",
      "type": "function"
    },
    {
      "inputs": [],
      "name": "repaid",
      "outputs": [
        {
          "internalType": "uint256",
          "name": "",
          "type": "uint256"
        }
      ],
      "stateMutability": "view",
      "type": "function"
    },
    {
      "inputs": [],
      "name": "balance",
      "outputs": [
        {
          "internalType": "uint256",
          "name": "",
          "type": "uint256"
        }
      ],
      "stateMutability": "view",
      "type": "function"
    },
    {
      "inputs": [],
      "name": "profit",
      "outputs": [
        {
          "internalType": "uint256",
          "name": "",
          "type": "uint256"
        }
      ],
      "stateMutability": "view",
      "type": "function"
    }
  ],
  "bytecode": "0x60806040523480156200001157600080fd5b50604051620023f8380380620023f8833981810160405260c08110156200003757600080fd5b5080516020808301516040808501516060860151608087015160a09097015183518085018552600a8152692637b0b7102a37b5b2b760b11b818801908152855180870190965260048652632627a0a760e11b97860197909752805197989597939692959491939092620000ae916003919062000351565b508051620000c490600490602084019062000351565b50506005805460ff19166012179055506001600160a01b03841662000130576040805162461bcd60e51b815260206004820152601c60248201527f4c6f616e546f6b656e3a204c656e646572206973206e6f742073657400000000604482015290519081900360640190fd5b600e8054610100600160a81b03199081166101006001600160a01b038a811682029290921790935560058054909216888216909302929092179055600684905560078390556008829055600a80546001600160a01b0319169186169190911790556200019c83620001ac565b600b5550620003f6945050505050565b6000620002226200020d612710620001f96301e13380620001f9600754620001e56008548a6200022860201b6200147c1790919060201c565b6200022860201b6200147c1790919060201c565b6200028d60201b620014dc1790919060201c565b83620002f660201b620015431790919060201c565b92915050565b600082620002395750600062000222565b828202828482816200024757fe5b0414620002865760405162461bcd60e51b8152600401808060200182810382526021815260200180620023d76021913960400191505060405180910390fd5b9392505050565b6000808211620002e4576040805162461bcd60e51b815260206004820152601a60248201527f536166654d6174683a206469766973696f6e206279207a65726f000000000000604482015290519081900360640190fd5b818381620002ee57fe5b049392505050565b60008282018381101562000286576040805162461bcd60e51b815260206004820152601b60248201527f536166654d6174683a206164646974696f6e206f766572666c6f770000000000604482015290519081900360640190fd5b828054600181600116156101000203166002900490600052602060002090601f016020900481019282601f106200039457805160ff1916838001178555620003c4565b82800160010185558215620003c4579182015b82811115620003c4578251825591602001919060010190620003a7565b50620003d2929150620003d6565b5090565b620003f391905b80821115620003d25760008155600101620003dd565b90565b611fd180620004066000396000f3fe608060405234801561001057600080fd5b50600436106102115760003560e01c806378fc3cb311610125578063b60d4288116100ad578063c5a46ee61161007c578063c5a46ee614610579578063db006a7514610596578063dd62ed3e146105b3578063e231bff0146105e1578063fbb27dce146105e957610211565b8063b60d428814610559578063b69ef8a814610561578063bcead63e14610569578063be9a65551461057157610211565b8063a10ffbed116100f4578063a10ffbed146104cb578063a457c2d7146104d3578063a5ea11da146104ff578063a9059cbb14610525578063aa8c217c1461055157610211565b806378fc3cb31461048d5780637df1f1b9146104b357806380e9071b146104bb57806395d89b41146104c357610211565b806339509351116101a857806351cff8d91161017757806351cff8d91461040d57806366d16cc3146104335780636b2fa3741461043b5780636e31d80a1461045f57806370a082311461046757610211565b806339509351146103a35780633bcfc4b8146103cf57806343d726d6146103d75780634d9b8fcf146103df57610211565b8063200d2ed2116101e4578063200d2ed2146102f557806322867d781461032157806323b872dd1461034f578063313ce5671461038557610211565b806306fdde0314610216578063095ea7b3146102935780630dca59c1146102d357806318160ddd146102ed575b600080fd5b61021e6105f1565b6040805160208082528351818301528351919283929083019185019080838360005b83811015610258578181015183820152602001610240565b50505050905090810190601f1680156102855780820380516001836020036101000a031916815260200191505b509250505060405180910390f35b6102bf600480360360408110156102a957600080fd5b506001600160a01b038135169060200135610687565b604080519115158252519081900360200190f35b6102db6106a5565b60408051918252519081900360200190f35b6102db6106ab565b6102fd6106b1565b6040518082600481111561030d57fe5b60ff16815260200191505060405180910390f35b61034d6004803603604081101561033757600080fd5b506001600160a01b0381351690602001356106ba565b005b6102bf6004803603606081101561036557600080fd5b506001600160a01b03813581169160208101359091169060400135610841565b61038d6108ce565b6040805160ff9092168252519081900360200190f35b6102bf600480360360408110156103b957600080fd5b506001600160a01b0381351690602001356108d7565b6102db61092b565b61034d610931565b61034d600480360360408110156103f557600080fd5b506001600160a01b0381351690602001351515610a7c565b61034d6004803603602081101561042357600080fd5b50356001600160a01b0316610b29565b6102db610ca6565b610443610cc4565b604080516001600160a01b039092168252519081900360200190f35b6102bf610cd8565b6102db6004803603602081101561047d57600080fd5b50356001600160a01b0316610cdd565b6102bf600480360360208110156104a357600080fd5b50356001600160a01b0316610cfc565b610443610d11565b61034d610d25565b61021e610f35565b6102db610f96565b6102bf600480360360408110156104e957600080fd5b506001600160a01b038135169060200135610f9c565b61050761100a565b60408051938452602084019290925282820152519081900360600190f35b6102bf6004803603604081101561053b57600080fd5b506001600160a01b038135169060200135611018565b6102db61102c565b61034d611032565b6102db6111b4565b6104436111be565b6102db6111cd565b6102db6004803603602081101561058f57600080fd5b50356111d3565b61034d600480360360208110156105ac57600080fd5b5035611276565b6102db600480360360408110156105c957600080fd5b506001600160a01b03813581169160200135166113df565b6102db61140a565b6102db611410565b60038054604080516020601f600260001961010060018816150201909516949094049384018190048102820181019092528281526060939092909183018282801561067d5780601f106106525761010080835404028352916020019161067d565b820191906000526020600020905b81548152906001019060200180831161066057829003601f168201915b5050505050905090565b600061069b61069461159d565b84846115a1565b5060015b92915050565b600b5481565b60025490565b600e5460ff1681565b6002600e5460ff1660048111156106cd57fe5b101561070a5760405162461bcd60e51b815260040180806020018281038252602d815260200180611dcd602d913960400191505060405180910390fd5b61072461071561168d565b600b549063ffffffff61170e16565b8111156107625760405162461bcd60e51b8152600401808060200182810382526025815260200180611e436025913960400191505060405180910390fd5b600e54604080516323b872dd60e01b81526001600160a01b038581166004830152306024830152604482018590529151610100909304909116916323b872dd916064808201926020929091908290030181600087803b1580156107c457600080fd5b505af11580156107d8573d6000803e3d6000fd5b505050506040513d60208110156107ee57600080fd5b50516107f957600080fd5b604080516001600160a01b03841681526020810183905281517f0516911bcc3a0a7412a44601057c0a0a1ec628bde049a84284bc428866534488929181900390910190a15050565b600061084e84848461176b565b6108c48461085a61159d565b6108bf85604051806060016040528060288152602001611e1b602891396001600160a01b038a1660009081526001602052604081209061089861159d565b6001600160a01b03168152602081019190915260400160002054919063ffffffff6117ed16565b6115a1565b5060019392505050565b60055460ff1690565b600061069b6108e461159d565b846108bf85600160006108f561159d565b6001600160a01b03908116825260208083019390935260409182016000908120918c16815292529020549063ffffffff61154316565b60085481565b6001600e5460ff16600481111561094457fe5b148061096057506002600e5460ff16600481111561095e57fe5b145b61099b5760405162461bcd60e51b8152600401808060200182810382526037815260200180611d6e6037913960400191505060405180910390fd5b426109b360075460095461154390919063ffffffff16565b11156109f05760405162461bcd60e51b8152600401808060200182810382526024815260200180611bf56024913960400191505060405180910390fd5b600b546109fb61168d565b10610a1257600e805460ff19166003179055610a20565b600e805460ff191660041790555b600e547f28bd284f46889d08743cedeaa5a283383637a7f257dcd1d67d9018e4947b5a5a9060ff16610a5061168d565b60405180836004811115610a6057fe5b60ff1681526020018281526020019250505060405180910390a1565b600a546001600160a01b03163314610ac55760405162461bcd60e51b815260040180806020018281038252602f815260200180611ce1602f913960400191505060405180910390fd5b6001600160a01b0382166000818152600d6020908152604091829020805460ff191685151590811790915582519384529083015280517f1b3b164cc59c87814760e94930af830522796bfcf37eb8c9953f560a1999b0cb9281900390910190a15050565b60055461010090046001600160a01b03163314610b775760405162461bcd60e51b8152600401808060200182810382526025815260200180611cbc6025913960400191505060405180910390fd5b6001600e5460ff166004811115610b8a57fe5b14610bc65760405162461bcd60e51b815260040180806020018281038252602a815260200180611efd602a913960400191505060405180910390fd5b600e805460ff1916600217908190556006546040805163a9059cbb60e01b81526001600160a01b038581166004830152602482019390935290516101009093049091169163a9059cbb916044808201926020929091908290030181600087803b158015610c3257600080fd5b505af1158015610c46573d6000803e3d6000fd5b505050506040513d6020811015610c5c57600080fd5b5051610c6757600080fd5b604080516001600160a01b038316815290517ff45a04d08a70caa7eb4b747571305559ad9fdf4a093afd41506b35c8a306fa949181900360200190a150565b6000610cbf600654600b5461170e90919063ffffffff16565b905090565b600e5461010090046001600160a01b031681565b600190565b6001600160a01b0381166000908152602081905260409020545b919050565b600d6020526000908152604090205460ff1681565b60055461010090046001600160a01b031681565b6003600e5460ff166004811115610d3857fe5b1015610d755760405162461bcd60e51b8152600401808060200182810382526038815260200180611d366038913960400191505060405180910390fd5b60055461010090046001600160a01b03163314610dc35760405162461bcd60e51b8152600401808060200182810382526025815260200180611cbc6025913960400191505060405180910390fd5b610dcb6106ab565b15610e075760405162461bcd60e51b815260040180806020018281038252603c815260200180611c5e603c913960400191505060405180910390fd5b6000610e1161168d565b905060008111610e525760405162461bcd60e51b8152600401808060200182810382526028815260200180611da56028913960400191505060405180910390fd5b600e546005546040805163a9059cbb60e01b81526001600160a01b03610100938490048116600483015260248201869052915192909304169163a9059cbb9160448083019260209291908290030181600087803b158015610eb257600080fd5b505af1158015610ec6573d6000803e3d6000fd5b505050506040513d6020811015610edc57600080fd5b5051610ee757600080fd5b600554604080516101009092046001600160a01b031682526020820183905280517fcab347be18c8c37ef504626a027a12ea6725f491b5f5b154778d8d0c54f7841e9281900390910190a150565b60048054604080516020601f600260001961010060018816150201909516949094049384018190048102820181019092528281526060939092909183018282801561067d5780601f106106525761010080835404028352916020019161067d565b60075481565b600061069b610fa961159d565b846108bf85604051806060016040528060258152602001611f776025913960016000610fd361159d565b6001600160a01b03908116825260208083019390935260409182016000908120918d1681529252902054919063ffffffff6117ed16565b600654600854600754909192565b600061069b61102561159d565b848461176b565b60065481565b6000600e5460ff16600481111561104557fe5b146110815760405162461bcd60e51b815260040180806020018281038252602c815260200180611f27602c913960400191505060405180910390fd5b600a546001600160a01b031633146110ca5760405162461bcd60e51b815260040180806020018281038252602f815260200180611ce1602f913960400191505060405180910390fd5b600e805460ff1916600117905542600955600b546110e9903390611884565b600e54600654604080516323b872dd60e01b81523360048201523060248201526044810192909252516101009092046001600160a01b0316916323b872dd916064808201926020929091908290030181600087803b15801561114a57600080fd5b505af115801561115e573d6000803e3d6000fd5b505050506040513d602081101561117457600080fd5b505161117f57600080fd5b6040805133815290517fb436c2bf863ccd7b8f63171201efd4792066b4ce8e543dde9c3e9e9ab98e216c9181900360200190a1565b6000610cbf61168d565b600a546001600160a01b031681565b60095481565b6000816111e257506000610cf7565b60006111f96009544261170e90919063ffffffff16565b905060075481111561120a57506007545b600061124d6127106112416301e133806112418661123560085460065461147c90919063ffffffff16565b9063ffffffff61147c16565b9063ffffffff6114dc16565b905061126e600b54611241866112358560065461154390919063ffffffff16565b949350505050565b6003600e5460ff16600481111561128957fe5b10156112c65760405162461bcd60e51b8152600401808060200182810382526038815260200180611d366038913960400191505060405180910390fd5b60006112eb6112d36106ab565b6112416112de61168d565b859063ffffffff61147c16565b600c54909150611301908263ffffffff61154316565b600c5561130e3383611980565b600e546040805163a9059cbb60e01b81523360048201526024810184905290516101009092046001600160a01b03169163a9059cbb916044808201926020929091908290030181600087803b15801561136657600080fd5b505af115801561137a573d6000803e3d6000fd5b505050506040513d602081101561139057600080fd5b505161139b57600080fd5b604080513381526020810184905280820183905290517ff3a670cd3af7d64b488926880889d08a8585a138ff455227af6737339a1ec2629181900360600190a15050565b6001600160a01b03918216600090815260016020908152604080832093909416825291909152205490565b600c5481565b60006002600e5460ff16600481111561142557fe5b10156114625760405162461bcd60e51b815260040180806020018281038252602d815260200180611dcd602d913960400191505060405180910390fd5b610cbf600c5461147061168d565b9063ffffffff61154316565b60008261148b5750600061069f565b8282028284828161149857fe5b04146114d55760405162461bcd60e51b8152600401808060200182810382526021815260200180611dfa6021913960400191505060405180910390fd5b9392505050565b6000808211611532576040805162461bcd60e51b815260206004820152601a60248201527f536166654d6174683a206469766973696f6e206279207a65726f000000000000604482015290519081900360640190fd5b81838161153b57fe5b049392505050565b6000828201838110156114d5576040805162461bcd60e51b815260206004820152601b60248201527f536166654d6174683a206164646974696f6e206f766572666c6f770000000000604482015290519081900360640190fd5b3390565b6001600160a01b0383166115e65760405162461bcd60e51b8152600401808060200182810382526024815260200180611f536024913960400191505060405180910390fd5b6001600160a01b03821661162b5760405162461bcd60e51b8152600401808060200182810382526022815260200180611c9a6022913960400191505060405180910390fd5b6001600160a01b03808416600081815260016020908152604080832094871680845294825291829020859055815185815291517f8c5be1e5ebec7d5bd14f71427d1e84f3dd0314c0f7b2291e5b200ac8c7c3b9259281900390910190a3505050565b600e54604080516370a0823160e01b8152306004820152905160009261010090046001600160a01b0316916370a08231916024808301926020929190829003018186803b1580156116dd57600080fd5b505afa1580156116f1573d6000803e3d6000fd5b505050506040513d602081101561170757600080fd5b5051905090565b600082821115611765576040805162461bcd60e51b815260206004820152601e60248201527f536166654d6174683a207375627472616374696f6e206f766572666c6f770000604482015290519081900360640190fd5b50900390565b600a5483906001600160a01b03808316911614806117a157506001600160a01b0381166000908152600d602052604090205460ff165b6117dc5760405162461bcd60e51b815260040180806020018281038252604f815260200180611e89604f913960600191505060405180910390fd5b6117e7848484611a88565b50505050565b6000818484111561187c5760405162461bcd60e51b81526004018080602001828103825283818151815260200191508051906020019080838360005b83811015611841578181015183820152602001611829565b50505050905090810190601f16801561186e5780820380516001836020036101000a031916815260200191505b509250505060405180910390fd5b505050900390565b6001600160a01b0382166118df576040805162461bcd60e51b815260206004820152601f60248201527f45524332303a206d696e7420746f20746865207a65726f206164647265737300604482015290519081900360640190fd5b6118eb60008383611bef565b6002546118fe908263ffffffff61154316565b6002556001600160a01b03821660009081526020819052604090205461192a908263ffffffff61154316565b6001600160a01b0383166000818152602081815260408083209490945583518581529351929391927fddf252ad1be2c89b69c2b068fc378daa952ba7f163c4a11628f55a4df523b3ef9281900390910190a35050565b6001600160a01b0382166119c55760405162461bcd60e51b8152600401808060200182810382526021815260200180611e686021913960400191505060405180910390fd5b6119d182600083611bef565b611a1481604051806060016040528060228152602001611c3c602291396001600160a01b038516600090815260208190526040902054919063ffffffff6117ed16565b6001600160a01b038316600090815260208190526040902055600254611a40908263ffffffff61170e16565b6002556040805182815290516000916001600160a01b038516917fddf252ad1be2c89b69c2b068fc378daa952ba7f163c4a11628f55a4df523b3ef9181900360200190a35050565b6001600160a01b038316611acd5760405162461bcd60e51b8152600401808060200182810382526025815260200180611ed86025913960400191505060405180910390fd5b6001600160a01b038216611b125760405162461bcd60e51b8152600401808060200182810382526023815260200180611c196023913960400191505060405180910390fd5b611b1d838383611bef565b611b6081604051806060016040528060268152602001611d10602691396001600160a01b038616600090815260208190526040902054919063ffffffff6117ed16565b6001600160a01b038085166000908152602081905260408082209390935590841681522054611b95908263ffffffff61154316565b6001600160a01b038084166000818152602081815260409182902094909455805185815290519193928716927fddf252ad1be2c89b69c2b068fc378daa952ba7f163c4a11628f55a4df523b3ef92918290030190a3505050565b50505056fe4c6f616e546f6b656e3a204c6f616e2063616e6e6f7420626520636c6f7365642079657445524332303a207472616e7366657220746f20746865207a65726f206164647265737345524332303a206275726e20616d6f756e7420657863656564732062616c616e63654c6f616e546f6b656e3a2043616e6e6f74207265636c61696d207768656e204c6f616e546f6b656e732061726520696e2063697263756c6174696f6e45524332303a20617070726f766520746f20746865207a65726f20616464726573734c6f616e546f6b656e3a2043616c6c6572206973206e6f742074686520626f72726f7765724c6f616e546f6b656e3a20546869732063616e20626520706572666f726d6564206f6e6c79206279206c656e64657245524332303a207472616e7366657220616d6f756e7420657863656564732062616c616e63654c6f616e546f6b656e3a2043757272656e74207374617475732073686f756c6420626520536574746c6564206f722044656661756c7465644c6f616e546f6b656e3a2043757272656e74207374617475732073686f756c642062652046756e646564206f722057697468647261776e4c6f616e546f6b656e3a2043616e6e6f74207265636c61696d207768656e2062616c616e636520304c6f616e546f6b656e3a204f6e6c79206166746572206c6f616e20686173206265656e2077697468647261776e536166654d6174683a206d756c7469706c69636174696f6e206f766572666c6f7745524332303a207472616e7366657220616d6f756e74206578636565647320616c6c6f77616e63654c6f616e546f6b656e3a2043616e6e6f74207265706179206f76657220746865206465627445524332303a206275726e2066726f6d20746865207a65726f20616464726573734c6f616e546f6b656e3a20546869732063616e20626520706572666f726d6564206f6e6c79206279206c656e646572206f72206163636f756e747320616c6c6f77656420746f207472616e7366657245524332303a207472616e736665722066726f6d20746865207a65726f20616464726573734c6f616e546f6b656e3a2043757272656e74207374617475732073686f756c642062652046756e6465644c6f616e546f6b656e3a2043757272656e74207374617475732073686f756c64206265204177616974696e6745524332303a20617070726f76652066726f6d20746865207a65726f206164647265737345524332303a2064656372656173656420616c6c6f77616e63652062656c6f77207a65726fa26469706673582212201123c08c40b96dcdc93cc39d6c238f3c401031efe42af3e77095015e002db43164736f6c634300060a0033536166654d6174683a206d756c7469706c69636174696f6e206f766572666c6f77",
  "immutableReferences": {},
  "source": "// SPDX-License-Identifier: Apache-2.0\npragma solidity 0.6.10;\n\nimport {ERC20} from \"@openzeppelin/contracts/token/ERC20/ERC20.sol\";\nimport {IERC20} from \"@openzeppelin/contracts/token/ERC20/IERC20.sol\";\nimport {SafeMath} from \"@openzeppelin/contracts/math/SafeMath.sol\";\n\nimport {ILoanToken} from \"../interfaces/ILoanToken.sol\";\n\n/**\n * @title LoanToken\n * @dev A token which represents share of a debt obligation\n *\n * Each LoanToken has:\n * - borrower address\n * - borrow amount\n * - loan term\n * - loan APY\n *\n * Loan progresses through the following states:\n * Awaiting:    Waiting for funding to meet capital requirements\n * Funded:      Capital requirements met, borrower can withdraw\n * Withdrawn:   Borrower withdraws money, loan waiting to be repaid\n * Settled:     Loan has been paid back in full with interest\n * Defaulted:   Loan has not been paid back in full\n *\n * - LoanTokens are non-transferable except for whitelisted addresses\n * - This version of LoanToken only supports a single funder\n */\ncontract LoanToken is ILoanToken, ERC20 {\n    using SafeMath for uint256;\n\n    address public override borrower;\n    uint256 public override amount;\n    uint256 public override term;\n    uint256 public override apy;\n\n    uint256 public override start;\n    address public override lender;\n    uint256 public override debt;\n\n    uint256 public redeemed;\n\n    // whitelist for transfers\n    mapping(address => bool) public canTransfer;\n\n    Status public override status;\n\n    IERC20 public override currencyToken;\n\n    /**\n     * @dev Emitted when the loan is funded\n     * @param lender Address which funded the loan\n     */\n    event Funded(address lender);\n\n    /**\n     * @dev Emitted when transfer whitelist is updated\n     * @param account Account to whitelist for transfers\n     * @param status New whitelist status\n     */\n    event TransferAllowanceChanged(address account, bool status);\n\n    /**\n     * @dev Emitted when borrower withdraws funds\n     * @param beneficiary Account which will receive funds\n     */\n    event Withdrawn(address beneficiary);\n\n    /**\n     * @dev Emitted when term is over\n     * @param status Final loan status\n     * @param returnedAmount Amount that was returned before expiry\n     */\n    event Closed(Status status, uint256 returnedAmount);\n\n    /**\n     * @dev Emitted when a LoanToken is redeemed for underlying currencyTokens\n     * @param receiver Receiver of currencyTokens\n     * @param burnedAmount Amount of LoanTokens burned\n     * @param redeemedAmount Amount of currencyToken received\n     */\n    event Redeemed(address receiver, uint256 burnedAmount, uint256 redeemedAmount);\n\n    /**\n     * @dev Emitted when a LoanToken is repaid by the borrower in underlying currencyTokens\n     * @param repayer Sender of currencyTokens\n     * @param repaidAmount Amount of currencyToken repaid\n     */\n    event Repaid(address repayer, uint256 repaidAmount);\n\n    /**\n     * @dev Emitted when borrower reclaims remaining currencyTokens\n     * @param borrower Receiver of remaining currencyTokens\n     * @param reclaimedAmount Amount of currencyTokens repaid\n     */\n    event Reclaimed(address borrower, uint256 reclaimedAmount);\n\n    // TODO: add intervals and early repay\n\n    /**\n     * @dev Create a Loan\n     * @param _currencyToken Token to lend\n     * @param _borrower Borrower address\n     * @param _amount Borrow amount of currency tokens\n     * @param _term Loan length\n     * @param _apy Loan APY\n     */\n    constructor(\n        IERC20 _currencyToken,\n        address _borrower,\n        address _lender,\n        uint256 _amount,\n        uint256 _term,\n        uint256 _apy\n    ) public ERC20(\"Loan Token\", \"LOAN\") {\n        require(_lender != address(0), \"LoanToken: Lender is not set\");\n\n        currencyToken = _currencyToken;\n        borrower = _borrower;\n        amount = _amount;\n        term = _term;\n        apy = _apy;\n        lender = _lender;\n        debt = interest(amount);\n    }\n\n    /**\n     * @dev Only borrower can withdraw & repay loan\n     */\n    modifier onlyBorrower() {\n        require(msg.sender == borrower, \"LoanToken: Caller is not the borrower\");\n        _;\n    }\n\n    /**\n     * @dev Only when loan is Settled\n     */\n    modifier onlyClosed() {\n        require(status >= Status.Settled, \"LoanToken: Current status should be Settled or Defaulted\");\n        _;\n    }\n\n    /**\n     * @dev Only when loan is Funded\n     */\n    modifier onlyOngoing() {\n        require(status == Status.Funded || status == Status.Withdrawn, \"LoanToken: Current status should be Funded or Withdrawn\");\n        _;\n    }\n\n    /**\n     * @dev Only when loan is Funded\n     */\n    modifier onlyFunded() {\n        require(status == Status.Funded, \"LoanToken: Current status should be Funded\");\n        _;\n    }\n\n    /**\n     * @dev Only when loan is Withdrawn\n     */\n    modifier onlyAfterWithdraw() {\n        require(status >= Status.Withdrawn, \"LoanToken: Only after loan has been withdrawn\");\n        _;\n    }\n\n    /**\n     * @dev Only when loan is Awaiting\n     */\n    modifier onlyAwaiting() {\n        require(status == Status.Awaiting, \"LoanToken: Current status should be Awaiting\");\n        _;\n    }\n\n    /**\n     * @dev Only when loan is Defaulted\n     */\n    modifier onlyDefaulted() {\n        require(status == Status.Defaulted, \"LoanToken: Current status should be Defaulted\");\n        _;\n    }\n\n    /**\n     * @dev Only whitelisted accounts or lender\n     */\n    modifier onlyWhoCanTransfer(address sender) {\n        require(\n            sender == lender || canTransfer[sender],\n            \"LoanToken: This can be performed only by lender or accounts allowed to transfer\"\n        );\n        _;\n    }\n\n    /**\n     * @dev Only lender can perform certain actions\n     */\n    modifier onlyLender() {\n        require(msg.sender == lender, \"LoanToken: This can be performed only by lender\");\n        _;\n    }\n\n    /**\n     * @dev Return true if this contract is a LoanToken\n     * @return True if this contract is a LoanToken\n     */\n    function isLoanToken() external override pure returns (bool) {\n        return true;\n    }\n\n    /**\n     * @dev Get loan parameters\n     * @return amount, term, apy\n     */\n    function getParameters()\n        external\n        override\n        view\n        returns (\n            uint256,\n            uint256,\n            uint256\n        )\n    {\n        return (amount, apy, term);\n    }\n\n    /**\n     * @dev Get coupon value of this loan token in currencyToken\n     * This assumes the loan will be paid back on time, with interest\n     * @param _balance number of LoanTokens to get value for\n     * @return coupon value of _balance LoanTokens in currencyTokens\n     */\n    function value(uint256 _balance) external override view returns (uint256) {\n        if (_balance == 0) {\n            return 0;\n        }\n\n        uint256 passed = block.timestamp.sub(start);\n        if (passed > term) {\n            passed = term;\n        }\n\n        // assume year is 365 days\n        uint256 interest = amount.mul(apy).mul(passed).div(365 days).div(10000);\n\n        return amount.add(interest).mul(_balance).div(debt);\n    }\n\n    /**\n     * @dev Fund a loan\n     * Set status, start time, lender\n     */\n    function fund() external override onlyAwaiting onlyLender {\n        status = Status.Funded;\n        start = block.timestamp;\n        _mint(msg.sender, debt);\n        require(currencyToken.transferFrom(msg.sender, address(this), amount));\n\n        emit Funded(msg.sender);\n    }\n\n    /**\n     * @dev Whitelist accounts to transfer\n     * @param account address to allow transfers for\n     * @param _status true allows transfers, false disables transfers\n     */\n    function allowTransfer(address account, bool _status) external override onlyLender {\n        canTransfer[account] = _status;\n        emit TransferAllowanceChanged(account, _status);\n    }\n\n    /**\n     * @dev Borrower calls this function to withdraw funds\n     * Sets the status of the loan to Withdrawn\n     * @param _beneficiary address to send funds to\n     */\n    function withdraw(address _beneficiary) external override onlyBorrower onlyFunded {\n        status = Status.Withdrawn;\n        require(currencyToken.transfer(_beneficiary, amount));\n\n        emit Withdrawn(_beneficiary);\n    }\n\n    /**\n     * @dev Close the loan and check if it has been repaid\n     */\n    function close() external override onlyOngoing {\n        require(start.add(term) <= block.timestamp, \"LoanToken: Loan cannot be closed yet\");\n        if (_balance() >= debt) {\n            status = Status.Settled;\n        } else {\n            status = Status.Defaulted;\n        }\n\n        emit Closed(status, _balance());\n    }\n\n    /**\n     * @dev Redeem LoanToken balances for underlying currencyToken\n     * Can only call this function after the loan is Closed\n     * @param _amount amount to redeem\n     */\n    function redeem(uint256 _amount) external override onlyClosed {\n        uint256 amountToReturn = _amount.mul(_balance()).div(totalSupply());\n        redeemed = redeemed.add(amountToReturn);\n        _burn(msg.sender, _amount);\n        require(currencyToken.transfer(msg.sender, amountToReturn));\n\n        emit Redeemed(msg.sender, _amount, amountToReturn);\n    }\n\n    /**\n     * @dev Function for borrower to repay the loan\n     * Borrower can repay at any time\n     * @param _sender account sending currencyToken to repay\n     * @param _amount amount of currencyToken to repay\n     */\n    function repay(address _sender, uint256 _amount) external override onlyAfterWithdraw {\n        require(_amount <= debt.sub(_balance()), \"LoanToken: Cannot repay over the debt\");\n        require(currencyToken.transferFrom(_sender, address(this), _amount));\n        emit Repaid(_sender, _amount);\n    }\n\n    /**\n     * @dev Function for borrower to reclaim stuck currencyToken\n     * Can only call this function after the loan is Closed\n     * and all of LoanToken holders have been burnt\n     */\n    function reclaim() external override onlyClosed onlyBorrower {\n        require(totalSupply() == 0, \"LoanToken: Cannot reclaim when LoanTokens are in circulation\");\n        uint256 balanceRemaining = _balance();\n        require(balanceRemaining > 0, \"LoanToken: Cannot reclaim when balance 0\");\n\n        require(currencyToken.transfer(borrower, balanceRemaining));\n        emit Reclaimed(borrower, balanceRemaining);\n    }\n\n    /**\n     * @dev Check how much was already repaid\n     * Funds stored on the contract's address plus funds already redeemed by lenders\n     * @return Uint256 representing what value was already repaid\n     */\n    function repaid() external override view onlyAfterWithdraw returns (uint256) {\n        return _balance().add(redeemed);\n    }\n\n    /**\n     * @dev Public currency token balance function\n     * @return currencyToken balance of this contract\n     */\n    function balance() external override view returns (uint256) {\n        return _balance();\n    }\n\n    /**\n     * @dev Get currency token balance for this contract\n     * @return currencyToken balance of this contract\n     */\n    function _balance() internal view returns (uint256) {\n        return currencyToken.balanceOf(address(this));\n    }\n\n    /**\n     * @dev Calculate interest that will be paid by this loan for an amount (returned funds included)\n     * amount + ((amount * apy * term) / (365 days / precision))\n     * @param _amount amount\n     * @return uint256 Amount of interest paid for _amount\n     */\n    function interest(uint256 _amount) internal view returns (uint256) {\n        return _amount.add(_amount.mul(apy).mul(term).div(365 days).div(10000));\n    }\n\n    /**\n     * @dev get profit for this loan\n     * @return profit for this loan\n     */\n    function profit() external override view returns (uint256) {\n        return debt.sub(amount);\n    }\n\n    /**\n     * @dev Override ERC20 _transfer so only whitelisted addresses can transfer\n     * @param sender sender of the transaction\n     * @param recipient recipient of the transaction\n     * @param _amount amount to send\n     */\n    function _transfer(\n        address sender,\n        address recipient,\n        uint256 _amount\n    ) internal override onlyWhoCanTransfer(sender) {\n        return super._transfer(sender, recipient, _amount);\n    }\n}",
  "sourcePath": "/home/bob/loaner-celo/smart-contracts/contracts/lending/LoanToken.sol",
  "compiler": {
    "name": "solc",
    "version": "0.6.10+commit.00c0fcaf.Emscripten.clang"
  },
  "schemaVersion": "3.3.3",
  "updatedAt": "2021-03-19T23:10:57.748Z",
  "devdoc": {
    "details": "A token which represents share of a debt obligation Each LoanToken has: - borrower address - borrow amount - loan term - loan APY Loan progresses through the following states: Awaiting:    Waiting for funding to meet capital requirements Funded:      Capital requirements met, borrower can withdraw Withdrawn:   Borrower withdraws money, loan waiting to be repaid Settled:     Loan has been paid back in full with interest Defaulted:   Loan has not been paid back in full - LoanTokens are non-transferable except for whitelisted addresses - This version of LoanToken only supports a single funder",
    "methods": {
      "allowTransfer(address,bool)": {
        "details": "Whitelist accounts to transfer",
        "params": {
          "_status": "true allows transfers, false disables transfers",
          "account": "address to allow transfers for"
        }
      },
      "allowance(address,address)": {
        "details": "See {IERC20-allowance}."
      },
      "approve(address,uint256)": {
        "details": "See {IERC20-approve}. Requirements: - `spender` cannot be the zero address."
      },
      "balance()": {
        "details": "Public currency token balance function",
        "returns": {
          "_0": "currencyToken balance of this contract"
        }
      },
      "balanceOf(address)": {
        "details": "See {IERC20-balanceOf}."
      },
      "close()": {
        "details": "Close the loan and check if it has been repaid"
      },
      "constructor": {
        "details": "Create a Loan",
        "params": {
          "_amount": "Borrow amount of currency tokens",
          "_apy": "Loan APY",
          "_borrower": "Borrower address",
          "_currencyToken": "Token to lend",
          "_term": "Loan length"
        }
      },
      "decimals()": {
        "details": "Returns the number of decimals used to get its user representation. For example, if `decimals` equals `2`, a balance of `505` tokens should be displayed to a user as `5,05` (`505 / 10 ** 2`). Tokens usually opt for a value of 18, imitating the relationship between Ether and Wei. This is the value {ERC20} uses, unless {_setupDecimals} is called. NOTE: This information is only used for _display_ purposes: it in no way affects any of the arithmetic of the contract, including {IERC20-balanceOf} and {IERC20-transfer}."
      },
      "decreaseAllowance(address,uint256)": {
        "details": "Atomically decreases the allowance granted to `spender` by the caller. This is an alternative to {approve} that can be used as a mitigation for problems described in {IERC20-approve}. Emits an {Approval} event indicating the updated allowance. Requirements: - `spender` cannot be the zero address. - `spender` must have allowance for the caller of at least `subtractedValue`."
      },
      "fund()": {
        "details": "Fund a loan Set status, start time, lender"
      },
      "getParameters()": {
        "details": "Get loan parameters",
        "returns": {
          "_0": "amount, term, apy"
        }
      },
      "increaseAllowance(address,uint256)": {
        "details": "Atomically increases the allowance granted to `spender` by the caller. This is an alternative to {approve} that can be used as a mitigation for problems described in {IERC20-approve}. Emits an {Approval} event indicating the updated allowance. Requirements: - `spender` cannot be the zero address."
      },
      "isLoanToken()": {
        "details": "Return true if this contract is a LoanToken",
        "returns": {
          "_0": "True if this contract is a LoanToken"
        }
      },
      "name()": {
        "details": "Returns the name of the token."
      },
      "profit()": {
        "details": "get profit for this loan",
        "returns": {
          "_0": "profit for this loan"
        }
      },
      "reclaim()": {
        "details": "Function for borrower to reclaim stuck currencyToken Can only call this function after the loan is Closed and all of LoanToken holders have been burnt"
      },
      "redeem(uint256)": {
        "details": "Redeem LoanToken balances for underlying currencyToken Can only call this function after the loan is Closed",
        "params": {
          "_amount": "amount to redeem"
        }
      },
      "repaid()": {
        "details": "Check how much was already repaid Funds stored on the contract's address plus funds already redeemed by lenders",
        "returns": {
          "_0": "Uint256 representing what value was already repaid"
        }
      },
      "repay(address,uint256)": {
        "details": "Function for borrower to repay the loan Borrower can repay at any time",
        "params": {
          "_amount": "amount of currencyToken to repay",
          "_sender": "account sending currencyToken to repay"
        }
      },
      "symbol()": {
        "details": "Returns the symbol of the token, usually a shorter version of the name."
      },
      "totalSupply()": {
        "details": "See {IERC20-totalSupply}."
      },
      "transfer(address,uint256)": {
        "details": "See {IERC20-transfer}. Requirements: - `recipient` cannot be the zero address. - the caller must have a balance of at least `amount`."
      },
      "transferFrom(address,address,uint256)": {
        "details": "See {IERC20-transferFrom}. Emits an {Approval} event indicating the updated allowance. This is not required by the EIP. See the note at the beginning of {ERC20}. Requirements: - `sender` and `recipient` cannot be the zero address. - `sender` must have a balance of at least `amount`. - the caller must have allowance for ``sender``'s tokens of at least `amount`."
      },
      "value(uint256)": {
        "details": "Get coupon value of this loan token in currencyToken This assumes the loan will be paid back on time, with interest",
        "params": {
          "_balance": "number of LoanTokens to get value for"
        },
        "returns": {
          "_0": "coupon value of _balance LoanTokens in currencyTokens"
        }
      },
      "withdraw(address)": {
        "details": "Borrower calls this function to withdraw funds Sets the status of the loan to Withdrawn",
        "params": {
          "_beneficiary": "address to send funds to"
        }
      }
    },
    "title": "LoanToken"
  },
  "userdoc": {
    "methods": {}
  }
}