{
  "contractName": "Loaner",
  "abi": [
    {
      "inputs": [
        {
          "internalType": "address",
          "name": "_cUSDAddress",
          "type": "address"
        },
        {
          "internalType": "address",
          "name": "_moolaAdressProvider",
          "type": "address"
        },
        {
          "internalType": "address[]",
          "name": "_signatures",
          "type": "address[]"
        }
      ],
      "stateMutability": "nonpayable",
      "type": "constructor"
    },
    {
      "anonymous": false,
      "inputs": [
        {
          "indexed": true,
          "internalType": "address",
          "name": "_communityAddress",
          "type": "address"
        },
        {
          "indexed": true,
          "internalType": "address",
          "name": "_firstManager",
          "type": "address"
        }
      ],
      "name": "CommunityAdded",
      "type": "event"
    },
    {
      "anonymous": false,
      "inputs": [
        {
          "indexed": true,
          "internalType": "address",
          "name": "_newCommunityFactory",
          "type": "address"
        }
      ],
      "name": "CommunityFactoryChanged",
      "type": "event"
    },
    {
      "anonymous": false,
      "inputs": [
        {
          "indexed": true,
          "internalType": "address",
          "name": "_firstManager",
          "type": "address"
        },
        {
          "indexed": true,
          "internalType": "address",
          "name": "_communityAddress",
          "type": "address"
        },
        {
          "indexed": true,
          "internalType": "address",
          "name": "_previousCommunityAddress",
          "type": "address"
        }
      ],
      "name": "CommunityMigrated",
      "type": "event"
    },
    {
      "anonymous": false,
      "inputs": [
        {
          "indexed": true,
          "internalType": "address",
          "name": "_communityAddress",
          "type": "address"
        }
      ],
      "name": "CommunityRemoved",
      "type": "event"
    },
    {
      "anonymous": false,
      "inputs": [
        {
          "indexed": true,
          "internalType": "address",
          "name": "_newLoanFactory",
          "type": "address"
        }
      ],
      "name": "LoanFactoryChanged",
      "type": "event"
    },
    {
      "anonymous": false,
      "inputs": [
        {
          "indexed": true,
          "internalType": "address",
          "name": "_pool",
          "type": "address"
        },
        {
          "indexed": true,
          "internalType": "address",
          "name": "_communityAddress",
          "type": "address"
        },
        {
          "indexed": true,
          "internalType": "address",
          "name": "_fundsManager",
          "type": "address"
        }
      ],
      "name": "PoolAdded",
      "type": "event"
    },
    {
      "anonymous": false,
      "inputs": [
        {
          "indexed": true,
          "internalType": "address",
          "name": "_newPoolFactory",
          "type": "address"
        }
      ],
      "name": "PoolFactoryChanged",
      "type": "event"
    },
    {
      "anonymous": false,
      "inputs": [
        {
          "indexed": true,
          "internalType": "bytes32",
          "name": "role",
          "type": "bytes32"
        },
        {
          "indexed": true,
          "internalType": "bytes32",
          "name": "previousAdminRole",
          "type": "bytes32"
        },
        {
          "indexed": true,
          "internalType": "bytes32",
          "name": "newAdminRole",
          "type": "bytes32"
        }
      ],
      "name": "RoleAdminChanged",
      "type": "event"
    },
    {
      "anonymous": false,
      "inputs": [
        {
          "indexed": true,
          "internalType": "bytes32",
          "name": "role",
          "type": "bytes32"
        },
        {
          "indexed": true,
          "internalType": "address",
          "name": "account",
          "type": "address"
        },
        {
          "indexed": true,
          "internalType": "address",
          "name": "sender",
          "type": "address"
        }
      ],
      "name": "RoleGranted",
      "type": "event"
    },
    {
      "anonymous": false,
      "inputs": [
        {
          "indexed": true,
          "internalType": "bytes32",
          "name": "role",
          "type": "bytes32"
        },
        {
          "indexed": true,
          "internalType": "address",
          "name": "account",
          "type": "address"
        },
        {
          "indexed": true,
          "internalType": "address",
          "name": "sender",
          "type": "address"
        }
      ],
      "name": "RoleRevoked",
      "type": "event"
    },
    {
      "inputs": [],
      "name": "ADMIN_ROLE",
      "outputs": [
        {
          "internalType": "bytes32",
          "name": "",
          "type": "bytes32"
        }
      ],
      "stateMutability": "view",
      "type": "function",
      "constant": true
    },
    {
      "inputs": [],
      "name": "DEFAULT_ADMIN_ROLE",
      "outputs": [
        {
          "internalType": "bytes32",
          "name": "",
          "type": "bytes32"
        }
      ],
      "stateMutability": "view",
      "type": "function",
      "constant": true
    },
    {
      "inputs": [],
      "name": "cUSDAddress",
      "outputs": [
        {
          "internalType": "address",
          "name": "",
          "type": "address"
        }
      ],
      "stateMutability": "view",
      "type": "function",
      "constant": true
    },
    {
      "inputs": [
        {
          "internalType": "address",
          "name": "",
          "type": "address"
        }
      ],
      "name": "communities",
      "outputs": [
        {
          "internalType": "bool",
          "name": "",
          "type": "bool"
        }
      ],
      "stateMutability": "view",
      "type": "function",
      "constant": true
    },
    {
      "inputs": [],
      "name": "communityFactory",
      "outputs": [
        {
          "internalType": "address",
          "name": "",
          "type": "address"
        }
      ],
      "stateMutability": "view",
      "type": "function",
      "constant": true
    },
    {
      "inputs": [
        {
          "internalType": "bytes32",
          "name": "role",
          "type": "bytes32"
        }
      ],
      "name": "getRoleAdmin",
      "outputs": [
        {
          "internalType": "bytes32",
          "name": "",
          "type": "bytes32"
        }
      ],
      "stateMutability": "view",
      "type": "function",
      "constant": true
    },
    {
      "inputs": [
        {
          "internalType": "bytes32",
          "name": "role",
          "type": "bytes32"
        },
        {
          "internalType": "uint256",
          "name": "index",
          "type": "uint256"
        }
      ],
      "name": "getRoleMember",
      "outputs": [
        {
          "internalType": "address",
          "name": "",
          "type": "address"
        }
      ],
      "stateMutability": "view",
      "type": "function",
      "constant": true
    },
    {
      "inputs": [
        {
          "internalType": "bytes32",
          "name": "role",
          "type": "bytes32"
        }
      ],
      "name": "getRoleMemberCount",
      "outputs": [
        {
          "internalType": "uint256",
          "name": "",
          "type": "uint256"
        }
      ],
      "stateMutability": "view",
      "type": "function",
      "constant": true
    },
    {
      "inputs": [
        {
          "internalType": "bytes32",
          "name": "role",
          "type": "bytes32"
        },
        {
          "internalType": "address",
          "name": "account",
          "type": "address"
        }
      ],
      "name": "grantRole",
      "outputs": [],
      "stateMutability": "nonpayable",
      "type": "function"
    },
    {
      "inputs": [
        {
          "internalType": "bytes32",
          "name": "role",
          "type": "bytes32"
        },
        {
          "internalType": "address",
          "name": "account",
          "type": "address"
        }
      ],
      "name": "hasRole",
      "outputs": [
        {
          "internalType": "bool",
          "name": "",
          "type": "bool"
        }
      ],
      "stateMutability": "view",
      "type": "function",
      "constant": true
    },
    {
      "inputs": [],
      "name": "loanFactory",
      "outputs": [
        {
          "internalType": "address",
          "name": "",
          "type": "address"
        }
      ],
      "stateMutability": "view",
      "type": "function",
      "constant": true
    },
    {
      "inputs": [],
      "name": "loanerPoolFactory",
      "outputs": [
        {
          "internalType": "address",
          "name": "",
          "type": "address"
        }
      ],
      "stateMutability": "view",
      "type": "function",
      "constant": true
    },
    {
      "inputs": [],
      "name": "moolaAddressProvider",
      "outputs": [
        {
          "internalType": "address",
          "name": "",
          "type": "address"
        }
      ],
      "stateMutability": "view",
      "type": "function",
      "constant": true
    },
    {
      "inputs": [
        {
          "internalType": "bytes32",
          "name": "",
          "type": "bytes32"
        },
        {
          "internalType": "uint256",
          "name": "",
          "type": "uint256"
        }
      ],
      "name": "pendingValidations",
      "outputs": [
        {
          "internalType": "address",
          "name": "",
          "type": "address"
        }
      ],
      "stateMutability": "view",
      "type": "function",
      "constant": true
    },
    {
      "inputs": [
        {
          "internalType": "address",
          "name": "",
          "type": "address"
        }
      ],
      "name": "pools",
      "outputs": [
        {
          "internalType": "bool",
          "name": "",
          "type": "bool"
        }
      ],
      "stateMutability": "view",
      "type": "function",
      "constant": true
    },
    {
      "inputs": [
        {
          "internalType": "bytes32",
          "name": "role",
          "type": "bytes32"
        },
        {
          "internalType": "address",
          "name": "account",
          "type": "address"
        }
      ],
      "name": "renounceRole",
      "outputs": [],
      "stateMutability": "nonpayable",
      "type": "function"
    },
    {
      "inputs": [
        {
          "internalType": "bytes32",
          "name": "role",
          "type": "bytes32"
        },
        {
          "internalType": "address",
          "name": "account",
          "type": "address"
        }
      ],
      "name": "revokeRole",
      "outputs": [],
      "stateMutability": "nonpayable",
      "type": "function"
    },
    {
      "inputs": [],
      "name": "signaturesThreshold",
      "outputs": [
        {
          "internalType": "uint256",
          "name": "",
          "type": "uint256"
        }
      ],
      "stateMutability": "view",
      "type": "function",
      "constant": true
    },
    {
      "inputs": [
        {
          "internalType": "address",
          "name": "_firstManager",
          "type": "address"
        }
      ],
      "name": "addCommunity",
      "outputs": [],
      "stateMutability": "nonpayable",
      "type": "function"
    },
    {
      "inputs": [
        {
          "internalType": "address",
          "name": "_firstManager",
          "type": "address"
        },
        {
          "internalType": "address",
          "name": "_previousCommunityAddress",
          "type": "address"
        },
        {
          "internalType": "address",
          "name": "_newCommunityFactory",
          "type": "address"
        }
      ],
      "name": "migrateCommunity",
      "outputs": [],
      "stateMutability": "nonpayable",
      "type": "function"
    },
    {
      "inputs": [
        {
          "internalType": "address",
          "name": "_community",
          "type": "address"
        }
      ],
      "name": "removeCommunity",
      "outputs": [],
      "stateMutability": "nonpayable",
      "type": "function"
    },
    {
      "inputs": [
        {
          "internalType": "address",
          "name": "_community",
          "type": "address"
        },
        {
          "internalType": "address",
          "name": "_fundsManager",
          "type": "address"
        }
      ],
      "name": "addPool",
      "outputs": [],
      "stateMutability": "nonpayable",
      "type": "function"
    },
    {
      "inputs": [
        {
          "internalType": "address",
          "name": "_pool",
          "type": "address"
        },
        {
          "internalType": "address",
          "name": "_newCommunity",
          "type": "address"
        }
      ],
      "name": "setPoolCommunity",
      "outputs": [],
      "stateMutability": "nonpayable",
      "type": "function"
    },
    {
      "inputs": [
        {
          "internalType": "address",
          "name": "_pool",
          "type": "address"
        },
        {
          "internalType": "address",
          "name": "_newFundsManager",
          "type": "address"
        }
      ],
      "name": "setPoolFundsManager",
      "outputs": [],
      "stateMutability": "nonpayable",
      "type": "function"
    },
    {
      "inputs": [
        {
          "internalType": "address",
          "name": "_loanerPoolFactory",
          "type": "address"
        }
      ],
      "name": "setLoanerPoolFactory",
      "outputs": [],
      "stateMutability": "nonpayable",
      "type": "function"
    },
    {
      "inputs": [
        {
          "internalType": "address",
          "name": "_loanerPoolFactory",
          "type": "address"
        }
      ],
      "name": "initPoolFactory",
      "outputs": [],
      "stateMutability": "nonpayable",
      "type": "function"
    },
    {
      "inputs": [
        {
          "internalType": "address",
          "name": "_communityFactory",
          "type": "address"
        }
      ],
      "name": "setCommunityFactory",
      "outputs": [],
      "stateMutability": "nonpayable",
      "type": "function"
    },
    {
      "inputs": [
        {
          "internalType": "address",
          "name": "_communityFactory",
          "type": "address"
        }
      ],
      "name": "initCommunityFactory",
      "outputs": [],
      "stateMutability": "nonpayable",
      "type": "function"
    },
    {
      "inputs": [
        {
          "internalType": "address",
          "name": "_loanFactory",
          "type": "address"
        }
      ],
      "name": "setLoanFactory",
      "outputs": [],
      "stateMutability": "nonpayable",
      "type": "function"
    },
    {
      "inputs": [
        {
          "internalType": "address",
          "name": "_loanFactory",
          "type": "address"
        }
      ],
      "name": "initLoanFactory",
      "outputs": [],
      "stateMutability": "nonpayable",
      "type": "function"
    }
  ],
  "bytecode": "0x60806040523480156200001157600080fd5b506040516200329538038062003295833981810160405260608110156200003757600080fd5b815160208301516040808501805191519395929483019291846401000000008211156200006357600080fd5b9083019060208201858111156200007957600080fd5b82518660208202830111640100000000821117156200009757600080fd5b82525081516020918201928201910280838360005b83811015620000c6578181015183820152602001620000ac565b505050509050016040525050506000815111620001155760405162461bcd60e51b8152600401808060200182810382526021815260200180620032746021913960400191505060405180910390fd5b6200015e60405180806941444d494e5f524f4c4560b01b815250600a0190506040518091039020826000815181106200014a57fe5b60200260200101516200024d60201b60201c565b604080516941444d494e5f524f4c4560b01b808252825191829003600a90810183209183529251918290039092019020620001a391906001600160e01b036200026616565b600480546001600160a01b038086166001600160a01b0319928316179092556005805492851692909116919091179055805160021015620001ed57805160001901600955620001f3565b80516009555b60015b81518160ff16101562000243576200023a60405180806941444d494e5f524f4c4560b01b815250600a0190506040518091039020838360ff16815181106200014a57fe5b600101620001f6565b50505050620003d7565b6200026282826001600160e01b03620002b816565b5050565b600082815260208190526040808220600201549051839285917fbd79b86ffe0ab8e8776151514217cd7cacd52c909f66475c3af44e129f0b00ff9190a460009182526020829052604090912060020155565b600082815260208181526040909120620002dd918390620029e16200033a821b17901c565b156200026257620002f66001600160e01b036200036316565b6001600160a01b0316816001600160a01b0316837f2f8788117e7eff1d82e926ec794901d17c78024a50270940304540a733656f0d60405160405180910390a45050565b60006200035a836001600160a01b0384166001600160e01b036200036716565b90505b92915050565b3390565b60006200037e83836001600160e01b03620003bf16565b620003b6575081546001818101845560008481526020808220909301849055845484825282860190935260409020919091556200035d565b5060006200035d565b60009081526001919091016020526040902054151590565b612e8d80620003e76000396000f3fe608060405234801561001057600080fd5b50600436106101da5760003560e01c806390f8e17d11610104578063b37ed8cd116100a2578063d547741f11610071578063d547741f14610549578063eb511dd414610575578063fac8a610146105a3578063fbbaa2f7146105ab576101da565b8063b37ed8cd146104d8578063ba4d9fa1146104e0578063ca15c87314610506578063cc579ec414610523576101da565b8063976025b6116100de578063976025b61461044e578063a217fddf1461047c578063a4063dbc14610484578063ae219815146104aa576101da565b806390f8e17d146103d657806391d14854146103fc5780639263454014610428576101da565b80636e6930d21161017c57806386a319981161014b57806386a319981461034d5780638774be9b1461037357806389167ca4146103ab5780639010d07c146103b3576101da565b80636e6930d2146102c257806375b238fc146102e85780637f2813d2146102f05780638226dab01461032a576101da565b806339ce73c7116101b857806339ce73c7146102685780633ff574b6146102705780635ec25f10146102945780636232db751461029c576101da565b8063248a9ca3146101df5780632f2ff15d1461020e57806336568abe1461023c575b600080fd5b6101fc600480360360208110156101f557600080fd5b50356105d1565b60408051918252519081900360200190f35b61023a6004803603604081101561022457600080fd5b50803590602001356001600160a01b03166105e6565b005b61023a6004803603604081101561025257600080fd5b50803590602001356001600160a01b0316610652565b6101fc6106b3565b6102786106b9565b604080516001600160a01b039092168252519081900360200190f35b6102786106c8565b61023a600480360360208110156102b257600080fd5b50356001600160a01b03166106d7565b61023a600480360360208110156102d857600080fd5b50356001600160a01b0316610a6e565b6101fc610df5565b6103166004803603602081101561030657600080fd5b50356001600160a01b0316610e17565b604080519115158252519081900360200190f35b6102786004803603604081101561034057600080fd5b5080359060200135610e2c565b61023a6004803603602081101561036357600080fd5b50356001600160a01b0316610e61565b61023a6004803603606081101561038957600080fd5b506001600160a01b0381358116916020810135821691604090910135166111df565b610278611665565b610278600480360360408110156103c957600080fd5b5080359060200135611674565b61023a600480360360208110156103ec57600080fd5b50356001600160a01b031661169b565b6103166004803603604081101561041257600080fd5b50803590602001356001600160a01b0316611a23565b61023a6004803603602081101561043e57600080fd5b50356001600160a01b0316611a41565b61023a6004803603604081101561046457600080fd5b506001600160a01b0381358116916020013516611d05565b6101fc612061565b6103166004803603602081101561049a57600080fd5b50356001600160a01b0316612066565b61023a600480360360408110156104c057600080fd5b506001600160a01b038135811691602001351661207b565b6102786123b1565b61023a600480360360208110156104f657600080fd5b50356001600160a01b03166123c0565b6101fc6004803603602081101561051c57600080fd5b5035612442565b61023a6004803603602081101561053957600080fd5b50356001600160a01b0316612459565b61023a6004803603604081101561055f57600080fd5b50803590602001356001600160a01b03166124db565b61023a6004803603604081101561058b57600080fd5b506001600160a01b0381358116916020013516612534565b610278612940565b61023a600480360360208110156105c157600080fd5b50356001600160a01b031661294f565b60009081526020819052604090206002015490565b600082815260208190526040902060020154610609906106046129f6565b611a23565b6106445760405162461bcd60e51b815260040180806020018281038252602f815260200180612d0c602f913960400191505060405180910390fd5b61064e82826129fb565b5050565b61065a6129f6565b6001600160a01b0316816001600160a01b0316146106a95760405162461bcd60e51b815260040180806020018281038252602f815260200180612e01602f913960400191505060405180910390fd5b61064e8282612a6a565b60095481565b6004546001600160a01b031681565b6005546001600160a01b031681565b604080516941444d494e5f524f4c4560b01b8152905190819003600a0190206107009033611a23565b610745576040805162461bcd60e51b81526020600482015260116024820152702637b0b732b91d102727aa2fa0a226a4a760791b604482015290519081900360640190fd5b6b616464436f6d6d756e69747960a01b8160405160200180826001600160a01b03166001600160a01b031660601b8152601401915050604051602081830303815290604052600082826040516020018083815260200182805190602001908083835b602083106107c65780518252601f1990920191602091820191016107a7565b6001836020036101000a0380198251168184511680821785525050505050509050019250505060405160208183030381529060405280519060200120905060606001600083815260200190815260200160002080548060200260200160405190810160405280929190818152602001828054801561086d57602002820191906000526020600020905b81546001600160a01b0316815260019091019060200180831161084f575b50939450600093505050505b81518160ff1610156108f357336001600160a01b0316828260ff168151811061089e57fe5b60200260200101516001600160a01b031614156108eb576040805162461bcd60e51b815260206004820152600660248201526514d251d3915160d21b604482015290519081900360640190fd5b600101610879565b50600082815260016020818152604083208054928301815580845290832090910180546001600160a01b031916331790559083905254600954811415610a6657600083815260016020526040812061094a91612caa565b600654604080516367a67c5360e01b81526001600160a01b0389811660048301526000602483018190529251929316916367a67c539160448082019260209290919082900301818787803b1580156109a157600080fd5b505af11580156109b5573d6000803e3d6000fd5b505050506040513d60208110156109cb57600080fd5b505190506001600160a01b038116610a16576040805162461bcd60e51b81526020600482015260096024820152681393d517d59053125160ba1b604482015290519081900360640190fd5b6001600160a01b03808216600081815260026020526040808220805460ff1916600117905551928a16927f7ccbd9e55ce8485b071e21372e316d65d50bc91413f06b7490a37a680b3e2e509190a3505b505050505050565b604080516941444d494e5f524f4c4560b01b8152905190819003600a019020610a979033611a23565b610adc576040805162461bcd60e51b81526020600482015260116024820152702637b0b732b91d102727aa2fa0a226a4a760791b604482015290519081900360640190fd5b72736574436f6d6d756e697479466163746f727960681b8160405160200180826001600160a01b03166001600160a01b031660601b8152601401915050604051602081830303815290604052600082826040516020018083815260200182805190602001908083835b60208310610b645780518252601f199092019160209182019101610b45565b6001836020036101000a03801982511681845116808217855250505050505090500192505050604051602081830303815290604052805190602001209050606060016000838152602001908152602001600020805480602002602001604051908101604052809291908181526020018280548015610c0b57602002820191906000526020600020905b81546001600160a01b03168152600190910190602001808311610bed575b50939450600093505050505b81518160ff161015610c9157336001600160a01b0316828260ff1681518110610c3c57fe5b60200260200101516001600160a01b03161415610c89576040805162461bcd60e51b815260206004820152600660248201526514d251d3915160d21b604482015290519081900360640190fd5b600101610c17565b50600082815260016020818152604083208054928301815580845290832090910180546001600160a01b031916331790559083905254600954811415610a66576000838152600160205260408120610ce891612caa565b6000869050306001600160a01b0316816001600160a01b031663e668a9156040518163ffffffff1660e01b815260040160206040518083038186803b158015610d3057600080fd5b505afa158015610d44573d6000803e3d6000fd5b505050506040513d6020811015610d5a57600080fd5b50516001600160a01b031614610da5576040805162461bcd60e51b815260206004820152600b60248201526a1393d517d0531313d5d15160aa1b604482015290519081900360640190fd5b600680546001600160a01b0319166001600160a01b0389169081179091556040517fd8961aaf9fb4046ee3c9088247c5ada34a3d089c61b6accad9e03b18b7376db490600090a250505050505050565b604080516941444d494e5f524f4c4560b01b8152905190819003600a01902081565b60026020526000908152604090205460ff1681565b60016020528160005260406000208181548110610e4557fe5b6000918252602090912001546001600160a01b03169150829050565b604080516941444d494e5f524f4c4560b01b8152905190819003600a019020610e8a9033611a23565b610ecf576040805162461bcd60e51b81526020600482015260116024820152702637b0b732b91d102727aa2fa0a226a4a760791b604482015290519081900360640190fd5b6d7365744c6f616e466163746f727960901b8160405160200180826001600160a01b03166001600160a01b031660601b8152601401915050604051602081830303815290604052600082826040516020018083815260200182805190602001908083835b60208310610f525780518252601f199092019160209182019101610f33565b6001836020036101000a03801982511681845116808217855250505050505090500192505050604051602081830303815290604052805190602001209050606060016000838152602001908152602001600020805480602002602001604051908101604052809291908181526020018280548015610ff957602002820191906000526020600020905b81546001600160a01b03168152600190910190602001808311610fdb575b50939450600093505050505b81518160ff16101561107f57336001600160a01b0316828260ff168151811061102a57fe5b60200260200101516001600160a01b03161415611077576040805162461bcd60e51b815260206004820152600660248201526514d251d3915160d21b604482015290519081900360640190fd5b600101611005565b50600082815260016020818152604083208054928301815580845290832090910180546001600160a01b031916331790559083905254600954811415610a665760008381526001602052604081206110d691612caa565b6000869050306001600160a01b0316816001600160a01b031663e668a9156040518163ffffffff1660e01b815260040160206040518083038186803b15801561111e57600080fd5b505afa158015611132573d6000803e3d6000fd5b505050506040513d602081101561114857600080fd5b50516001600160a01b03161461118f5760405162461bcd60e51b815260040180806020018281038252602c815260200180612d3b602c913960400191505060405180910390fd5b600780546001600160a01b0319166001600160a01b0389169081179091556040517f5cb600ce52807ba2c4eb188b6eb2abed4e5c93fa2e14124088bdbf36f132642390600090a250505050505050565b604080516941444d494e5f524f4c4560b01b8152905190819003600a0190206112089033611a23565b61124d576040805162461bcd60e51b81526020600482015260116024820152702637b0b732b91d102727aa2fa0a226a4a760791b604482015290519081900360640190fd5b6f6d696772617465436f6d6d756e69747960801b838360405160200180836001600160a01b03166001600160a01b031660601b8152601401826001600160a01b03166001600160a01b031660601b815260140192505050604051602081830303815290604052600082826040516020018083815260200182805190602001908083835b602083106112ef5780518252601f1990920191602091820191016112d0565b6001836020036101000a0380198251168184511680821785525050505050509050019250505060405160208183030381529060405280519060200120905060606001600083815260200190815260200160002080548060200260200160405190810160405280929190818152602001828054801561139657602002820191906000526020600020905b81546001600160a01b03168152600190910190602001808311611378575b50939450600093505050505b81518160ff16101561141c57336001600160a01b0316828260ff16815181106113c757fe5b60200260200101516001600160a01b03161415611414576040805162461bcd60e51b815260206004820152600660248201526514d251d3915160d21b604482015290519081900360640190fd5b6001016113a2565b50600082815260016020818152604083208054928301815580845290832090910180546001600160a01b03191633179055908390525460095481141561165b57600083815260016020526040812061147391612caa565b6001600160a01b0387166000818152600260205260409020805460ff191690556114d0576040805162461bcd60e51b81526020600482015260096024820152681393d517d59053125160ba1b604482015290519081900360640190fd5b604080516367a67c5360e01b81526001600160a01b038a81166004830152808a16602483015291518992600092908a16916367a67c539160448082019260209290919082900301818787803b15801561152857600080fd5b505af115801561153c573d6000803e3d6000fd5b505050506040513d602081101561155257600080fd5b505190506001600160a01b03811661159d576040805162461bcd60e51b81526020600482015260096024820152681393d517d59053125160ba1b604482015290519081900360640190fd5b60408051630ff4abc760e11b81526001600160a01b0383811660048301528c81166024830152915191841691631fe9578e9160448082019260009290919082900301818387803b1580156115f057600080fd5b505af1158015611604573d6000803e3d6000fd5b505050506001600160a01b03818116600081815260026020526040808220805460ff19166001179055518c8416938e16917f98c0ae41ed9dcfef204d20409e01d4051eee4da4276aa4b5fa1cb3cf01403d6891a450505b5050505050505050565b6008546001600160a01b031681565b6000828152602081905260408120611692908363ffffffff612ad916565b90505b92915050565b604080516941444d494e5f524f4c4560b01b8152905190819003600a0190206116c49033611a23565b611709576040805162461bcd60e51b81526020600482015260116024820152702637b0b732b91d102727aa2fa0a226a4a760791b604482015290519081900360640190fd5b737365744c6f616e6572506f6f6c466163746f727960601b8160405160200180826001600160a01b03166001600160a01b031660601b8152601401915050604051602081830303815290604052600082826040516020018083815260200182805190602001908083835b602083106117925780518252601f199092019160209182019101611773565b6001836020036101000a0380198251168184511680821785525050505050509050019250505060405160208183030381529060405280519060200120905060606001600083815260200190815260200160002080548060200260200160405190810160405280929190818152602001828054801561183957602002820191906000526020600020905b81546001600160a01b0316815260019091019060200180831161181b575b50939450600093505050505b81518160ff1610156118bf57336001600160a01b0316828260ff168151811061186a57fe5b60200260200101516001600160a01b031614156118b7576040805162461bcd60e51b815260206004820152600660248201526514d251d3915160d21b604482015290519081900360640190fd5b600101611845565b50600082815260016020818152604083208054928301815580845290832090910180546001600160a01b031916331790559083905254600954811415610a6657600083815260016020526040812061191691612caa565b6000869050306001600160a01b0316816001600160a01b031663e668a9156040518163ffffffff1660e01b815260040160206040518083038186803b15801561195e57600080fd5b505afa158015611972573d6000803e3d6000fd5b505050506040513d602081101561198857600080fd5b50516001600160a01b0316146119d3576040805162461bcd60e51b815260206004820152600b60248201526a1393d517d0531313d5d15160aa1b604482015290519081900360640190fd5b600880546001600160a01b0319166001600160a01b0389169081179091556040517f795330811956c33ce7c62f7f68fe6de51ad3a39159f8f11d511de9c50b1869e290600090a250505050505050565b6000828152602081905260408120611692908363ffffffff612ae516565b604080516941444d494e5f524f4c4560b01b8152905190819003600a019020611a6a9033611a23565b611aaf576040805162461bcd60e51b81526020600482015260116024820152702637b0b732b91d102727aa2fa0a226a4a760791b604482015290519081900360640190fd5b6e72656d6f7665436f6d6d756e69747960881b8160405160200180826001600160a01b03166001600160a01b031660601b8152601401915050604051602081830303815290604052600082826040516020018083815260200182805190602001908083835b60208310611b335780518252601f199092019160209182019101611b14565b6001836020036101000a03801982511681845116808217855250505050505090500192505050604051602081830303815290604052805190602001209050606060016000838152602001908152602001600020805480602002602001604051908101604052809291908181526020018280548015611bda57602002820191906000526020600020905b81546001600160a01b03168152600190910190602001808311611bbc575b50939450600093505050505b81518160ff161015611c6057336001600160a01b0316828260ff1681518110611c0b57fe5b60200260200101516001600160a01b03161415611c58576040805162461bcd60e51b815260206004820152600660248201526514d251d3915160d21b604482015290519081900360640190fd5b600101611be6565b50600082815260016020818152604083208054928301815580845290832090910180546001600160a01b031916331790559083905254600954811415610a66576000838152600160205260408120611cb791612caa565b6001600160a01b038616600081815260026020526040808220805460ff19169055517fa285b77d62d36ec6881b2cbc019c53874eb061798176f3577f2beab0848d16c69190a2505050505050565b604080516941444d494e5f524f4c4560b01b8152905190819003600a019020611d2e9033611a23565b611d73576040805162461bcd60e51b81526020600482015260116024820152702637b0b732b91d102727aa2fa0a226a4a760791b604482015290519081900360640190fd5b7239b2ba2837b7b6233ab73239a6b0b730b3b2b960691b828260405160200180836001600160a01b03166001600160a01b031660601b8152601401826001600160a01b03166001600160a01b031660601b815260140192505050604051602081830303815290604052600082826040516020018083815260200182805190602001908083835b60208310611e185780518252601f199092019160209182019101611df9565b6001836020036101000a03801982511681845116808217855250505050505090500192505050604051602081830303815290604052805190602001209050606060016000838152602001908152602001600020805480602002602001604051908101604052809291908181526020018280548015611ebf57602002820191906000526020600020905b81546001600160a01b03168152600190910190602001808311611ea1575b50939450600093505050505b81518160ff161015611f4557336001600160a01b0316828260ff1681518110611ef057fe5b60200260200101516001600160a01b03161415611f3d576040805162461bcd60e51b815260206004820152600660248201526514d251d3915160d21b604482015290519081900360640190fd5b600101611ecb565b50600082815260016020818152604083208054928301815580845290832090910180546001600160a01b031916331790559083905254600954811415612058576000838152600160205260408120611f9c91612caa565b6001600160a01b03871660009081526003602052604090205460ff16611ff35760405162461bcd60e51b8152600401808060200182810382526032815260200180612d976032913960400191505060405180910390fd5b60408051631338fc5d60e31b81526001600160a01b038881166004830152915189928316916399c7e2e891602480830192600092919082900301818387803b15801561203e57600080fd5b505af1158015612052573d6000803e3d6000fd5b50505050505b50505050505050565b600081565b60036020526000908152604090205460ff1681565b604080516941444d494e5f524f4c4560b01b8152905190819003600a0190206120a49033611a23565b6120e9576040805162461bcd60e51b81526020600482015260116024820152702637b0b732b91d102727aa2fa0a226a4a760791b604482015290519081900360640190fd5b6f736574506f6f6c436f6d6d756e69747960801b828260405160200180836001600160a01b03166001600160a01b031660601b8152601401826001600160a01b03166001600160a01b031660601b815260140192505050604051602081830303815290604052600082826040516020018083815260200182805190602001908083835b6020831061218b5780518252601f19909201916020918201910161216c565b6001836020036101000a0380198251168184511680821785525050505050509050019250505060405160208183030381529060405280519060200120905060606001600083815260200190815260200160002080548060200260200160405190810160405280929190818152602001828054801561223257602002820191906000526020600020905b81546001600160a01b03168152600190910190602001808311612214575b50939450600093505050505b81518160ff1610156122b857336001600160a01b0316828260ff168151811061226357fe5b60200260200101516001600160a01b031614156122b0576040805162461bcd60e51b815260206004820152600660248201526514d251d3915160d21b604482015290519081900360640190fd5b60010161223e565b50600082815260016020818152604083208054928301815580845290832090910180546001600160a01b03191633179055908390525460095481141561205857600083815260016020526040812061230f91612caa565b6001600160a01b03871660009081526003602052604090205460ff166123665760405162461bcd60e51b8152600401808060200182810382526032815260200180612d976032913960400191505060405180910390fd5b60408051630aed058160e11b81526001600160a01b038881166004830152915189928316916315da0b0291602480830192600092919082900301818387803b15801561203e57600080fd5b6007546001600160a01b031681565b6008546001600160a01b0316156123f8576040805162461bcd60e51b8152602060048201526000602482015290519081900360640190fd5b600880546001600160a01b0319166001600160a01b0383169081179091556040517f795330811956c33ce7c62f7f68fe6de51ad3a39159f8f11d511de9c50b1869e290600090a250565b600081815260208190526040812061169590612afa565b6006546001600160a01b031615612491576040805162461bcd60e51b8152602060048201526000602482015290519081900360640190fd5b600680546001600160a01b0319166001600160a01b0383169081179091556040517fd8961aaf9fb4046ee3c9088247c5ada34a3d089c61b6accad9e03b18b7376db490600090a250565b6000828152602081905260409020600201546124f9906106046129f6565b6106a95760405162461bcd60e51b8152600401808060200182810382526030815260200180612d676030913960400191505060405180910390fd5b604080516941444d494e5f524f4c4560b01b8152905190819003600a01902061255d9033611a23565b6125a2576040805162461bcd60e51b81526020600482015260116024820152702637b0b732b91d102727aa2fa0a226a4a760791b604482015290519081900360640190fd5b66185919141bdbdb60ca1b828260405160200180836001600160a01b03166001600160a01b031660601b8152601401826001600160a01b03166001600160a01b031660601b815260140192505050604051602081830303815290604052600082826040516020018083815260200182805190602001908083835b6020831061263b5780518252601f19909201916020918201910161261c565b6001836020036101000a038019825116818451168082178552505050505050905001925050506040516020818303038152906040528051906020012090506060600160008381526020019081526020016000208054806020026020016040519081016040528092919081815260200182805480156126e257602002820191906000526020600020905b81546001600160a01b031681526001909101906020018083116126c4575b50939450600093505050505b81518160ff16101561276857336001600160a01b0316828260ff168151811061271357fe5b60200260200101516001600160a01b03161415612760576040805162461bcd60e51b815260206004820152600660248201526514d251d3915160d21b604482015290519081900360640190fd5b6001016126ee565b50600082815260016020818152604083208054928301815580845290832090910180546001600160a01b0319163317905590839052546009548114156120585760008381526001602052604081206127bf91612caa565b6001600160a01b03871660009081526002602052604090205460ff166128165760405162461bcd60e51b8152600401808060200182810382526038815260200180612dc96038913960400191505060405180910390fd5b6008546040805163b962bf1f60e01b81526001600160a01b0389811660048301528a811660248301529151600093929092169163b962bf1f9160448082019260209290919082900301818787803b15801561287057600080fd5b505af1158015612884573d6000803e3d6000fd5b505050506040513d602081101561289a57600080fd5b505190506001600160a01b0381166128e5576040805162461bcd60e51b81526020600482015260096024820152681393d517d59053125160ba1b604482015290519081900360640190fd5b6001600160a01b03808216600081815260036020526040808220805460ff19166001179055518a8416938c1692917f4c61bab17e59e06eb29c0659ba5f68dc5bc003d57587a7280d98d532d2bf312a91a45050505050505050565b6006546001600160a01b031681565b6007546001600160a01b0316156129975760405162461bcd60e51b8152600401808060200182810382526028815260200180612e306028913960400191505060405180910390fd5b600780546001600160a01b0319166001600160a01b0383169081179091556040517f5cb600ce52807ba2c4eb188b6eb2abed4e5c93fa2e14124088bdbf36f132642390600090a250565b6000611692836001600160a01b038416612b05565b335b90565b6000828152602081905260409020612a19908263ffffffff6129e116565b1561064e57612a266129f6565b6001600160a01b0316816001600160a01b0316837f2f8788117e7eff1d82e926ec794901d17c78024a50270940304540a733656f0d60405160405180910390a45050565b6000828152602081905260409020612a88908263ffffffff612b4f16565b1561064e57612a956129f6565b6001600160a01b0316816001600160a01b0316837ff6391f5c32d9c69d2a47ea670b442974b53935d1edc7fd64eb21e047a839171b60405160405180910390a45050565b60006116928383612b64565b6000611692836001600160a01b038416612bc8565b600061169582612be0565b6000612b118383612bc8565b612b4757508154600181810184556000848152602080822090930184905584548482528286019093526040902091909155611695565b506000611695565b6000611692836001600160a01b038416612be4565b81546000908210612ba65760405162461bcd60e51b8152600401808060200182810382526022815260200180612cea6022913960400191505060405180910390fd5b826000018281548110612bb557fe5b9060005260206000200154905092915050565b60009081526001919091016020526040902054151590565b5490565b60008181526001830160205260408120548015612ca05783546000198083019190810190600090879083908110612c1757fe5b9060005260206000200154905080876000018481548110612c3457fe5b600091825260208083209091019290925582815260018981019092526040902090840190558654879080612c6457fe5b60019003818190600052602060002001600090559055866001016000878152602001908152602001600020600090556001945050505050611695565b6000915050611695565b5080546000825590600052602060002090810190612cc89190612ccb565b50565b6129f891905b80821115612ce55760008155600101612cd1565b509056fe456e756d657261626c655365743a20696e646578206f7574206f6620626f756e6473416363657373436f6e74726f6c3a2073656e646572206d75737420626520616e2061646d696e20746f206772616e744c6f616e65723a20666163746f727920646f6573206e6f742068617665206c6f616e65722061646472657373416363657373436f6e74726f6c3a2073656e646572206d75737420626520616e2061646d696e20746f207265766f6b654c6f616e65723a20506f6f6c20776173206e6f7420637265617465642066726f6d2074686520706f6f6c20666163746f72794c6f616e65723a204e65656420746f2061646420706f6f6c20746f206578697374696e6720636f6d6d756e697479206279204c6f616e6572416363657373436f6e74726f6c3a2063616e206f6e6c792072656e6f756e636520726f6c657320666f722073656c664c6f616e65723a204c6f616e20666163746f727920616c726561647920696e697469616c697a6564a2646970667358221220aa5d5620f85fceeb5822441da367701bb98ad2f9a2826e7805354e2716a98e4864736f6c634300060a00334c6f616e65723a204e6f742073756666696369656e74207369676e617475726573",
  "immutableReferences": {},
  "source": "// SPDX-License-Identifier: Apache-2.0\npragma solidity ^0.6.10;\n\nimport \"@openzeppelin/contracts/access/AccessControl.sol\";\nimport \"./interfaces/ICommunity.sol\";\nimport \"./interfaces/ICommunityFactory.sol\";\nimport \"./interfaces/ILoanFactory.sol\";\nimport \"./interfaces/ILoanerPool.sol\";\nimport \"./interfaces/ILoanerPoolFactory.sol\";\n\n/**\n * @notice Welcome to Loaner, the main contract. This is an\n * administrative (for now) contract where the admins have control\n * over the list of communities. Being only able to add and\n * remove communities and manage their loan pools\n */\ncontract Loaner is AccessControl {\n    bytes32 public constant ADMIN_ROLE = keccak256(\"ADMIN_ROLE\");\n\n    mapping(bytes32 => address[]) public pendingValidations;\n    mapping(address => bool) public communities;\n    mapping(address => bool) public pools;\n    address public cUSDAddress;\n    address public moolaAddressProvider;\n    address public communityFactory;\n    address public loanFactory;\n    address public loanerPoolFactory;\n    uint256 public signaturesThreshold;\n\n    event CommunityAdded(\n        address indexed _communityAddress,\n        address indexed _firstManager\n    );\n    event CommunityRemoved(address indexed _communityAddress);\n    event CommunityMigrated(\n        address indexed _firstManager,\n        address indexed _communityAddress,\n        address indexed _previousCommunityAddress\n    );\n    event PoolAdded(\n        address indexed _pool,\n        address indexed _communityAddress,\n        address indexed _fundsManager\n    );\n    event CommunityFactoryChanged(address indexed _newCommunityFactory);\n    event LoanFactoryChanged(address indexed _newLoanFactory);\n    event PoolFactoryChanged(address indexed _newPoolFactory);\n\n    /**\n     * @dev It sets the first admin, which later can add others\n     * and add/remove communities.\n     */\n    constructor(address _cUSDAddress, address _moolaAdressProvider, address[] memory _signatures) public {\n        require(_signatures.length > 0, \"Loaner: Not sufficient signatures\");\n        _setupRole(ADMIN_ROLE, address(_signatures[0]));\n        _setRoleAdmin(ADMIN_ROLE, ADMIN_ROLE);\n        cUSDAddress = _cUSDAddress;\n        moolaAddressProvider = _moolaAdressProvider;\n        if (_signatures.length > 2) {\n            signaturesThreshold = _signatures.length - 1;\n        } else {\n            signaturesThreshold = _signatures.length;\n        }\n        for (uint8 u = 1; u < _signatures.length; u += 1) {\n            _setupRole(ADMIN_ROLE, address(_signatures[u]));\n        }\n    }\n\n    modifier onlyAdmin() {\n        require(hasRole(ADMIN_ROLE, msg.sender), \"Loaner: NOT_ADMIN\");\n        _;\n    }\n\n    modifier validateRequest(bytes32 _type, bytes memory _packedParams) {\n        bytes32 requestIdentifier = keccak256(\n            abi.encodePacked(_type, _packedParams)\n        );\n        address[] memory validations = pendingValidations[requestIdentifier];\n        for (uint8 u = 0; u < validations.length; u += 1) {\n            require(validations[u] != msg.sender, \"SIGNED\");\n        }\n        pendingValidations[requestIdentifier].push(msg.sender);\n        uint256 totalValidations = pendingValidations[requestIdentifier].length;\n        if (totalValidations == signaturesThreshold) {\n            delete pendingValidations[requestIdentifier];\n            _;\n        }\n    }\n\n    /**\n     * @dev Add a new community. Can be used only by an admin.\n     * For further information regarding each parameter, see\n     * *Community* smart contract constructor.\n     */\n    function addCommunity(\n        address _firstManager\n    )\n        external\n        onlyAdmin\n        validateRequest(\n            \"addCommunity\",\n            abi.encodePacked(_firstManager)\n        )\n    {\n        address community = ICommunityFactory(communityFactory).deployCommunity(\n            _firstManager,\n            address(0)\n        );\n        require(community != address(0), \"NOT_VALID\");\n        communities[community] = true;\n        emit CommunityAdded(\n            community,\n            _firstManager\n        );\n    }\n\n    /**\n     * @dev Migrate community by deploying a new contract. Can be used only by an admin.\n     * For further information regarding each parameter, see\n     * *Community* smart contract constructor.\n     */\n    function migrateCommunity(\n        address _firstManager,\n        address _previousCommunityAddress,\n        address _newCommunityFactory\n    )\n        external\n        onlyAdmin\n        validateRequest(\n            \"migrateCommunity\",\n            abi.encodePacked(_firstManager, _previousCommunityAddress)\n        )\n    {\n        communities[_previousCommunityAddress] = false;\n        require(address(_previousCommunityAddress) != address(0), \"NOT_VALID\");\n        ICommunity previousCommunity = ICommunity(_previousCommunityAddress);\n        address community = ICommunityFactory(_newCommunityFactory).deployCommunity(\n            _firstManager,\n            _previousCommunityAddress\n        );\n        require(community != address(0), \"NOT_VALID\");\n        previousCommunity.migrateFunds(community, _firstManager);\n        communities[community] = true;\n        emit CommunityMigrated(\n            _firstManager,\n            community,\n            _previousCommunityAddress\n        );\n    }\n\n    /**\n     * @dev Remove an existing community. Can be used only by an admin.\n     */\n    function removeCommunity(address _community)\n        external\n        onlyAdmin\n        validateRequest(\"removeCommunity\", abi.encodePacked(_community))\n    {\n        communities[_community] = false;\n        emit CommunityRemoved(_community);\n    }\n\n    /**\n     * @dev Add a pool to the community\n     */\n    function addPool(address _community, address _fundsManager) \n        external\n        onlyAdmin\n        validateRequest(\n            \"addPool\",\n            abi.encodePacked(\n                _community,\n                _fundsManager\n            )\n        )\n    {\n        require(communities[_community], \"Loaner: Need to add pool to existing community by Loaner\");\n        address pool = ILoanerPoolFactory(loanerPoolFactory).deployPool(\n            _fundsManager,\n            _community\n        );\n        require(pool != address(0), \"NOT_VALID\");\n        pools[address(pool)] = true;\n        emit PoolAdded(\n            pool,\n            _community,\n            _fundsManager\n        );\n    }\n\n    /**\n     * @dev Set a new community for the fund pool if a community has migrated\n     */\n    function setPoolCommunity(address _pool, address _newCommunity)\n        external\n        onlyAdmin\n        validateRequest(\"setPoolCommunity\", abi.encodePacked(_pool, _newCommunity))\n    {\n        require(pools[_pool], \"Loaner: Pool was not created from the pool factory\");\n        ILoanerPool pool = ILoanerPool(_pool);\n        pool.setCommunity(_newCommunity);\n    }\n\n    /**\n     * @dev Set up a new funds manager for a community pool\n     */\n    function setPoolFundsManager(address _pool, address _newFundsManager)\n        external\n        onlyAdmin\n        validateRequest(\"setPoolFundsManager\", abi.encodePacked(_pool, _newFundsManager))\n    {\n        require(pools[_pool], \"Loaner: Pool was not created from the pool factory\");\n        ILoanerPool pool = ILoanerPool(_pool);\n        pool.setFundsManager(_newFundsManager);\n    }\n\n    /**\n     * @dev Set the community pool factory address, if the contract is valid.\n     */\n    function setLoanerPoolFactory(address _loanerPoolFactory)\n        external\n        onlyAdmin\n        validateRequest(\n            \"setLoanerPoolFactory\",\n            abi.encodePacked(_loanerPoolFactory)\n        )\n    {\n        ILoanerPoolFactory factory = ILoanerPoolFactory(_loanerPoolFactory);\n        require(factory.loanerAddress() == address(this), \"NOT_ALLOWED\");\n        loanerPoolFactory = _loanerPoolFactory;\n        emit PoolFactoryChanged(_loanerPoolFactory);\n    }\n\n    /**\n     * @dev Init pool factory, used only at deploy time.\n     */\n    function initPoolFactory(address _loanerPoolFactory)\n        external\n    {\n        require(loanerPoolFactory == address(0), \"\");\n        loanerPoolFactory = _loanerPoolFactory;\n        emit PoolFactoryChanged(_loanerPoolFactory);\n    }\n\n\n    /**\n     * @dev Set the community factory address, if the contract is valid.\n     */\n    function setCommunityFactory(address _communityFactory)\n        external\n        onlyAdmin\n        validateRequest(\n            \"setCommunityFactory\",\n            abi.encodePacked(_communityFactory)\n        )\n    {\n        ICommunityFactory factory = ICommunityFactory(_communityFactory);\n        require(factory.loanerAddress() == address(this), \"NOT_ALLOWED\");\n        communityFactory = _communityFactory;\n        emit CommunityFactoryChanged(_communityFactory);\n    }\n\n    /**\n     * @dev Init community factory, used only at deploy time.\n     */\n    function initCommunityFactory(address _communityFactory)\n        external\n    {\n        require(communityFactory == address(0), \"\");\n        communityFactory = _communityFactory;\n        emit CommunityFactoryChanged(_communityFactory);\n    }\n\n    /**\n     * @dev Set the loan factory address, if the contract is valid.\n     */\n     function setLoanFactory(address _loanFactory)\n        external\n        onlyAdmin\n        validateRequest(\n            \"setLoanFactory\",\n            abi.encodePacked(_loanFactory)\n        )\n    {\n        ILoanFactory factory = ILoanFactory(_loanFactory);\n        require(factory.loanerAddress() == address(this), \"Loaner: factory does not have loaner address\");\n        loanFactory = _loanFactory;\n        emit LoanFactoryChanged(_loanFactory);\n    }\n\n    /**\n     * @dev Init loan factory, used only at deploy time.\n     */\n    function initLoanFactory(address _loanFactory)\n        external\n    {\n        require(loanFactory == address(0), \"Loaner: Loan factory already initialized\");\n        loanFactory = _loanFactory;\n        emit LoanFactoryChanged(_loanFactory);\n    }\n}",
  "sourcePath": "/home/bob/loaner-celo/smart-contracts/contracts/Loaner.sol",
  "compiler": {
    "name": "solc",
    "version": "0.6.10+commit.00c0fcaf.Emscripten.clang"
  },
  "schemaVersion": "3.3.3",
  "updatedAt": "2021-03-19T23:14:35.041Z",
  "networkType": "ethereum",
  "devdoc": {
    "methods": {
      "addCommunity(address)": {
        "details": "Add a new community. Can be used only by an admin. For further information regarding each parameter, see *Community* smart contract constructor."
      },
      "addPool(address,address)": {
        "details": "Add a pool to the community"
      },
      "constructor": {
        "details": "It sets the first admin, which later can add others and add/remove communities."
      },
      "getRoleAdmin(bytes32)": {
        "details": "Returns the admin role that controls `role`. See {grantRole} and {revokeRole}. To change a role's admin, use {_setRoleAdmin}."
      },
      "getRoleMember(bytes32,uint256)": {
        "details": "Returns one of the accounts that have `role`. `index` must be a value between 0 and {getRoleMemberCount}, non-inclusive. Role bearers are not sorted in any particular way, and their ordering may change at any point. WARNING: When using {getRoleMember} and {getRoleMemberCount}, make sure you perform all queries on the same block. See the following https://forum.openzeppelin.com/t/iterating-over-elements-on-enumerableset-in-openzeppelin-contracts/2296[forum post] for more information."
      },
      "getRoleMemberCount(bytes32)": {
        "details": "Returns the number of accounts that have `role`. Can be used together with {getRoleMember} to enumerate all bearers of a role."
      },
      "grantRole(bytes32,address)": {
        "details": "Grants `role` to `account`. If `account` had not been already granted `role`, emits a {RoleGranted} event. Requirements: - the caller must have ``role``'s admin role."
      },
      "hasRole(bytes32,address)": {
        "details": "Returns `true` if `account` has been granted `role`."
      },
      "initCommunityFactory(address)": {
        "details": "Init community factory, used only at deploy time."
      },
      "initLoanFactory(address)": {
        "details": "Init loan factory, used only at deploy time."
      },
      "initPoolFactory(address)": {
        "details": "Init pool factory, used only at deploy time."
      },
      "migrateCommunity(address,address,address)": {
        "details": "Migrate community by deploying a new contract. Can be used only by an admin. For further information regarding each parameter, see *Community* smart contract constructor."
      },
      "removeCommunity(address)": {
        "details": "Remove an existing community. Can be used only by an admin."
      },
      "renounceRole(bytes32,address)": {
        "details": "Revokes `role` from the calling account. Roles are often managed via {grantRole} and {revokeRole}: this function's purpose is to provide a mechanism for accounts to lose their privileges if they are compromised (such as when a trusted device is misplaced). If the calling account had been granted `role`, emits a {RoleRevoked} event. Requirements: - the caller must be `account`."
      },
      "revokeRole(bytes32,address)": {
        "details": "Revokes `role` from `account`. If `account` had been granted `role`, emits a {RoleRevoked} event. Requirements: - the caller must have ``role``'s admin role."
      },
      "setCommunityFactory(address)": {
        "details": "Set the community factory address, if the contract is valid."
      },
      "setLoanFactory(address)": {
        "details": "Set the loan factory address, if the contract is valid."
      },
      "setLoanerPoolFactory(address)": {
        "details": "Set the community pool factory address, if the contract is valid."
      },
      "setPoolCommunity(address,address)": {
        "details": "Set a new community for the fund pool if a community has migrated"
      },
      "setPoolFundsManager(address,address)": {
        "details": "Set up a new funds manager for a community pool"
      }
    }
  },
  "userdoc": {
    "methods": {},
    "notice": "Welcome to Loaner, the main contract. This is an administrative (for now) contract where the admins have control over the list of communities. Being only able to add and remove communities and manage their loan pools"
  }
}