{
  "contractName": "LoanerPool",
  "abi": [
    {
      "inputs": [
        {
          "internalType": "address",
          "name": "_moolaAddressesProviderAddress",
          "type": "address"
        },
        {
          "internalType": "address",
          "name": "_stablecoinAddress",
          "type": "address"
        },
        {
          "internalType": "address",
          "name": "_community",
          "type": "address"
        },
        {
          "internalType": "address",
          "name": "_fundsManager",
          "type": "address"
        },
        {
          "internalType": "address",
          "name": "_loanerAddress",
          "type": "address"
        }
      ],
      "stateMutability": "nonpayable",
      "type": "constructor"
    },
    {
      "anonymous": false,
      "inputs": [
        {
          "indexed": true,
          "internalType": "address",
          "name": "owner",
          "type": "address"
        },
        {
          "indexed": true,
          "internalType": "address",
          "name": "spender",
          "type": "address"
        },
        {
          "indexed": false,
          "internalType": "uint256",
          "name": "value",
          "type": "uint256"
        }
      ],
      "name": "Approval",
      "type": "event"
    },
    {
      "anonymous": false,
      "inputs": [
        {
          "indexed": false,
          "internalType": "address",
          "name": "newCommunity",
          "type": "address"
        }
      ],
      "name": "CommunityChanged",
      "type": "event"
    },
    {
      "anonymous": false,
      "inputs": [
        {
          "indexed": true,
          "internalType": "address",
          "name": "staker",
          "type": "address"
        },
        {
          "indexed": false,
          "internalType": "uint256",
          "name": "amount",
          "type": "uint256"
        }
      ],
      "name": "Exited",
      "type": "event"
    },
    {
      "anonymous": false,
      "inputs": [
        {
          "indexed": false,
          "internalType": "uint256",
          "name": "currencyAmount",
          "type": "uint256"
        }
      ],
      "name": "Flushed",
      "type": "event"
    },
    {
      "anonymous": false,
      "inputs": [
        {
          "indexed": true,
          "internalType": "address",
          "name": "loanToken",
          "type": "address"
        },
        {
          "indexed": false,
          "internalType": "uint256",
          "name": "amount",
          "type": "uint256"
        }
      ],
      "name": "Funded",
      "type": "event"
    },
    {
      "anonymous": false,
      "inputs": [
        {
          "indexed": false,
          "internalType": "address",
          "name": "newManager",
          "type": "address"
        }
      ],
      "name": "FundsManagerChanged",
      "type": "event"
    },
    {
      "anonymous": false,
      "inputs": [
        {
          "indexed": true,
          "internalType": "address",
          "name": "staker",
          "type": "address"
        },
        {
          "indexed": false,
          "internalType": "uint256",
          "name": "deposited",
          "type": "uint256"
        },
        {
          "indexed": false,
          "internalType": "uint256",
          "name": "minted",
          "type": "uint256"
        }
      ],
      "name": "Joined",
      "type": "event"
    },
    {
      "anonymous": false,
      "inputs": [
        {
          "indexed": false,
          "internalType": "bool",
          "name": "isJoiningPaused",
          "type": "bool"
        }
      ],
      "name": "JoiningPauseStatusChanged",
      "type": "event"
    },
    {
      "anonymous": false,
      "inputs": [
        {
          "indexed": true,
          "internalType": "address",
          "name": "previousOwner",
          "type": "address"
        },
        {
          "indexed": true,
          "internalType": "address",
          "name": "newOwner",
          "type": "address"
        }
      ],
      "name": "OwnershipTransferred",
      "type": "event"
    },
    {
      "anonymous": false,
      "inputs": [
        {
          "indexed": false,
          "internalType": "uint256",
          "name": "participationSize",
          "type": "uint256"
        }
      ],
      "name": "ParticipationSizeChanged",
      "type": "event"
    },
    {
      "anonymous": false,
      "inputs": [
        {
          "indexed": false,
          "internalType": "uint256",
          "name": "aAmount",
          "type": "uint256"
        }
      ],
      "name": "Pulled",
      "type": "event"
    },
    {
      "anonymous": false,
      "inputs": [
        {
          "indexed": true,
          "internalType": "address",
          "name": "loanToken",
          "type": "address"
        },
        {
          "indexed": false,
          "internalType": "uint256",
          "name": "amount",
          "type": "uint256"
        }
      ],
      "name": "Reclaimed",
      "type": "event"
    },
    {
      "anonymous": false,
      "inputs": [
        {
          "indexed": true,
          "internalType": "address",
          "name": "from",
          "type": "address"
        },
        {
          "indexed": true,
          "internalType": "address",
          "name": "to",
          "type": "address"
        },
        {
          "indexed": false,
          "internalType": "uint256",
          "name": "value",
          "type": "uint256"
        }
      ],
      "name": "Transfer",
      "type": "event"
    },
    {
      "inputs": [
        {
          "internalType": "address",
          "name": "owner",
          "type": "address"
        },
        {
          "internalType": "address",
          "name": "spender",
          "type": "address"
        }
      ],
      "name": "allowance",
      "outputs": [
        {
          "internalType": "uint256",
          "name": "",
          "type": "uint256"
        }
      ],
      "stateMutability": "view",
      "type": "function"
    },
    {
      "inputs": [],
      "name": "approvalRate",
      "outputs": [
        {
          "internalType": "uint256",
          "name": "",
          "type": "uint256"
        }
      ],
      "stateMutability": "view",
      "type": "function"
    },
    {
      "inputs": [
        {
          "internalType": "address",
          "name": "spender",
          "type": "address"
        },
        {
          "internalType": "uint256",
          "name": "amount",
          "type": "uint256"
        }
      ],
      "name": "approve",
      "outputs": [
        {
          "internalType": "bool",
          "name": "",
          "type": "bool"
        }
      ],
      "stateMutability": "nonpayable",
      "type": "function"
    },
    {
      "inputs": [
        {
          "internalType": "address",
          "name": "account",
          "type": "address"
        }
      ],
      "name": "balanceOf",
      "outputs": [
        {
          "internalType": "uint256",
          "name": "",
          "type": "uint256"
        }
      ],
      "stateMutability": "view",
      "type": "function"
    },
    {
      "inputs": [],
      "name": "community",
      "outputs": [
        {
          "internalType": "contract ICommunity",
          "name": "",
          "type": "address"
        }
      ],
      "stateMutability": "view",
      "type": "function"
    },
    {
      "inputs": [],
      "name": "decimals",
      "outputs": [
        {
          "internalType": "uint8",
          "name": "",
          "type": "uint8"
        }
      ],
      "stateMutability": "view",
      "type": "function"
    },
    {
      "inputs": [
        {
          "internalType": "address",
          "name": "spender",
          "type": "address"
        },
        {
          "internalType": "uint256",
          "name": "subtractedValue",
          "type": "uint256"
        }
      ],
      "name": "decreaseAllowance",
      "outputs": [
        {
          "internalType": "bool",
          "name": "",
          "type": "bool"
        }
      ],
      "stateMutability": "nonpayable",
      "type": "function"
    },
    {
      "inputs": [],
      "name": "fundsManager",
      "outputs": [
        {
          "internalType": "address",
          "name": "",
          "type": "address"
        }
      ],
      "stateMutability": "view",
      "type": "function"
    },
    {
      "inputs": [
        {
          "internalType": "address",
          "name": "spender",
          "type": "address"
        },
        {
          "internalType": "uint256",
          "name": "addedValue",
          "type": "uint256"
        }
      ],
      "name": "increaseAllowance",
      "outputs": [
        {
          "internalType": "bool",
          "name": "",
          "type": "bool"
        }
      ],
      "stateMutability": "nonpayable",
      "type": "function"
    },
    {
      "inputs": [],
      "name": "isJoiningPaused",
      "outputs": [
        {
          "internalType": "bool",
          "name": "",
          "type": "bool"
        }
      ],
      "stateMutability": "view",
      "type": "function"
    },
    {
      "inputs": [],
      "name": "loanerAddress",
      "outputs": [
        {
          "internalType": "address",
          "name": "",
          "type": "address"
        }
      ],
      "stateMutability": "view",
      "type": "function"
    },
    {
      "inputs": [],
      "name": "moolaAddressesProvider",
      "outputs": [
        {
          "internalType": "contract ILendingPoolAddressesProvider",
          "name": "",
          "type": "address"
        }
      ],
      "stateMutability": "view",
      "type": "function"
    },
    {
      "inputs": [],
      "name": "name",
      "outputs": [
        {
          "internalType": "string",
          "name": "",
          "type": "string"
        }
      ],
      "stateMutability": "view",
      "type": "function"
    },
    {
      "inputs": [],
      "name": "owner",
      "outputs": [
        {
          "internalType": "address",
          "name": "",
          "type": "address"
        }
      ],
      "stateMutability": "view",
      "type": "function"
    },
    {
      "inputs": [],
      "name": "participationRate",
      "outputs": [
        {
          "internalType": "uint256",
          "name": "",
          "type": "uint256"
        }
      ],
      "stateMutability": "view",
      "type": "function"
    },
    {
      "inputs": [],
      "name": "participationSize",
      "outputs": [
        {
          "internalType": "uint256",
          "name": "",
          "type": "uint256"
        }
      ],
      "stateMutability": "view",
      "type": "function"
    },
    {
      "inputs": [],
      "name": "renounceOwnership",
      "outputs": [],
      "stateMutability": "nonpayable",
      "type": "function"
    },
    {
      "inputs": [],
      "name": "stablecoin",
      "outputs": [
        {
          "internalType": "contract IERC20",
          "name": "",
          "type": "address"
        }
      ],
      "stateMutability": "view",
      "type": "function"
    },
    {
      "inputs": [],
      "name": "symbol",
      "outputs": [
        {
          "internalType": "string",
          "name": "",
          "type": "string"
        }
      ],
      "stateMutability": "view",
      "type": "function"
    },
    {
      "inputs": [],
      "name": "totalSupply",
      "outputs": [
        {
          "internalType": "uint256",
          "name": "",
          "type": "uint256"
        }
      ],
      "stateMutability": "view",
      "type": "function"
    },
    {
      "inputs": [
        {
          "internalType": "address",
          "name": "recipient",
          "type": "address"
        },
        {
          "internalType": "uint256",
          "name": "amount",
          "type": "uint256"
        }
      ],
      "name": "transfer",
      "outputs": [
        {
          "internalType": "bool",
          "name": "",
          "type": "bool"
        }
      ],
      "stateMutability": "nonpayable",
      "type": "function"
    },
    {
      "inputs": [
        {
          "internalType": "address",
          "name": "sender",
          "type": "address"
        },
        {
          "internalType": "address",
          "name": "recipient",
          "type": "address"
        },
        {
          "internalType": "uint256",
          "name": "amount",
          "type": "uint256"
        }
      ],
      "name": "transferFrom",
      "outputs": [
        {
          "internalType": "bool",
          "name": "",
          "type": "bool"
        }
      ],
      "stateMutability": "nonpayable",
      "type": "function"
    },
    {
      "inputs": [
        {
          "internalType": "address",
          "name": "newOwner",
          "type": "address"
        }
      ],
      "name": "transferOwnership",
      "outputs": [],
      "stateMutability": "nonpayable",
      "type": "function"
    },
    {
      "inputs": [],
      "name": "currencyToken",
      "outputs": [
        {
          "internalType": "contract IERC20",
          "name": "",
          "type": "address"
        }
      ],
      "stateMutability": "view",
      "type": "function"
    },
    {
      "inputs": [
        {
          "internalType": "uint256",
          "name": "newParticipationSize",
          "type": "uint256"
        }
      ],
      "name": "setParticipationSize",
      "outputs": [],
      "stateMutability": "nonpayable",
      "type": "function"
    },
    {
      "inputs": [
        {
          "internalType": "contract ICommunity",
          "name": "newCommunity",
          "type": "address"
        }
      ],
      "name": "setCommunity",
      "outputs": [],
      "stateMutability": "nonpayable",
      "type": "function"
    },
    {
      "inputs": [
        {
          "internalType": "address",
          "name": "newFundsManager",
          "type": "address"
        }
      ],
      "name": "setFundsManager",
      "outputs": [],
      "stateMutability": "nonpayable",
      "type": "function"
    },
    {
      "inputs": [
        {
          "internalType": "bool",
          "name": "status",
          "type": "bool"
        }
      ],
      "name": "changeJoiningPauseStatus",
      "outputs": [],
      "stateMutability": "nonpayable",
      "type": "function"
    },
    {
      "inputs": [
        {
          "internalType": "uint256",
          "name": "amount",
          "type": "uint256"
        },
        {
          "internalType": "uint256",
          "name": "yesVotes",
          "type": "uint256"
        }
      ],
      "name": "votesThresholdReached",
      "outputs": [
        {
          "internalType": "bool",
          "name": "",
          "type": "bool"
        }
      ],
      "stateMutability": "view",
      "type": "function"
    },
    {
      "inputs": [
        {
          "internalType": "uint256",
          "name": "yes",
          "type": "uint256"
        },
        {
          "internalType": "uint256",
          "name": "no",
          "type": "uint256"
        }
      ],
      "name": "approvalRateThresholdReached",
      "outputs": [
        {
          "internalType": "bool",
          "name": "",
          "type": "bool"
        }
      ],
      "stateMutability": "view",
      "type": "function"
    },
    {
      "inputs": [
        {
          "internalType": "uint256",
          "name": "participation",
          "type": "uint256"
        }
      ],
      "name": "participationRateThresholdReached",
      "outputs": [
        {
          "internalType": "bool",
          "name": "",
          "type": "bool"
        }
      ],
      "stateMutability": "view",
      "type": "function"
    },
    {
      "inputs": [
        {
          "internalType": "uint256",
          "name": "amount",
          "type": "uint256"
        }
      ],
      "name": "join",
      "outputs": [],
      "stateMutability": "nonpayable",
      "type": "function"
    },
    {
      "inputs": [
        {
          "internalType": "uint256",
          "name": "amount",
          "type": "uint256"
        }
      ],
      "name": "exit",
      "outputs": [],
      "stateMutability": "nonpayable",
      "type": "function"
    },
    {
      "inputs": [
        {
          "internalType": "contract ILoanToken",
          "name": "loanToken",
          "type": "address"
        }
      ],
      "name": "fund",
      "outputs": [],
      "stateMutability": "nonpayable",
      "type": "function"
    },
    {
      "inputs": [
        {
          "internalType": "contract ILoanToken",
          "name": "loanToken",
          "type": "address"
        }
      ],
      "name": "reclaim",
      "outputs": [],
      "stateMutability": "nonpayable",
      "type": "function"
    },
    {
      "inputs": [
        {
          "internalType": "uint256",
          "name": "currencyAmount",
          "type": "uint256"
        }
      ],
      "name": "flush",
      "outputs": [],
      "stateMutability": "nonpayable",
      "type": "function"
    },
    {
      "inputs": [
        {
          "internalType": "uint256",
          "name": "aAmount",
          "type": "uint256"
        }
      ],
      "name": "pull",
      "outputs": [],
      "stateMutability": "nonpayable",
      "type": "function"
    },
    {
      "inputs": [],
      "name": "poolValue",
      "outputs": [
        {
          "internalType": "uint256",
          "name": "",
          "type": "uint256"
        }
      ],
      "stateMutability": "view",
      "type": "function"
    },
    {
      "inputs": [],
      "name": "getAToken",
      "outputs": [
        {
          "internalType": "contract IAToken",
          "name": "",
          "type": "address"
        }
      ],
      "stateMutability": "view",
      "type": "function"
    },
    {
      "inputs": [
        {
          "internalType": "contract ILoanToken",
          "name": "loan",
          "type": "address"
        }
      ],
      "name": "loanValue",
      "outputs": [
        {
          "internalType": "uint256",
          "name": "",
          "type": "uint256"
        }
      ],
      "stateMutability": "view",
      "type": "function"
    },
    {
      "inputs": [],
      "name": "totalLoansValue",
      "outputs": [
        {
          "internalType": "uint256",
          "name": "",
          "type": "uint256"
        }
      ],
      "stateMutability": "view",
      "type": "function"
    },
    {
      "inputs": [],
      "name": "liquidValue",
      "outputs": [
        {
          "internalType": "uint256",
          "name": "",
          "type": "uint256"
        }
      ],
      "stateMutability": "view",
      "type": "function"
    },
    {
      "inputs": [],
      "name": "aTokenBalance",
      "outputs": [
        {
          "internalType": "uint256",
          "name": "",
          "type": "uint256"
        }
      ],
      "stateMutability": "view",
      "type": "function"
    },
    {
      "inputs": [],
      "name": "aTokenValue",
      "outputs": [
        {
          "internalType": "uint256",
          "name": "",
          "type": "uint256"
        }
      ],
      "stateMutability": "view",
      "type": "function"
    }
  ],
  "bytecode": "0x60806040523480156200001157600080fd5b506040516200369b3803806200369b833981810160405260a08110156200003757600080fd5b508051602080830151604080850151606086015160809096015182518084018452600981526804c6f616e6572204c560bc1b8187019081528451808601909552600685526504d4b4f2d4c560d41b968501969096528051969794969295919390929091620000a99160039190620001df565b508051620000bf906004906020840190620001df565b50506005805460ff191660121790555060016006556000620000e96001600160e01b03620001da16565b600780546001600160a01b0319166001600160a01b038316908117909155604051919250906000907f8be0079c531659141344cd1fd0a4f28419497f9722a3daafe3b4186f6b6457e0908290a350600a80546001600160a01b038088166001600160a01b031992831617909255600b805487841690831617905560098054868416908316179055600d8054848416908316179055600c8054928516929091168217905560408051918252517fe73ec16f0f6043487af9cb91eb14c278096f172773ad13f392cd1f9507c9a8ee9181900360200190a150506103e86011555050611f4060138190556012555062000281565b335b90565b828054600181600116156101000203166002900490600052602060002090601f016020900481019282601f106200022257805160ff191683800117855562000252565b8280016001018555821562000252579182015b828111156200025257825182559160200191906001019062000235565b506200026092915062000264565b5090565b620001dc91905b808211156200026057600081556001016200026b565b61340a80620002916000396000f3fe608060405234801561001057600080fd5b50600436106102745760003560e01c80638da5cb5b11610151578063dcbdce6b116100c3578063e9cbd82211610087578063e9cbd8221461068d578063f2fa12d214610695578063f2fde38b1461069d578063f91f3869146106c3578063fc772c8b146106e0578063fe0ee1151461070657610274565b8063dcbdce6b1461062a578063dd62ed3e14610647578063e348c51814610675578063e668a9151461067d578063e9a377381461068557610274565b8063af4d592711610115578063af4d5927146105ca578063b29c55bc146105d2578063b3d1958d146105da578063b8615071146105f7578063c63942e5146105ff578063dc1fb5a51461062257610274565b80638da5cb5b1461053c57806395d89b411461054457806399c7e2e81461054c578063a457c2d714610572578063a9059cbb1461059e57610274565b806344e5fa79116101ea57806370a08231116101ae57806370a08231146104c2578063715018a6146104e85780637f8661a1146104f057806382967c471461050d5780638c7646f91461052c5780638d68deb21461053457610274565b806344e5fa79146104675780634d0392a81461046f5780634d657df11461048c57806350628140146104945780636b2fa374146104ba57610274565b806318160ddd1161023c57806318160ddd1461039f57806323024408146103b957806323b872dd146103df578063313ce5671461041557806339509351146104335780634339037f1461045f57610274565b8063049878f31461027957806306fdde0314610298578063095ea7b3146103155780630d1166521461035557806315da0b0214610379575b600080fd5b6102966004803603602081101561028f57600080fd5b5035610729565b005b6102a0610859565b6040805160208082528351818301528351919283929083019185019080838360005b838110156102da5781810151838201526020016102c2565b50505050905090810190601f1680156103075780820380516001836020036101000a031916815260200191505b509250505060405180910390f35b6103416004803603604081101561032b57600080fd5b506001600160a01b0381351690602001356108f0565b604080519115158252519081900360200190f35b61035d61090e565b604080516001600160a01b039092168252519081900360200190f35b6102966004803603602081101561038f57600080fd5b50356001600160a01b031661091d565b6103a76109ba565b60408051918252519081900360200190f35b610296600480360360208110156103cf57600080fd5b50356001600160a01b03166109c0565b610341600480360360608110156103f557600080fd5b506001600160a01b03813581169160208101359091169060400135610efa565b61041d610f87565b6040805160ff9092168252519081900360200190f35b6103416004803603604081101561044957600080fd5b506001600160a01b038135169060200135610f90565b6103a7610fe4565b6103a7611053565b6102966004803603602081101561048557600080fd5b5035611059565b6103a761116f565b6103a7600480360360208110156104aa57600080fd5b50356001600160a01b0316611175565b61035d61159c565b6103a7600480360360208110156104d857600080fd5b50356001600160a01b03166115ab565b6102966115c6565b6102966004803603602081101561050657600080fd5b5035611672565b6102966004803603602081101561052357600080fd5b503515156119d4565b610341611a93565b61035d611aa3565b61035d611ab2565b6102a0611ac1565b6102966004803603602081101561056257600080fd5b50356001600160a01b0316611b22565b6103416004803603604081101561058857600080fd5b506001600160a01b038135169060200135611bbf565b610341600480360360408110156105b457600080fd5b506001600160a01b038135169060200135611c2d565b6103a7611c41565b61035d611cc8565b610296600480360360208110156105f057600080fd5b5035611dd1565b6103a76120a7565b6103416004803603604081101561061557600080fd5b50803590602001356120c1565b61035d6120f5565b6103416004803603602081101561064057600080fd5b5035612104565b6103a76004803603604081101561065d57600080fd5b506001600160a01b038135811691602001351661210c565b6103a7612137565b61035d61213d565b6103a761214c565b61035d6121a1565b6103a76121b0565b610296600480360360208110156106b357600080fd5b50356001600160a01b03166121c5565b610296600480360360208110156106d957600080fd5b50356122c8565b610296600480360360208110156106f657600080fd5b50356001600160a01b031661234c565b6103416004803603604081101561071c57600080fd5b50803590602001356127da565b600d54600160a01b900460ff16156107725760405162461bcd60e51b815260040180806020018281038252602681526020018061335c6026913960400191505060405180910390fd5b600061077d8261280b565b326000908152600e60209081526040808320439055600b5481516323b872dd60e01b81523360048201523060248201526044810188905291519495506001600160a01b0316936323b872dd93606480840194938390030190829087803b1580156107e657600080fd5b505af11580156107fa573d6000803e3d6000fd5b505050506040513d602081101561081057600080fd5b505161081b57600080fd5b6040805183815260208101839052815133927f16a5410c80ce4d4082839ea17ff9fae01b3924da3e586c0e4ba3cdb1c9f7dae2928290030190a25050565b60038054604080516020601f60026000196101006001881615020190951694909404938401819004810282018101909252828152606093909290918301828280156108e55780601f106108ba576101008083540402835291602001916108e5565b820191906000526020600020905b8154815290600101906020018083116108c857829003601f168201915b505050505090505b90565b60006109046108fd61284e565b8484612852565b5060015b92915050565b600c546001600160a01b031681565b600d546001600160a01b031633146109665760405162461bcd60e51b8152600401808060200182810382526029815260200180612f636029913960400191505060405180910390fd5b600980546001600160a01b0383166001600160a01b0319909116811790915560408051918252517fd7d8a202347cf9690a2262c553544cd1de4ee2144020d4c611b6e24dbfdfdb6c9181900360200190a150565b60025490565b336001600160a01b0316816001600160a01b0316637df1f1b96040518163ffffffff1660e01b815260040160206040518083038186803b158015610a0357600080fd5b505afa158015610a17573d6000803e3d6000fd5b505050506040513d6020811015610a2d57600080fd5b50516001600160a01b031614610a745760405162461bcd60e51b815260040180806020018281038252602281526020018061302d6022913960400191505060405180910390fd5b806001600160a01b0316636e31d80a6040518163ffffffff1660e01b815260040160206040518083038186803b158015610aad57600080fd5b505afa158015610ac1573d6000803e3d6000fd5b505050506040513d6020811015610ad757600080fd5b5051610b145760405162461bcd60e51b815260040180806020018281038252602981526020018061313d6029913960400191505060405180910390fd5b600b5460408051631acbe8dd60e21b815290516001600160a01b0392831692841691636b2fa374916004808301926020929190829003018186803b158015610b5b57600080fd5b505afa158015610b6f573d6000803e3d6000fd5b505050506040513d6020811015610b8557600080fd5b50516001600160a01b031614610bcc5760405162461bcd60e51b815260040180806020018281038252603b815260200180613255603b913960400191505060405180910390fd5b6000816001600160a01b031663a5ea11da6040518163ffffffff1660e01b815260040160606040518083038186803b158015610c0757600080fd5b505afa158015610c1b573d6000803e3d6000fd5b505050506040513d6060811015610c3157600080fd5b505160095460408051630a17895360e31b81526001600160a01b03868116600483015291519394506000938493849316916350bc4a98916024808301926060929190829003018186803b158015610c8757600080fd5b505afa158015610c9b573d6000803e3d6000fd5b505050506040513d6060811015610cb157600080fd5b50805160208201516040909201519094509092509050610cd184826127da565b610d0c5760405162461bcd60e51b815260040180806020018281038252602f815260200180613187602f913960400191505060405180910390fd5b610d1583612104565b610d505760405162461bcd60e51b81526004018080602001828103825260368152602001806130756036913960400191505060405180910390fd5b610d5a81836120c1565b610d955760405162461bcd60e51b81526004018080602001828103825260368152602001806131fe6036913960400191505060405180910390fd5b6008805460018101825560009182527ff3f7a9fe364faab93b216da50a3214154f22a0a2b415b23a84c8169e8b636ee30180546001600160a01b0319166001600160a01b03888116918217909255600b546040805163095ea7b360e01b81526004810193909352602483018990525192169263095ea7b3926044808401936020939083900390910190829087803b158015610e2f57600080fd5b505af1158015610e43573d6000803e3d6000fd5b505050506040513d6020811015610e5957600080fd5b5050604080516316c1a85160e31b815290516001600160a01b0387169163b60d428891600480830192600092919082900301818387803b158015610e9c57600080fd5b505af1158015610eb0573d6000803e3d6000fd5b50506040805187815290516001600160a01b03891693507f5af8184bef8e4b45eb9f6ed7734d04da38ced226495548f46e0c8ff8d7d9a52492509081900360200190a25050505050565b6000610f0784848461293e565b610f7d84610f1361284e565b610f78856040518060600160405280602881526020016131b6602891396001600160a01b038a16600090815260016020526040812090610f5161284e565b6001600160a01b03168152602081019190915260400160002054919063ffffffff612aa516565b612852565b5060019392505050565b60055460ff1690565b6000610904610f9d61284e565b84610f788560016000610fae61284e565b6001600160a01b03908116825260208083019390935260409182016000908120918c16815292529020549063ffffffff612b3c16565b600f5460009060ff1615610ffb57506010546108ed565b6000805b60085481101561104d576110436110366008838154811061101c57fe5b6000918252602090912001546001600160a01b0316611175565b839063ffffffff612b3c16565b9150600101610fff565b50905090565b60115481565b61106161284e565b6001600160a01b0316611072611ab2565b6001600160a01b0316146110bb576040805162461bcd60e51b815260206004820181905260248201526000805160206131de833981519152604482015290519081900360640190fd5b6110c361214c565b8111156111015760405162461bcd60e51b815260040180806020018281038252602781526020018061330e6027913960400191505060405180910390fd5b600061110b611cc8565b9050806001600160a01b031663db006a75836040518263ffffffff1660e01b815260040180828152602001915050600060405180830381600087803b15801561115357600080fd5b505af1158015611167573d6000803e3d6000fd5b505050505050565b60135481565b604080516370a0823160e01b8152306004820152905160009182916001600160a01b038516916370a08231916024808301926020929190829003018186803b1580156111c057600080fd5b505afa1580156111d4573d6000803e3d6000fd5b505050506040513d60208110156111ea57600080fd5b50519050806111fd576000915050611597565b6000611274846001600160a01b031663be9a65556040518163ffffffff1660e01b815260040160206040518083038186803b15801561123b57600080fd5b505afa15801561124f573d6000803e3d6000fd5b505050506040513d602081101561126557600080fd5b5051429063ffffffff612b9d16565b9050836001600160a01b031663a10ffbed6040518163ffffffff1660e01b815260040160206040518083038186803b1580156112af57600080fd5b505afa1580156112c3573d6000803e3d6000fd5b505050506040513d60208110156112d957600080fd5b505181111561134a57836001600160a01b031663a10ffbed6040518163ffffffff1660e01b815260040160206040518083038186803b15801561131b57600080fd5b505afa15801561132f573d6000803e3d6000fd5b505050506040513d602081101561134557600080fd5b505190505b60006114408361143484611434896001600160a01b0316633bcfc4b86040518163ffffffff1660e01b815260040160206040518083038186803b15801561139057600080fd5b505afa1580156113a4573d6000803e3d6000fd5b505050506040513d60208110156113ba57600080fd5b505160408051632aa3085f60e21b815290516001600160a01b038d169163aa8c217c916004808301926020929190829003018186803b1580156113fc57600080fd5b505afa158015611410573d6000803e3d6000fd5b505050506040513d602081101561142657600080fd5b50519063ffffffff612bfa16565b9063ffffffff612bfa16565b905060006114d0866001600160a01b0316630dca59c16040518163ffffffff1660e01b815260040160206040518083038186803b15801561148057600080fd5b505afa158015611494573d6000803e3d6000fd5b505050506040513d60208110156114aa57600080fd5b50516114c461271081866301e1338063ffffffff612c5316565b9063ffffffff612c5316565b905061159081611584886001600160a01b0316630dca59c16040518163ffffffff1660e01b815260040160206040518083038186803b15801561151257600080fd5b505afa158015611526573d6000803e3d6000fd5b505050506040513d602081101561153c57600080fd5b505160408051632aa3085f60e21b815290516114c4918a916001600160a01b038e169163aa8c217c916004808301926020929190829003018186803b1580156113fc57600080fd5b9063ffffffff612b3c16565b9450505050505b919050565b600b546001600160a01b031690565b6001600160a01b031660009081526020819052604090205490565b6115ce61284e565b6001600160a01b03166115df611ab2565b6001600160a01b031614611628576040805162461bcd60e51b815260206004820181905260248201526000805160206131de833981519152604482015290519081900360640190fd5b6007546040516000916001600160a01b0316907f8be0079c531659141344cd1fd0a4f28419497f9722a3daafe3b4186f6b6457e0908390a3600780546001600160a01b0319169055565b600260065414156116ca576040805162461bcd60e51b815260206004820152601f60248201527f5265656e7472616e637947756172643a207265656e7472616e742063616c6c00604482015290519081900360640190fd5b60026006556116d7610fe4565b601055600f805460ff19166001179055326000908152600e60205260409020544314156117355760405162461bcd60e51b815260040180806020018281038252602e815260200180613382602e913960400191505060405180910390fd5b61173e336115ab565b811115611792576040805162461bcd60e51b815260206004820152601e60248201527f4c6f616e6572506f6f6c3a20696e73756666696369656e742066756e64730000604482015290519081900360640190fd5b60006117ab61179f6109ba565b6114c4846114346120a7565b90506117b56121b0565b8111156117f35760405162461bcd60e51b81526004018080602001828103825260288152602001806131156028913960400191505060405180910390fd5b6117fd3383612cba565b611805612dc2565b8111156118fd576000611826611819612dc2565b839063ffffffff612b9d16565b90506000611832611cc8565b9050806001600160a01b031663db006a75611866611859611851611c41565b6114c461214c565b859063ffffffff612bfa16565b6040518263ffffffff1660e01b815260040180828152602001915050600060405180830381600087803b15801561189c57600080fd5b505af11580156118b0573d6000803e3d6000fd5b505050506118bc612dc2565b8311156118fa5760405162461bcd60e51b81526004018080602001828103825260368152602001806130ab6036913960400191505060405180910390fd5b50505b600b546040805163a9059cbb60e01b81523360048201526024810184905290516001600160a01b039092169163a9059cbb916044808201926020929091908290030181600087803b15801561195157600080fd5b505af1158015611965573d6000803e3d6000fd5b505050506040513d602081101561197b57600080fd5b505161198657600080fd5b60408051828152905133917f920bb94eb3842a728db98228c375ff6b00c5bc5a54fac6736155517a0a20a61a919081900360200190a25050600f805460ff1916905560006010556001600655565b6119dc611ab2565b6001600160a01b0316336001600160a01b03161480611a055750600c546001600160a01b031633145b611a405760405162461bcd60e51b81526004018080602001828103825260358152602001806132d96035913960400191505060405180910390fd5b600d8054821515600160a01b810260ff60a01b199092169190911790915560408051918252517f6a147bcbe06eaf6543da2b36bda52729a5da9daed5086311758cb80ffec18b079181900360200190a150565b600d54600160a01b900460ff1681565b600a546001600160a01b031681565b6007546001600160a01b031690565b60048054604080516020601f60026000196101006001881615020190951694909404938401819004810282018101909252828152606093909290918301828280156108e55780601f106108ba576101008083540402835291602001916108e5565b600d546001600160a01b03163314611b6b5760405162461bcd60e51b8152600401808060200182810382526029815260200180612f636029913960400191505060405180910390fd5b600c80546001600160a01b0383166001600160a01b0319909116811790915560408051918252517fe73ec16f0f6043487af9cb91eb14c278096f172773ad13f392cd1f9507c9a8ee9181900360200190a150565b6000610904611bcc61284e565b84610f78856040518060600160405280602581526020016133b06025913960016000611bf661284e565b6001600160a01b03908116825260208083019390935260409182016000908120918d1681529252902054919063ffffffff612aa516565b6000610904611c3a61284e565b848461293e565b600080611c4c611cc8565b604080516370a0823160e01b815230600482015290519192506001600160a01b038316916370a0823191602480820192602092909190829003018186803b158015611c9657600080fd5b505afa158015611caa573d6000803e3d6000fd5b505050506040513d6020811015611cc057600080fd5b505191505090565b600080600a60009054906101000a90046001600160a01b03166001600160a01b0316630261bf8b6040518163ffffffff1660e01b815260040160206040518083038186803b158015611d1957600080fd5b505afa158015611d2d573d6000803e3d6000fd5b505050506040513d6020811015611d4357600080fd5b5051600b54604080516335ea6a7560e01b81526001600160a01b0392831660048201529051929350600092918416916335ea6a75916024808201926101a092909190829003018186803b158015611d9957600080fd5b505afa158015611dad573d6000803e3d6000fd5b505050506040513d6101a0811015611dc457600080fd5b5061016001519250505090565b611dd961284e565b6001600160a01b0316611dea611ab2565b6001600160a01b031614611e33576040805162461bcd60e51b815260206004820181905260248201526000805160206131de833981519152604482015290519081900360640190fd5b611e3b612dc2565b811115611e8f576040805162461bcd60e51b815260206004820181905260248201527f4c6f616e6572506f6f6c3a20496e73756666696369656e742042616c616e6365604482015290519081900360640190fd5b600a5460408051630261bf8b60e01b815290516000926001600160a01b031691630261bf8b916004808301926020929190829003018186803b158015611ed457600080fd5b505afa158015611ee8573d6000803e3d6000fd5b505050506040513d6020811015611efe57600080fd5b5051600a546040805163076b7fbb60e51b815290519293506000926001600160a01b039092169163ed6ff76091600480820192602092909190829003018186803b158015611f4b57600080fd5b505afa158015611f5f573d6000803e3d6000fd5b505050506040513d6020811015611f7557600080fd5b5051600b546040805163095ea7b360e01b81526001600160a01b03808516600483015260248201889052915193945091169163095ea7b3916044808201926020929091908290030181600087803b158015611fcf57600080fd5b505af1158015611fe3573d6000803e3d6000fd5b505050506040513d6020811015611ff957600080fd5b5050600b5460408051636968703360e11b81526001600160a01b0392831660048201526024810186905260006044820181905291519285169263d2d0e0669260648084019391929182900301818387803b15801561205657600080fd5b505af115801561206a573d6000803e3d6000fd5b50506040805186815290517fed1eeda1fde9cc22a2ecf41efc0d6cf519c1d95184b36b93b4cd4877881488ee9350908190036020019150a1505050565b60006120bc6120b4610fe4565b6115846121b0565b905090565b6013546000906120ec6120da858563ffffffff612b3c16565b6114c48661271063ffffffff612bfa16565b10159392505050565b6009546001600160a01b031681565b601254111590565b6001600160a01b03918216600090815260016020908152604080832093909416825291909152205490565b60125481565b600d546001600160a01b031681565b600080612157611cc8565b6040805163631a6fd560e11b815230600482015290519192506001600160a01b0383169163c634dfaa91602480820192602092909190829003018186803b158015611c9657600080fd5b600b546001600160a01b031681565b60006120bc6121bd611c41565b611584612dc2565b6121cd61284e565b6001600160a01b03166121de611ab2565b6001600160a01b031614612227576040805162461bcd60e51b815260206004820181905260248201526000805160206131de833981519152604482015290519081900360640190fd5b6001600160a01b03811661226c5760405162461bcd60e51b8152600401808060200182810382526026815260200180612fe56026913960400191505060405180910390fd5b6007546040516001600160a01b038084169216907f8be0079c531659141344cd1fd0a4f28419497f9722a3daafe3b4186f6b6457e090600090a3600780546001600160a01b0319166001600160a01b0392909216919091179055565b600d546001600160a01b031633146123115760405162461bcd60e51b8152600401808060200182810382526029815260200180612f636029913960400191505060405180910390fd5b60118190556040805182815290517faa7021e7e742a4202060dcb401d1ae31b56926da2226d122a41b533c734d0ca89181900360200190a150565b806001600160a01b0316636e31d80a6040518163ffffffff1660e01b815260040160206040518083038186803b15801561238557600080fd5b505afa158015612399573d6000803e3d6000fd5b505050506040513d60208110156123af57600080fd5b50516123ec5760405162461bcd60e51b81526004018080602001828103825260348152602001806130e16034913960400191505060405180910390fd5b6000816001600160a01b031663200d2ed26040518163ffffffff1660e01b815260040160206040518083038186803b15801561242757600080fd5b505afa15801561243b573d6000803e3d6000fd5b505050506040513d602081101561245157600080fd5b50519050600381600481111561246357fe5b10156124a05760405162461bcd60e51b81526004018080602001828103825260278152602001806133356027913960400191505060405180910390fd5b600b54604080516370a0823160e01b815230600482015290516000926001600160a01b0316916370a08231916024808301926020929190829003018186803b1580156124eb57600080fd5b505afa1580156124ff573d6000803e3d6000fd5b505050506040513d602081101561251557600080fd5b5051604080516370a0823160e01b815230600482015290519192506001600160a01b0385169163db006a759183916370a0823191602480820192602092909190829003018186803b15801561256957600080fd5b505afa15801561257d573d6000803e3d6000fd5b505050506040513d602081101561259357600080fd5b5051604080516001600160e01b031960e085901b168152600481019290925251602480830192600092919082900301818387803b1580156125d357600080fd5b505af11580156125e7573d6000803e3d6000fd5b5050600b54604080516370a0823160e01b81523060048201529051600094506001600160a01b0390921692506370a08231916024808301926020929190829003018186803b15801561263857600080fd5b505afa15801561264c573d6000803e3d6000fd5b505050506040513d602081101561266257600080fd5b505190506000612678828463ffffffff612b9d16565b905060005b60085481101561279f57856001600160a01b03166008828154811061269e57fe5b6000918252602090912001546001600160a01b03161415612797576008805460001981019081106126cb57fe5b600091825260209091200154600880546001600160a01b0390921691839081106126f157fe5b9060005260206000200160006101000a8154816001600160a01b0302191690836001600160a01b03160217905550600880548061272a57fe5b6000828152602090819020820160001990810180546001600160a01b03191690559091019091556040805184815290516001600160a01b038916927fcab347be18c8c37ef504626a027a12ea6725f491b5f5b154778d8d0c54f7841e928290030190a250505050506127d7565b60010161267d565b5060405162461bcd60e51b8152600401808060200182810382526037815260200180612f8c6037913960400191505060405180910390fd5b50565b60006127ee8261271063ffffffff612bfa16565b60115461280290859063ffffffff612bfa16565b11159392505050565b6000818061281a579050611597565b60006128246109ba565b1115612844576128416128356120a7565b6114c4856114346109ba565b90505b6109083382612e3e565b3390565b6001600160a01b0383166128975760405162461bcd60e51b81526004018080602001828103825260248152602001806132b56024913960400191505060405180910390fd5b6001600160a01b0382166128dc5760405162461bcd60e51b815260040180806020018281038252602281526020018061300b6022913960400191505060405180910390fd5b6001600160a01b03808416600081815260016020908152604080832094871680845294825291829020859055815185815291517f8c5be1e5ebec7d5bd14f71427d1e84f3dd0314c0f7b2291e5b200ac8c7c3b9259281900390910190a3505050565b6001600160a01b0383166129835760405162461bcd60e51b81526004018080602001828103825260258152602001806132906025913960400191505060405180910390fd5b6001600160a01b0382166129c85760405162461bcd60e51b8152600401808060200182810382526023815260200180612f406023913960400191505060405180910390fd5b6129d3838383612f3a565b612a168160405180606001604052806026815260200161304f602691396001600160a01b038616600090815260208190526040902054919063ffffffff612aa516565b6001600160a01b038085166000908152602081905260408082209390935590841681522054612a4b908263ffffffff612b3c16565b6001600160a01b038084166000818152602081815260409182902094909455805185815290519193928716927fddf252ad1be2c89b69c2b068fc378daa952ba7f163c4a11628f55a4df523b3ef92918290030190a3505050565b60008184841115612b345760405162461bcd60e51b81526004018080602001828103825283818151815260200191508051906020019080838360005b83811015612af9578181015183820152602001612ae1565b50505050905090810190601f168015612b265780820380516001836020036101000a031916815260200191505b509250505060405180910390fd5b505050900390565b600082820183811015612b96576040805162461bcd60e51b815260206004820152601b60248201527f536166654d6174683a206164646974696f6e206f766572666c6f770000000000604482015290519081900360640190fd5b9392505050565b600082821115612bf4576040805162461bcd60e51b815260206004820152601e60248201527f536166654d6174683a207375627472616374696f6e206f766572666c6f770000604482015290519081900360640190fd5b50900390565b600082612c0957506000610908565b82820282848281612c1657fe5b0414612b965760405162461bcd60e51b81526004018080602001828103825260218152602001806131666021913960400191505060405180910390fd5b6000808211612ca9576040805162461bcd60e51b815260206004820152601a60248201527f536166654d6174683a206469766973696f6e206279207a65726f000000000000604482015290519081900360640190fd5b818381612cb257fe5b049392505050565b6001600160a01b038216612cff5760405162461bcd60e51b81526004018080602001828103825260218152602001806132346021913960400191505060405180910390fd5b612d0b82600083612f3a565b612d4e81604051806060016040528060228152602001612fc3602291396001600160a01b038516600090815260208190526040902054919063ffffffff612aa516565b6001600160a01b038316600090815260208190526040902055600254612d7a908263ffffffff612b9d16565b6002556040805182815290516000916001600160a01b038516917fddf252ad1be2c89b69c2b068fc378daa952ba7f163c4a11628f55a4df523b3ef9181900360200190a35050565b600b54604080516370a0823160e01b815230600482015290516000926001600160a01b0316916370a08231916024808301926020929190829003018186803b158015612e0d57600080fd5b505afa158015612e21573d6000803e3d6000fd5b505050506040513d6020811015612e3757600080fd5b5051905090565b6001600160a01b038216612e99576040805162461bcd60e51b815260206004820152601f60248201527f45524332303a206d696e7420746f20746865207a65726f206164647265737300604482015290519081900360640190fd5b612ea560008383612f3a565b600254612eb8908263ffffffff612b3c16565b6002556001600160a01b038216600090815260208190526040902054612ee4908263ffffffff612b3c16565b6001600160a01b0383166000818152602081815260408083209490945583518581529351929391927fddf252ad1be2c89b69c2b068fc378daa952ba7f163c4a11628f55a4df523b3ef9281900390910190a35050565b50505056fe45524332303a207472616e7366657220746f20746865207a65726f20616464726573734c6f616e6572506f6f6c3a2043616c6c6572206973206e6f74204c6f616e657220636f6e74726163744c6f616e6572506f6f6c3a2054686973206c6f616e20686173206e6f74206265656e2066756e64656420627920746865206c656e64657245524332303a206275726e20616d6f756e7420657863656564732062616c616e63654f776e61626c653a206e6577206f776e657220697320746865207a65726f206164647265737345524332303a20617070726f766520746f20746865207a65726f20616464726573734c6f616e6572506f6f6c3a2053656e646572206973206e6f7420626f72726f77657245524332303a207472616e7366657220616d6f756e7420657863656564732062616c616e63654c6f616e6572506f6f6c3a204e6f7420656e6f75676820636f6d6d756e697479206d616e6167657273207061727469636970617465644c6f616e6572506f6f6c3a204e6f7420656e6f7567682066756e647320776572652077697468647261776e2066726f6d204d6f6f6c614c6f616e6572506f6f6c3a204f6e6c79204c6f616e546f6b656e732063616e206265207573656420746f207265636c61696d65644c6f616e6572506f6f6c3a204e6f7420656e6f756768206c697175696469747920696e20706f6f6c4c6f616e6572506f6f6c3a204f6e6c79204c6f616e546f6b656e732063616e2062652066756e646564536166654d6174683a206d756c7469706c69636174696f6e206f766572666c6f774c6f616e6572506f6f6c3a204e6f7420656e6f75676820766f74657320676976656e20666f7220746865206c6f616e45524332303a207472616e7366657220616d6f756e74206578636565647320616c6c6f77616e63654f776e61626c653a2063616c6c6572206973206e6f7420746865206f776e65724c6f616e6572506f6f6c3a204c6f616e20646f6573206e6f74206861766520656e6f75676820617070726f76616c20726174696e677345524332303a206275726e2066726f6d20746865207a65726f20616464726573734c6f616e6572506f6f6c3a204f6e6c79207468652073616d652063757272656e6379204c6f616e546f6b656e732063616e2062652066756e64656445524332303a207472616e736665722066726f6d20746865207a65726f206164647265737345524332303a20617070726f76652066726f6d20746865207a65726f20616464726573734c6f616e6572506f6f6c3a2043616c6c6572206973206e656974686572206f776e6572206e6f722066756e6473206d616e616765724c6f616e6572506f6f6c3b20496e73756666696369656e742061546f6b656e2042616c616e63654c6f616e6572506f6f6c3a204c6f616e546f6b656e206973206e6f7420636c6f736564207965744c6f616e6572506f6f6c3a204a6f696e696e672074686520706f6f6c206973207061757365644c6f616e6572506f6f6c3a2043616e6e6f74206a6f696e20616e64206578697420696e2073616d6520626c6f636b45524332303a2064656372656173656420616c6c6f77616e63652062656c6f77207a65726fa26469706673582212204e2858cce97f174a9428bcfc6a5d071be291e797f7c74a693e29e0d5c326a83b64736f6c634300060a0033",
  "immutableReferences": {},
  "source": "// SPDX-License-Identifier: Apache-2.0\npragma solidity ^0.6.10;\n\nimport {IERC20} from \"@openzeppelin/contracts/token/ERC20/IERC20.sol\";\nimport {ERC20} from \"@openzeppelin/contracts/token/ERC20/ERC20.sol\";\nimport {ReentrancyGuard} from \"@openzeppelin/contracts/utils/ReentrancyGuard.sol\";\nimport {Ownable} from \"@openzeppelin/contracts/access/Ownable.sol\";\nimport {SafeMath} from \"@openzeppelin/contracts/math/SafeMath.sol\";\n\nimport {ILendingPoolAddressesProvider} from \"../interfaces/ILendingPoolAddressesProvider.sol\";\nimport {ILendingPool} from \"../interfaces/ILendingPool.sol\";\nimport {IAToken} from \"../interfaces/IAToken.sol\";\nimport {ILoanToken} from \"../interfaces/ILoanToken.sol\";\nimport {ICommunity} from \"../interfaces/ICommunity.sol\";\n\ncontract LoanerPool is ERC20, ReentrancyGuard, Ownable {\n    using SafeMath for uint256;\n    \n    ILoanToken[] _loans;\n\n    ICommunity public community;\n    ILendingPoolAddressesProvider public moolaAddressesProvider;\n    IERC20 public stablecoin;\n\n    // fund manager, usually the community manager\n    address public fundsManager;\n    // loaner address \n    address public loanerAddress;\n    // controlling deposits to pool\n    bool public isJoiningPaused;\n\n    mapping(address => uint256) latestJoinBlock;\n\n    // cache values during sync for gas optimization\n    bool private inSync;\n    uint256 private loansValueCache;\n\n    // // ===== Pool parameters =====\n\n    // // bound APY\n    // uint256 public minApy;\n    // uint256 public maxApy;\n\n    // // bound on min & max loan sizes\n    // uint256 public minSize;\n    // uint256 public maxSize;\n\n    // size of approval stake in for the loan\n    uint256 public participationSize;\n\n    // amount of participation from community managers\n    uint256 public participationRate;\n\n    // ratio of approve and reject from community managers\n    uint256 public approvalRate;\n\n    // // bound in min & max loan terms\n    // uint256 public minTerm;\n    // uint256 public maxTerm;\n\n    // // maximum amount of loans lender can handle at once\n    // uint256 public maxLoans;\n\n    // ==== Events ====\n\n    /**\n     * @dev Emitted when someone joins the pool\n     * @param staker Account staking\n     * @param deposited Amount deposited\n     * @param minted Amount of pool tokens minted\n     */\n    event Joined(address indexed staker, uint256 deposited, uint256 minted);\n\n    /**\n     * @dev Emitted when someone exits the pool\n     * @param staker Account exiting\n     * @param amount Amount unstaking\n     */\n    event Exited(address indexed staker, uint256 amount);\n\n    /**\n     * @dev Emitted when funds are flushed into moola markets\n     * @param currencyAmount Amount of tokens deposited\n     */\n    event Flushed(uint256 currencyAmount);\n\n\n    /**\n     * @dev Emitted when funds are pulled from moola markets\n     * @param aAmount Amount of atokens\n     */\n    event Pulled(uint256 aAmount);\n\n    /**\n     * @dev Emitted when joining is paused or unpaused\n     * @param isJoiningPaused New pausing status\n     */\n    event JoiningPauseStatusChanged(bool isJoiningPaused);\n\n    /**\n     * @dev Emitted when funds manager is changed\n     * @param newManager New manager address\n     */\n    event FundsManagerChanged(address newManager);\n\n    // /**\n    //  * @dev Emitted when APY bounds have changed\n    //  * @param minApy New minimum APY\n    //  * @param maxApy New maximum APY\n    //  */\n    // event ApyLimitsChanged(uint256 minApy, uint256 maxApy);\n\n    /**\n     * @dev Emitted when participation size changed\n     * @param participationSize New participation size\n     */\n    event ParticipationSizeChanged(uint256 participationSize);\n\n    // /**\n    //  * @dev Emitted when the loan size bounds are changed\n    //  * @param minSize New minimum loan size\n    //  * @param maxSize New maximum loan size\n    //  */\n    // event SizeLimitsChanged(uint256 minSize, uint256 maxSize);\n\n    // /**\n    //  * @dev Emitted when loan term bounds are changed\n    //  * @param minTerm New minimum loan term\n    //  * @param maxTerm New minimum loan term\n    //  */\n    // event TermLimitsChanged(uint256 minTerm, uint256 maxTerm);\n\n    // /**\n    //  * @dev Emitted when loans limit is changed\n    //  * @param maxLoans new maximum amount of loans\n    //  */\n    // event LoansLimitChanged(uint256 maxLoans);\n\n    /**\n     * @dev Emitted when a loan is funded\n     * @param loanToken LoanToken contract which was funded\n     * @param amount Amount funded\n     */\n    event Funded(address indexed loanToken, uint256 amount);\n\n    /**\n     * @dev Emitted when funds are reclaimed from the LoanToken contract\n     * @param loanToken LoanToken from which funds were reclaimed\n     * @param amount Amount repaid\n     */\n    event Reclaimed(address indexed loanToken, uint256 amount);\n\n    /**\n     * @dev Emitted when community contract is changed\n     * @param newCommunity Address of new community pool is assigned to\n     */\n    event CommunityChanged(address newCommunity);\n\n    /**\n     * @dev pool can only be joined when it's unpaused\n     */\n    modifier joiningNotPaused() {\n        require(!isJoiningPaused, \"LoanerPool: Joining the pool is paused\");\n        _;\n    }\n\n    /**\n     * @dev only lender can perform borrowing or repaying\n     */\n    modifier onlyOwnerOrManager() {\n        require(msg.sender == owner() || msg.sender == fundsManager, \"LoanerPool: Caller is neither owner nor funds manager\");\n        _;\n    }\n\n    /**\n     * @dev only loaner contract can set fund manager and pool parameters\n     */\n    modifier onlyLoaner() {\n        require(msg.sender == loanerAddress, \"LoanerPool: Caller is not Loaner contract\");\n        _;\n    }\n\n    /**\n     * Sync values to avoid making expensive calls multiple times\n     * Will set inSync to true, allowing getter functions to return cached values\n     * Wipes cached values to save gas\n     */\n    modifier sync() {\n        // sync\n        loansValueCache = totalLoansValue();\n        inSync = true;\n        _;\n        // wipe\n        inSync = false;\n        loansValueCache = 0;\n    }\n\n    constructor(\n        address _moolaAddressesProviderAddress,\n        address _stablecoinAddress,\n        address _community,\n        address _fundsManager,\n        address _loanerAddress\n    ) public ERC20(\"Loaner LP\", \"MKO-LP\") {\n        moolaAddressesProvider = ILendingPoolAddressesProvider(_moolaAddressesProviderAddress);\n        stablecoin = IERC20(_stablecoinAddress);\n        community = ICommunity(_community);\n        loanerAddress = _loanerAddress;\n        fundsManager = _fundsManager;\n        FundsManagerChanged(_fundsManager);\n\n\n        // minApy = 1000;\n        // maxApy = 3000;\n        participationSize = 1000;\n        approvalRate = 8000;\n        participationRate = 8000;\n        // minSize = 1000 ether;\n        // maxSize = 10000000 ether;\n        // minTerm = 182 days;\n        // maxTerm = 3650 days;\n\n        // maxLoans = 100;\n    }\n\n    /**\n     * @dev get currency token\n     * @return currency token\n     */\n    function currencyToken() public view returns (IERC20) {\n        return stablecoin;\n    }\n\n    // /**\n    //  * @dev Set new bounds on loan size. Only owner can change parameters.\n    //  * @param min New minimum loan size\n    //  * @param max New maximum loan size\n    //  */\n    // function setSizeLimits(uint256 min, uint256 max) external onlyOwnerOrManager {\n    //     require(min > 0, \"LoanerPool: Minimal loan size cannot be 0\");\n    //     require(max >= min, \"LoanerPool: Maximal loan size is smaller than minimal\");\n    //     minSize = min;\n    //     maxSize = max;\n    //     emit SizeLimitsChanged(min, max);\n    // }\n\n    // /**\n    //  * @dev Set new bounds on loan term length. Only owner can change parameters.\n    //  * @param min New minimum loan term\n    //  * @param max New maximum loan term\n    //  */\n    // function setTermLimits(uint256 min, uint256 max) external onlyOwnerOrManager {\n    //     require(max >= min, \"LoanerPool: Maximal loan term is smaller than minimal\");\n    //     minTerm = min;\n    //     maxTerm = max;\n    //     emit TermLimitsChanged(min, max);\n    // }\n\n    // /**\n    //  * @dev Set new bounds on loan APY. Only owner can change parameters.\n    //  * @param newMinApy New minimum loan APY\n    //  * @param newMaxApy New maximum loan APY\n    //  */\n    // function setApyLimits(uint256 newMinApy, uint256 newMaxApy) external onlyOwnerOrManager {\n    //     require(newMaxApy >= newMinApy, \"LoanerPool: Maximal APY is smaller than minimal\");\n    //     minApy = newMinApy;\n    //     maxApy = newMaxApy;\n    //     emit ApyLimitsChanged(newMinApy, newMaxApy);\n    // }\n\n    /**\n     * @dev Set new participation size. Only owner can change parameters.\n     * @param newParticipationSize New participation size.\n     */\n    function setParticipationSize(uint256 newParticipationSize) external onlyLoaner {\n        participationSize = newParticipationSize;\n        emit ParticipationSizeChanged(newParticipationSize);\n    }\n\n    // /**\n    //  * @dev Set new loans limit. Only owner can change parameters.\n    //  * @param newLoansLimit New loans limit\n    //  */\n    // function setLoansLimit(uint256 newLoansLimit) external onlyOwnerOrManager {\n    //     maxLoans = newLoansLimit;\n    //     emit LoansLimitChanged(maxLoans);\n    // }\n\n    /**\n     * @dev Set new community. Only owner can change parameters.\n     * @param newCommunity New community.\n     */\n    function setCommunity(ICommunity newCommunity) external onlyLoaner {\n        community = newCommunity;\n        emit CommunityChanged(address(newCommunity));\n    }\n    \n    /**\n     * @dev set funds manager address\n     * @param newFundsManager New funds manager.\n     */\n    function setFundsManager(address newFundsManager) external onlyLoaner {\n        fundsManager = newFundsManager;\n        emit FundsManagerChanged(newFundsManager);\n    }\n\n    /**\n     * @dev Allow pausing of deposits in case of emergency\n     * @param status New deposit status\n     */\n    function changeJoiningPauseStatus(bool status) external onlyOwnerOrManager {\n        isJoiningPaused = status;\n        emit JoiningPauseStatusChanged(status);\n    }\n\n    /**\n     * @dev Minimum absolute value of yes votes, rather than ratio of yes to no\n     * @param amount Size of loan\n     * @param yesVotes Number of yes votes\n     * @return Whether a loan has reached the required voting threshold\n     */\n    function votesThresholdReached(uint256 amount, uint256 yesVotes) public view returns (bool) {\n        return amount.mul(participationSize) <= yesVotes.mul(10000);\n    }\n\n    /**\n     * @dev Minimum ratio of yes to no\n     * @param yes number of approval votes\n     * @param no number of reject votes\n     * @return Whether a loan has reached minimum yes to no ratio\n     */\n    function approvalRateThresholdReached(uint256 yes, uint256 no) public view returns (bool) {\n        return yes.mul(10000).div(yes.add(no)) >= approvalRate;\n    }\n    \n    /**\n     * @dev Minimum participation rate from the community managers\n     * @param participation ration of managers participating in the voting\n     * @return Whether the loan reached the minimum participation rate\n     */\n    function participationRateThresholdReached(uint256 participation) public view returns (bool) {\n        return participation >= participationRate;\n    }\n\n    /**\n     * @dev Join the pool by depositing stablecoin token\n     * @param amount amount of stablecoin token to deposit\n     */\n    function join(uint256 amount) external joiningNotPaused {\n        uint256 mintedAmount = mint(amount);\n\n        latestJoinBlock[tx.origin] = block.number;\n        require(stablecoin.transferFrom(msg.sender, address(this), amount));\n\n        emit Joined(msg.sender, amount, mintedAmount);\n    }\n\n    /**\n     * @dev Exit pool\n     * This function will withdraw the existing tokens backing the pool value\n     * @param amount amount of pool tokens to redeem for underlying tokens\n     */\n    function exit(uint256 amount) external nonReentrant sync {\n    // function exit(uint256 amount) external nonReentrant{ \n        require(block.number != latestJoinBlock[tx.origin], \"LoanerPool: Cannot join and exit in same block\");\n        require(amount <= balanceOf(msg.sender), \"LoanerPool: insufficient funds\");\n\n        uint256 amountToWithdraw = poolValue().mul(amount).div(totalSupply());\n        require(amountToWithdraw <= liquidValue(), \"LoanerPool: Not enough liquidity in pool\");\n\n        // burn tokens sent\n        _burn(msg.sender, amount);\n\n        if (amountToWithdraw > currencyBalance()) {\n            uint256 neededBalance = amountToWithdraw.sub(currencyBalance());\n            IAToken aToken = getAToken();\n            aToken.redeem(neededBalance.mul(aTokenBalance().div(aTokenValue())));\n            require(amountToWithdraw <= currencyBalance(), \"LoanerPool: Not enough funds were withdrawn from Moola\");\n        }\n\n        require(stablecoin.transfer(msg.sender, amountToWithdraw));\n\n        emit Exited(msg.sender, amountToWithdraw);\n    }\n\n    /**\n     * @dev Fund a loan which meets the pool parameters\n     * @param loanToken LoanToken to fund\n     */\n    function fund(ILoanToken loanToken) external {\n        require(loanToken.borrower() == msg.sender, \"LoanerPool: Sender is not borrower\");\n        require(loanToken.isLoanToken(), \"LoanerPool: Only LoanTokens can be funded\");\n        require(loanToken.currencyToken() == stablecoin, \"LoanerPool: Only the same currency LoanTokens can be funded\");\n        // require(_loans.length < maxLoans, \"LoanerPool: Loans number has reached the limit\");\n\n        // (uint256 amount, uint256 apy, uint256 term) = loanToken.getParameters();\n        (uint256 amount,,) = loanToken.getParameters();\n        (uint256 participation, uint256 no, uint256 yes) = community.getResults(address(loanToken));\n\n        // require(loanSizeWithinBounds(amount), \"LoanerPool: Loan size is out of bounds\");\n        // require(loanTermWithinBounds(term), \"LoanerPool: Loan term is out of bounds\");\n        // require(loanIsAttractiveEnough(apy), \"LoanerPool: APY is out of bounds\");\n        require(votesThresholdReached(amount, yes), \"LoanerPool: Not enough votes given for the loan\");\n        require(participationRateThresholdReached(participation), \"LoanerPool: Not enough community managers participated\");\n        require(approvalRateThresholdReached(yes, no), \"LoanerPool: Loan does not have enough approval ratings\");\n\n        _loans.push(loanToken);\n        stablecoin.approve(address(loanToken), amount);\n        loanToken.fund();\n\n        emit Funded(address(loanToken), amount);\n    }\n\n    /**\n     * @dev For settled loans, redeem LoanTokens for underlying funds\n     * @param loanToken Loan to reclaim capital from (must be previously funded)\n     */\n    function reclaim(ILoanToken loanToken) external {\n        require(loanToken.isLoanToken(), \"LoanerPool: Only LoanTokens can be used to reclaimed\");\n\n        ILoanToken.Status status = loanToken.status();\n        require(status >= ILoanToken.Status.Settled, \"LoanerPool: LoanToken is not closed yet\");\n\n        // call redeem function on LoanToken\n        uint256 balanceBefore = stablecoin.balanceOf(address(this));\n        loanToken.redeem(loanToken.balanceOf(address(this)));\n        uint256 balanceAfter = stablecoin.balanceOf(address(this));\n\n        // gets reclaimed amount and redeemed back to pool\n        uint256 fundsReclaimed = balanceAfter.sub(balanceBefore);\n\n        // remove loan from loan array\n        for (uint256 index = 0; index < _loans.length; index++) {\n            if (_loans[index] == loanToken) {\n                _loans[index] = _loans[_loans.length - 1];\n                _loans.pop();\n\n                emit Reclaimed(address(loanToken), fundsReclaimed);\n                return;\n            }\n        }\n        // If we reach this, it means loanToken was not present in _loans array\n        // This prevents invalid loans from being reclaimed\n        revert(\"LoanerPool: This loan has not been funded by the lender\");\n    }\n\n    /**\n     * @dev Deposit idle funds into moola pool and earn interest\n     * Called by owner to help manage funds in pool and save on gas for deposits\n     * @param currencyAmount Amount of funds to deposit into curve\n     */\n    function flush(uint256 currencyAmount) external onlyOwner {\n        require(currencyAmount <= currencyBalance(), \"LoanerPool: Insufficient Balance\");\n        ILendingPool lendingPool = ILendingPool(moolaAddressesProvider.getLendingPool());\n        address lendingPoolCore = moolaAddressesProvider.getLendingPoolCore();\n\n        stablecoin.approve(lendingPoolCore, currencyAmount);\n        lendingPool.deposit(address(stablecoin), currencyAmount, 0);\n\n        emit Flushed(currencyAmount);\n    }\n\n    /**\n     * @dev Remove liquidity from moola markets\n     * @param aAmount amount of  aTokens\n     */\n    function pull(uint256 aAmount) external onlyOwner {\n        require(aAmount <= aTokenBalance(), \"LoanerPool; Insufficient aToken Balance\");\n        IAToken aToken = getAToken();\n        aToken.redeem(aAmount);\n    }\n\n    /**\n     * @dev Calculate pool value in the stablecoin\n     * \"virtual price\" of entire pool - LoanTokens, stablecoin and aTOkens\n     * @return pool value in the stablecoin\n     */\n    function poolValue() public view returns (uint256) {\n        // this assumes defaulted loans are worth their full value\n        return liquidValue().add(totalLoansValue());\n    }\n\n    /**\n     * @dev Get the aToken from the moola address provider\n     * @return AToken for the stablecoin pool\n     */\n    function getAToken() public view returns (IAToken) {\n        ILendingPool lendingPool = ILendingPool(moolaAddressesProvider.getLendingPool());\n\n        // Initialize aToken\n        (, , , , , , , , , , , address aTokenAddress, ) = lendingPool\n            .getReserveData(address(stablecoin));\n        return IAToken(aTokenAddress);\n    }\n\n    /**\n     * @dev Value calculation for the loans taken by the pool\n     * @param loan Loan to calculate value for\n     * @return value of a given loan\n     */\n    function loanValue(ILoanToken loan) public view returns (uint256) {\n        uint256 _balance = loan.balanceOf(address(this));\n        if (_balance == 0) {\n            return 0;\n        }\n\n        uint256 passed = block.timestamp.sub(loan.start());\n        if (passed > loan.term()) {\n            passed = loan.term();\n        }\n\n        uint256 helper = loan.amount().mul(loan.apy()).mul(passed).mul(_balance);\n        // assume year is 365 days\n        uint256 interest = helper.div(365 days).div(10000).div(loan.debt());\n\n        return loan.amount().mul(_balance).div(loan.debt()).add(interest);\n    }\n\n    /**\n     * @dev Loop through loan tokens and calculate theoretical value of all loans\n     * There should never be too many loans in the pool to run out of gas\n     * @return Theoretical value of all the loans funded by this strategy\n     */\n    function totalLoansValue() public view returns (uint256) {\n        if (inSync) {\n            return loansValueCache;\n        }\n        uint256 totalValue;\n        for (uint256 index = 0; index < _loans.length; index++) {\n            totalValue = totalValue.add(loanValue(_loans[index]));\n        }\n        return totalValue;\n    }\n\n    /**\n     * @dev Value of liquid assets in the pool\n     * @return Liquid value of pool assets\n     */\n    function liquidValue() public view returns (uint256) {\n        return currencyBalance().add(aTokenValue());\n    }\n\n    /**\n     * @dev Currency token balance\n     * @return Currency token balance\n     */\n    function currencyBalance() internal view returns (uint256) {\n        return stablecoin.balanceOf(address(this));\n    }\n\n    /**\n     * @dev Get total balance of currency aTokens\n     * @return Balance of aTokens in this contract\n     */\n    function aTokenBalance() public view returns (uint256) {\n        IAToken aToken = getAToken();\n        return aToken.principalBalanceOf(address(this));\n    }\n\n    /**\n     * @dev Value of aTokens in the pool\n     * Will return sync value if inSync\n     * @return aTokenValue in underlying currency (principal + interest).\n     */\n    function aTokenValue() public view returns (uint256) {\n        IAToken aToken = getAToken(); \n        return aToken.balanceOf(address(this));\n    }\n    // /**\n    //  * @dev Check if a loan is within APY bounds\n    //  * @param apy APY of loan\n    //  * @return Whether a loan is within APY bounds\n    //  */\n    // function loanIsAttractiveEnough(uint256 apy) public view returns (bool) {\n    //     return apy >= minApy && apy <= maxApy;\n    // }\n\n    // /**\n    //  * @dev Check if a loan is within size bounds\n    //  * @param amount Size of loan\n    //  * @return Whether a loan is within size bounds\n    //  */\n    // function loanSizeWithinBounds(uint256 amount) public view returns (bool) {\n    //     return amount >= minSize && amount <= maxSize;\n    // }\n\n    // /**\n    //  * @dev Check if loan term is within term bounds\n    //  * @param term Term of loan\n    //  * @return Whether loan term is within term bounds\n    //  */\n    // function loanTermWithinBounds(uint256 term) public view returns (bool) {\n    //     return term >= minTerm && term <= maxTerm;\n    // }\n\n    /**\n     * @param depositedAmount Amount of stablecoin deposited\n     * @return amount minted from this transaction\n     */\n    function mint(uint256 depositedAmount) internal returns (uint256) {\n        uint256 mintedAmount = depositedAmount;\n        if (mintedAmount == 0) {\n            return mintedAmount;\n        }\n\n        // first depositor mints same amount deposited\n        if (totalSupply() > 0) {\n            mintedAmount = totalSupply().mul(depositedAmount).div(poolValue());\n        }\n        // mint pool tokens\n        _mint(msg.sender, mintedAmount);\n\n        return mintedAmount;\n    }\n}",
  "sourcePath": "/home/bob/loaner-celo/smart-contracts/contracts/lending/LoanerPool.sol",
  "compiler": {
    "name": "solc",
    "version": "0.6.10+commit.00c0fcaf.Emscripten.clang"
  },
  "schemaVersion": "3.3.3",
  "updatedAt": "2021-03-19T23:10:57.755Z",
  "devdoc": {
    "methods": {
      "aTokenBalance()": {
        "details": "Get total balance of currency aTokens",
        "returns": {
          "_0": "Balance of aTokens in this contract"
        }
      },
      "aTokenValue()": {
        "details": "Value of aTokens in the pool Will return sync value if inSync",
        "returns": {
          "_0": "aTokenValue in underlying currency (principal + interest)."
        }
      },
      "allowance(address,address)": {
        "details": "See {IERC20-allowance}."
      },
      "approvalRateThresholdReached(uint256,uint256)": {
        "details": "Minimum ratio of yes to no",
        "params": {
          "no": "number of reject votes",
          "yes": "number of approval votes"
        },
        "returns": {
          "_0": "Whether a loan has reached minimum yes to no ratio"
        }
      },
      "approve(address,uint256)": {
        "details": "See {IERC20-approve}. Requirements: - `spender` cannot be the zero address."
      },
      "balanceOf(address)": {
        "details": "See {IERC20-balanceOf}."
      },
      "changeJoiningPauseStatus(bool)": {
        "details": "Allow pausing of deposits in case of emergency",
        "params": {
          "status": "New deposit status"
        }
      },
      "currencyToken()": {
        "details": "get currency token",
        "returns": {
          "_0": "currency token"
        }
      },
      "decimals()": {
        "details": "Returns the number of decimals used to get its user representation. For example, if `decimals` equals `2`, a balance of `505` tokens should be displayed to a user as `5,05` (`505 / 10 ** 2`). Tokens usually opt for a value of 18, imitating the relationship between Ether and Wei. This is the value {ERC20} uses, unless {_setupDecimals} is called. NOTE: This information is only used for _display_ purposes: it in no way affects any of the arithmetic of the contract, including {IERC20-balanceOf} and {IERC20-transfer}."
      },
      "decreaseAllowance(address,uint256)": {
        "details": "Atomically decreases the allowance granted to `spender` by the caller. This is an alternative to {approve} that can be used as a mitigation for problems described in {IERC20-approve}. Emits an {Approval} event indicating the updated allowance. Requirements: - `spender` cannot be the zero address. - `spender` must have allowance for the caller of at least `subtractedValue`."
      },
      "exit(uint256)": {
        "details": "Exit pool This function will withdraw the existing tokens backing the pool value",
        "params": {
          "amount": "amount of pool tokens to redeem for underlying tokens"
        }
      },
      "flush(uint256)": {
        "details": "Deposit idle funds into moola pool and earn interest Called by owner to help manage funds in pool and save on gas for deposits",
        "params": {
          "currencyAmount": "Amount of funds to deposit into curve"
        }
      },
      "fund(address)": {
        "details": "Fund a loan which meets the pool parameters",
        "params": {
          "loanToken": "LoanToken to fund"
        }
      },
      "getAToken()": {
        "details": "Get the aToken from the moola address provider",
        "returns": {
          "_0": "AToken for the stablecoin pool"
        }
      },
      "increaseAllowance(address,uint256)": {
        "details": "Atomically increases the allowance granted to `spender` by the caller. This is an alternative to {approve} that can be used as a mitigation for problems described in {IERC20-approve}. Emits an {Approval} event indicating the updated allowance. Requirements: - `spender` cannot be the zero address."
      },
      "join(uint256)": {
        "details": "Join the pool by depositing stablecoin token",
        "params": {
          "amount": "amount of stablecoin token to deposit"
        }
      },
      "liquidValue()": {
        "details": "Value of liquid assets in the pool",
        "returns": {
          "_0": "Liquid value of pool assets"
        }
      },
      "loanValue(address)": {
        "details": "Value calculation for the loans taken by the pool",
        "params": {
          "loan": "Loan to calculate value for"
        },
        "returns": {
          "_0": "value of a given loan"
        }
      },
      "name()": {
        "details": "Returns the name of the token."
      },
      "owner()": {
        "details": "Returns the address of the current owner."
      },
      "participationRateThresholdReached(uint256)": {
        "details": "Minimum participation rate from the community managers",
        "params": {
          "participation": "ration of managers participating in the voting"
        },
        "returns": {
          "_0": "Whether the loan reached the minimum participation rate"
        }
      },
      "poolValue()": {
        "details": "Calculate pool value in the stablecoin \"virtual price\" of entire pool - LoanTokens, stablecoin and aTOkens",
        "returns": {
          "_0": "pool value in the stablecoin"
        }
      },
      "pull(uint256)": {
        "details": "Remove liquidity from moola markets",
        "params": {
          "aAmount": "amount of  aTokens"
        }
      },
      "reclaim(address)": {
        "details": "For settled loans, redeem LoanTokens for underlying funds",
        "params": {
          "loanToken": "Loan to reclaim capital from (must be previously funded)"
        }
      },
      "renounceOwnership()": {
        "details": "Leaves the contract without owner. It will not be possible to call `onlyOwner` functions anymore. Can only be called by the current owner. NOTE: Renouncing ownership will leave the contract without an owner, thereby removing any functionality that is only available to the owner."
      },
      "setCommunity(address)": {
        "details": "Set new community. Only owner can change parameters.",
        "params": {
          "newCommunity": "New community."
        }
      },
      "setFundsManager(address)": {
        "details": "set funds manager address",
        "params": {
          "newFundsManager": "New funds manager."
        }
      },
      "setParticipationSize(uint256)": {
        "details": "Set new participation size. Only owner can change parameters.",
        "params": {
          "newParticipationSize": "New participation size."
        }
      },
      "symbol()": {
        "details": "Returns the symbol of the token, usually a shorter version of the name."
      },
      "totalLoansValue()": {
        "details": "Loop through loan tokens and calculate theoretical value of all loans There should never be too many loans in the pool to run out of gas",
        "returns": {
          "_0": "Theoretical value of all the loans funded by this strategy"
        }
      },
      "totalSupply()": {
        "details": "See {IERC20-totalSupply}."
      },
      "transfer(address,uint256)": {
        "details": "See {IERC20-transfer}. Requirements: - `recipient` cannot be the zero address. - the caller must have a balance of at least `amount`."
      },
      "transferFrom(address,address,uint256)": {
        "details": "See {IERC20-transferFrom}. Emits an {Approval} event indicating the updated allowance. This is not required by the EIP. See the note at the beginning of {ERC20}. Requirements: - `sender` and `recipient` cannot be the zero address. - `sender` must have a balance of at least `amount`. - the caller must have allowance for ``sender``'s tokens of at least `amount`."
      },
      "transferOwnership(address)": {
        "details": "Transfers ownership of the contract to a new account (`newOwner`). Can only be called by the current owner."
      },
      "votesThresholdReached(uint256,uint256)": {
        "details": "Minimum absolute value of yes votes, rather than ratio of yes to no",
        "params": {
          "amount": "Size of loan",
          "yesVotes": "Number of yes votes"
        },
        "returns": {
          "_0": "Whether a loan has reached the required voting threshold"
        }
      }
    }
  },
  "userdoc": {
    "methods": {}
  }
}