{
  "contractName": "LoanFactory",
  "abi": [
    {
      "inputs": [
        {
          "internalType": "contract IERC20",
          "name": "_currencyToken",
          "type": "address"
        },
        {
          "internalType": "address",
          "name": "_loanerAddress",
          "type": "address"
        }
      ],
      "stateMutability": "nonpayable",
      "type": "constructor"
    },
    {
      "anonymous": false,
      "inputs": [
        {
          "indexed": false,
          "internalType": "address",
          "name": "contractAddress",
          "type": "address"
        }
      ],
      "name": "LoanTokenCreated",
      "type": "event"
    },
    {
      "inputs": [],
      "name": "currencyToken",
      "outputs": [
        {
          "internalType": "contract IERC20",
          "name": "",
          "type": "address"
        }
      ],
      "stateMutability": "view",
      "type": "function",
      "constant": true
    },
    {
      "inputs": [
        {
          "internalType": "address",
          "name": "",
          "type": "address"
        }
      ],
      "name": "isLoanToken",
      "outputs": [
        {
          "internalType": "bool",
          "name": "",
          "type": "bool"
        }
      ],
      "stateMutability": "view",
      "type": "function",
      "constant": true
    },
    {
      "inputs": [],
      "name": "loanerAddress",
      "outputs": [
        {
          "internalType": "address",
          "name": "",
          "type": "address"
        }
      ],
      "stateMutability": "view",
      "type": "function",
      "constant": true
    },
    {
      "inputs": [
        {
          "internalType": "address",
          "name": "_lender",
          "type": "address"
        },
        {
          "internalType": "uint256",
          "name": "_amount",
          "type": "uint256"
        },
        {
          "internalType": "uint256",
          "name": "_term",
          "type": "uint256"
        },
        {
          "internalType": "uint256",
          "name": "_apy",
          "type": "uint256"
        }
      ],
      "name": "createLoanToken",
      "outputs": [],
      "stateMutability": "nonpayable",
      "type": "function"
    }
  ],
  "bytecode": "0x608060405234801561001057600080fd5b506040516127a43803806127a48339818101604052604081101561003357600080fd5b508051602090910151600280546001600160a01b039384166001600160a01b0319918216179091556001805493909216921691909117905561272a8061007a6000396000f3fe608060405234801561001057600080fd5b506004361061004c5760003560e01c80632dd96d61146100515780636b2fa3741461008b578063e3f22b65146100af578063e668a915146100e9575b600080fd5b6100776004803603602081101561006757600080fd5b50356001600160a01b03166100f1565b604080519115158252519081900360200190f35b610093610106565b604080516001600160a01b039092168252519081900360200190f35b6100e7600480360360808110156100c557600080fd5b506001600160a01b038135169060208101359060408101359060600135610115565b005b610093610272565b60006020819052908152604090205460ff1681565b6002546001600160a01b031681565b600083116101545760405162461bcd60e51b81526004018080602001828103825260348152602001806126876034913960400191505060405180910390fd5b600082116101935760405162461bcd60e51b815260040180806020018281038252603a8152602001806126bb603a913960400191505060405180910390fd5b6000600260009054906101000a90046001600160a01b031633868686866040516101bc90610281565b6001600160a01b0396871681529486166020860152929094166040808501919091526060840191909152608083019390935260a082015290519081900360c001906000f080158015610212573d6000803e3d6000fd5b506001600160a01b03811660008181526020818152604091829020805460ff19166001179055815192835290519293507f76798570126d3c18775ba46bf883a4be57792ec5f030d32af263b8b1a013cee092918290030190a15050505050565b6001546001600160a01b031681565b6123f88061028f8339019056fe60806040523480156200001157600080fd5b50604051620023f8380380620023f8833981810160405260c08110156200003757600080fd5b5080516020808301516040808501516060860151608087015160a09097015183518085018552600a8152692637b0b7102a37b5b2b760b11b818801908152855180870190965260048652632627a0a760e11b97860197909752805197989597939692959491939092620000ae916003919062000351565b508051620000c490600490602084019062000351565b50506005805460ff19166012179055506001600160a01b03841662000130576040805162461bcd60e51b815260206004820152601c60248201527f4c6f616e546f6b656e3a204c656e646572206973206e6f742073657400000000604482015290519081900360640190fd5b600e8054610100600160a81b03199081166101006001600160a01b038a811682029290921790935560058054909216888216909302929092179055600684905560078390556008829055600a80546001600160a01b0319169186169190911790556200019c83620001ac565b600b5550620003f6945050505050565b6000620002226200020d612710620001f96301e13380620001f9600754620001e56008548a6200022860201b6200147c1790919060201c565b6200022860201b6200147c1790919060201c565b6200028d60201b620014dc1790919060201c565b83620002f660201b620015431790919060201c565b92915050565b600082620002395750600062000222565b828202828482816200024757fe5b0414620002865760405162461bcd60e51b8152600401808060200182810382526021815260200180620023d76021913960400191505060405180910390fd5b9392505050565b6000808211620002e4576040805162461bcd60e51b815260206004820152601a60248201527f536166654d6174683a206469766973696f6e206279207a65726f000000000000604482015290519081900360640190fd5b818381620002ee57fe5b049392505050565b60008282018381101562000286576040805162461bcd60e51b815260206004820152601b60248201527f536166654d6174683a206164646974696f6e206f766572666c6f770000000000604482015290519081900360640190fd5b828054600181600116156101000203166002900490600052602060002090601f016020900481019282601f106200039457805160ff1916838001178555620003c4565b82800160010185558215620003c4579182015b82811115620003c4578251825591602001919060010190620003a7565b50620003d2929150620003d6565b5090565b620003f391905b80821115620003d25760008155600101620003dd565b90565b611fd180620004066000396000f3fe608060405234801561001057600080fd5b50600436106102115760003560e01c806378fc3cb311610125578063b60d4288116100ad578063c5a46ee61161007c578063c5a46ee614610579578063db006a7514610596578063dd62ed3e146105b3578063e231bff0146105e1578063fbb27dce146105e957610211565b8063b60d428814610559578063b69ef8a814610561578063bcead63e14610569578063be9a65551461057157610211565b8063a10ffbed116100f4578063a10ffbed146104cb578063a457c2d7146104d3578063a5ea11da146104ff578063a9059cbb14610525578063aa8c217c1461055157610211565b806378fc3cb31461048d5780637df1f1b9146104b357806380e9071b146104bb57806395d89b41146104c357610211565b806339509351116101a857806351cff8d91161017757806351cff8d91461040d57806366d16cc3146104335780636b2fa3741461043b5780636e31d80a1461045f57806370a082311461046757610211565b806339509351146103a35780633bcfc4b8146103cf57806343d726d6146103d75780634d9b8fcf146103df57610211565b8063200d2ed2116101e4578063200d2ed2146102f557806322867d781461032157806323b872dd1461034f578063313ce5671461038557610211565b806306fdde0314610216578063095ea7b3146102935780630dca59c1146102d357806318160ddd146102ed575b600080fd5b61021e6105f1565b6040805160208082528351818301528351919283929083019185019080838360005b83811015610258578181015183820152602001610240565b50505050905090810190601f1680156102855780820380516001836020036101000a031916815260200191505b509250505060405180910390f35b6102bf600480360360408110156102a957600080fd5b506001600160a01b038135169060200135610687565b604080519115158252519081900360200190f35b6102db6106a5565b60408051918252519081900360200190f35b6102db6106ab565b6102fd6106b1565b6040518082600481111561030d57fe5b60ff16815260200191505060405180910390f35b61034d6004803603604081101561033757600080fd5b506001600160a01b0381351690602001356106ba565b005b6102bf6004803603606081101561036557600080fd5b506001600160a01b03813581169160208101359091169060400135610841565b61038d6108ce565b6040805160ff9092168252519081900360200190f35b6102bf600480360360408110156103b957600080fd5b506001600160a01b0381351690602001356108d7565b6102db61092b565b61034d610931565b61034d600480360360408110156103f557600080fd5b506001600160a01b0381351690602001351515610a7c565b61034d6004803603602081101561042357600080fd5b50356001600160a01b0316610b29565b6102db610ca6565b610443610cc4565b604080516001600160a01b039092168252519081900360200190f35b6102bf610cd8565b6102db6004803603602081101561047d57600080fd5b50356001600160a01b0316610cdd565b6102bf600480360360208110156104a357600080fd5b50356001600160a01b0316610cfc565b610443610d11565b61034d610d25565b61021e610f35565b6102db610f96565b6102bf600480360360408110156104e957600080fd5b506001600160a01b038135169060200135610f9c565b61050761100a565b60408051938452602084019290925282820152519081900360600190f35b6102bf6004803603604081101561053b57600080fd5b506001600160a01b038135169060200135611018565b6102db61102c565b61034d611032565b6102db6111b4565b6104436111be565b6102db6111cd565b6102db6004803603602081101561058f57600080fd5b50356111d3565b61034d600480360360208110156105ac57600080fd5b5035611276565b6102db600480360360408110156105c957600080fd5b506001600160a01b03813581169160200135166113df565b6102db61140a565b6102db611410565b60038054604080516020601f600260001961010060018816150201909516949094049384018190048102820181019092528281526060939092909183018282801561067d5780601f106106525761010080835404028352916020019161067d565b820191906000526020600020905b81548152906001019060200180831161066057829003601f168201915b5050505050905090565b600061069b61069461159d565b84846115a1565b5060015b92915050565b600b5481565b60025490565b600e5460ff1681565b6002600e5460ff1660048111156106cd57fe5b101561070a5760405162461bcd60e51b815260040180806020018281038252602d815260200180611dcd602d913960400191505060405180910390fd5b61072461071561168d565b600b549063ffffffff61170e16565b8111156107625760405162461bcd60e51b8152600401808060200182810382526025815260200180611e436025913960400191505060405180910390fd5b600e54604080516323b872dd60e01b81526001600160a01b038581166004830152306024830152604482018590529151610100909304909116916323b872dd916064808201926020929091908290030181600087803b1580156107c457600080fd5b505af11580156107d8573d6000803e3d6000fd5b505050506040513d60208110156107ee57600080fd5b50516107f957600080fd5b604080516001600160a01b03841681526020810183905281517f0516911bcc3a0a7412a44601057c0a0a1ec628bde049a84284bc428866534488929181900390910190a15050565b600061084e84848461176b565b6108c48461085a61159d565b6108bf85604051806060016040528060288152602001611e1b602891396001600160a01b038a1660009081526001602052604081209061089861159d565b6001600160a01b03168152602081019190915260400160002054919063ffffffff6117ed16565b6115a1565b5060019392505050565b60055460ff1690565b600061069b6108e461159d565b846108bf85600160006108f561159d565b6001600160a01b03908116825260208083019390935260409182016000908120918c16815292529020549063ffffffff61154316565b60085481565b6001600e5460ff16600481111561094457fe5b148061096057506002600e5460ff16600481111561095e57fe5b145b61099b5760405162461bcd60e51b8152600401808060200182810382526037815260200180611d6e6037913960400191505060405180910390fd5b426109b360075460095461154390919063ffffffff16565b11156109f05760405162461bcd60e51b8152600401808060200182810382526024815260200180611bf56024913960400191505060405180910390fd5b600b546109fb61168d565b10610a1257600e805460ff19166003179055610a20565b600e805460ff191660041790555b600e547f28bd284f46889d08743cedeaa5a283383637a7f257dcd1d67d9018e4947b5a5a9060ff16610a5061168d565b60405180836004811115610a6057fe5b60ff1681526020018281526020019250505060405180910390a1565b600a546001600160a01b03163314610ac55760405162461bcd60e51b815260040180806020018281038252602f815260200180611ce1602f913960400191505060405180910390fd5b6001600160a01b0382166000818152600d6020908152604091829020805460ff191685151590811790915582519384529083015280517f1b3b164cc59c87814760e94930af830522796bfcf37eb8c9953f560a1999b0cb9281900390910190a15050565b60055461010090046001600160a01b03163314610b775760405162461bcd60e51b8152600401808060200182810382526025815260200180611cbc6025913960400191505060405180910390fd5b6001600e5460ff166004811115610b8a57fe5b14610bc65760405162461bcd60e51b815260040180806020018281038252602a815260200180611efd602a913960400191505060405180910390fd5b600e805460ff1916600217908190556006546040805163a9059cbb60e01b81526001600160a01b038581166004830152602482019390935290516101009093049091169163a9059cbb916044808201926020929091908290030181600087803b158015610c3257600080fd5b505af1158015610c46573d6000803e3d6000fd5b505050506040513d6020811015610c5c57600080fd5b5051610c6757600080fd5b604080516001600160a01b038316815290517ff45a04d08a70caa7eb4b747571305559ad9fdf4a093afd41506b35c8a306fa949181900360200190a150565b6000610cbf600654600b5461170e90919063ffffffff16565b905090565b600e5461010090046001600160a01b031681565b600190565b6001600160a01b0381166000908152602081905260409020545b919050565b600d6020526000908152604090205460ff1681565b60055461010090046001600160a01b031681565b6003600e5460ff166004811115610d3857fe5b1015610d755760405162461bcd60e51b8152600401808060200182810382526038815260200180611d366038913960400191505060405180910390fd5b60055461010090046001600160a01b03163314610dc35760405162461bcd60e51b8152600401808060200182810382526025815260200180611cbc6025913960400191505060405180910390fd5b610dcb6106ab565b15610e075760405162461bcd60e51b815260040180806020018281038252603c815260200180611c5e603c913960400191505060405180910390fd5b6000610e1161168d565b905060008111610e525760405162461bcd60e51b8152600401808060200182810382526028815260200180611da56028913960400191505060405180910390fd5b600e546005546040805163a9059cbb60e01b81526001600160a01b03610100938490048116600483015260248201869052915192909304169163a9059cbb9160448083019260209291908290030181600087803b158015610eb257600080fd5b505af1158015610ec6573d6000803e3d6000fd5b505050506040513d6020811015610edc57600080fd5b5051610ee757600080fd5b600554604080516101009092046001600160a01b031682526020820183905280517fcab347be18c8c37ef504626a027a12ea6725f491b5f5b154778d8d0c54f7841e9281900390910190a150565b60048054604080516020601f600260001961010060018816150201909516949094049384018190048102820181019092528281526060939092909183018282801561067d5780601f106106525761010080835404028352916020019161067d565b60075481565b600061069b610fa961159d565b846108bf85604051806060016040528060258152602001611f776025913960016000610fd361159d565b6001600160a01b03908116825260208083019390935260409182016000908120918d1681529252902054919063ffffffff6117ed16565b600654600854600754909192565b600061069b61102561159d565b848461176b565b60065481565b6000600e5460ff16600481111561104557fe5b146110815760405162461bcd60e51b815260040180806020018281038252602c815260200180611f27602c913960400191505060405180910390fd5b600a546001600160a01b031633146110ca5760405162461bcd60e51b815260040180806020018281038252602f815260200180611ce1602f913960400191505060405180910390fd5b600e805460ff1916600117905542600955600b546110e9903390611884565b600e54600654604080516323b872dd60e01b81523360048201523060248201526044810192909252516101009092046001600160a01b0316916323b872dd916064808201926020929091908290030181600087803b15801561114a57600080fd5b505af115801561115e573d6000803e3d6000fd5b505050506040513d602081101561117457600080fd5b505161117f57600080fd5b6040805133815290517fb436c2bf863ccd7b8f63171201efd4792066b4ce8e543dde9c3e9e9ab98e216c9181900360200190a1565b6000610cbf61168d565b600a546001600160a01b031681565b60095481565b6000816111e257506000610cf7565b60006111f96009544261170e90919063ffffffff16565b905060075481111561120a57506007545b600061124d6127106112416301e133806112418661123560085460065461147c90919063ffffffff16565b9063ffffffff61147c16565b9063ffffffff6114dc16565b905061126e600b54611241866112358560065461154390919063ffffffff16565b949350505050565b6003600e5460ff16600481111561128957fe5b10156112c65760405162461bcd60e51b8152600401808060200182810382526038815260200180611d366038913960400191505060405180910390fd5b60006112eb6112d36106ab565b6112416112de61168d565b859063ffffffff61147c16565b600c54909150611301908263ffffffff61154316565b600c5561130e3383611980565b600e546040805163a9059cbb60e01b81523360048201526024810184905290516101009092046001600160a01b03169163a9059cbb916044808201926020929091908290030181600087803b15801561136657600080fd5b505af115801561137a573d6000803e3d6000fd5b505050506040513d602081101561139057600080fd5b505161139b57600080fd5b604080513381526020810184905280820183905290517ff3a670cd3af7d64b488926880889d08a8585a138ff455227af6737339a1ec2629181900360600190a15050565b6001600160a01b03918216600090815260016020908152604080832093909416825291909152205490565b600c5481565b60006002600e5460ff16600481111561142557fe5b10156114625760405162461bcd60e51b815260040180806020018281038252602d815260200180611dcd602d913960400191505060405180910390fd5b610cbf600c5461147061168d565b9063ffffffff61154316565b60008261148b5750600061069f565b8282028284828161149857fe5b04146114d55760405162461bcd60e51b8152600401808060200182810382526021815260200180611dfa6021913960400191505060405180910390fd5b9392505050565b6000808211611532576040805162461bcd60e51b815260206004820152601a60248201527f536166654d6174683a206469766973696f6e206279207a65726f000000000000604482015290519081900360640190fd5b81838161153b57fe5b049392505050565b6000828201838110156114d5576040805162461bcd60e51b815260206004820152601b60248201527f536166654d6174683a206164646974696f6e206f766572666c6f770000000000604482015290519081900360640190fd5b3390565b6001600160a01b0383166115e65760405162461bcd60e51b8152600401808060200182810382526024815260200180611f536024913960400191505060405180910390fd5b6001600160a01b03821661162b5760405162461bcd60e51b8152600401808060200182810382526022815260200180611c9a6022913960400191505060405180910390fd5b6001600160a01b03808416600081815260016020908152604080832094871680845294825291829020859055815185815291517f8c5be1e5ebec7d5bd14f71427d1e84f3dd0314c0f7b2291e5b200ac8c7c3b9259281900390910190a3505050565b600e54604080516370a0823160e01b8152306004820152905160009261010090046001600160a01b0316916370a08231916024808301926020929190829003018186803b1580156116dd57600080fd5b505afa1580156116f1573d6000803e3d6000fd5b505050506040513d602081101561170757600080fd5b5051905090565b600082821115611765576040805162461bcd60e51b815260206004820152601e60248201527f536166654d6174683a207375627472616374696f6e206f766572666c6f770000604482015290519081900360640190fd5b50900390565b600a5483906001600160a01b03808316911614806117a157506001600160a01b0381166000908152600d602052604090205460ff165b6117dc5760405162461bcd60e51b815260040180806020018281038252604f815260200180611e89604f913960600191505060405180910390fd5b6117e7848484611a88565b50505050565b6000818484111561187c5760405162461bcd60e51b81526004018080602001828103825283818151815260200191508051906020019080838360005b83811015611841578181015183820152602001611829565b50505050905090810190601f16801561186e5780820380516001836020036101000a031916815260200191505b509250505060405180910390fd5b505050900390565b6001600160a01b0382166118df576040805162461bcd60e51b815260206004820152601f60248201527f45524332303a206d696e7420746f20746865207a65726f206164647265737300604482015290519081900360640190fd5b6118eb60008383611bef565b6002546118fe908263ffffffff61154316565b6002556001600160a01b03821660009081526020819052604090205461192a908263ffffffff61154316565b6001600160a01b0383166000818152602081815260408083209490945583518581529351929391927fddf252ad1be2c89b69c2b068fc378daa952ba7f163c4a11628f55a4df523b3ef9281900390910190a35050565b6001600160a01b0382166119c55760405162461bcd60e51b8152600401808060200182810382526021815260200180611e686021913960400191505060405180910390fd5b6119d182600083611bef565b611a1481604051806060016040528060228152602001611c3c602291396001600160a01b038516600090815260208190526040902054919063ffffffff6117ed16565b6001600160a01b038316600090815260208190526040902055600254611a40908263ffffffff61170e16565b6002556040805182815290516000916001600160a01b038516917fddf252ad1be2c89b69c2b068fc378daa952ba7f163c4a11628f55a4df523b3ef9181900360200190a35050565b6001600160a01b038316611acd5760405162461bcd60e51b8152600401808060200182810382526025815260200180611ed86025913960400191505060405180910390fd5b6001600160a01b038216611b125760405162461bcd60e51b8152600401808060200182810382526023815260200180611c196023913960400191505060405180910390fd5b611b1d838383611bef565b611b6081604051806060016040528060268152602001611d10602691396001600160a01b038616600090815260208190526040902054919063ffffffff6117ed16565b6001600160a01b038085166000908152602081905260408082209390935590841681522054611b95908263ffffffff61154316565b6001600160a01b038084166000818152602081815260409182902094909455805185815290519193928716927fddf252ad1be2c89b69c2b068fc378daa952ba7f163c4a11628f55a4df523b3ef92918290030190a3505050565b50505056fe4c6f616e546f6b656e3a204c6f616e2063616e6e6f7420626520636c6f7365642079657445524332303a207472616e7366657220746f20746865207a65726f206164647265737345524332303a206275726e20616d6f756e7420657863656564732062616c616e63654c6f616e546f6b656e3a2043616e6e6f74207265636c61696d207768656e204c6f616e546f6b656e732061726520696e2063697263756c6174696f6e45524332303a20617070726f766520746f20746865207a65726f20616464726573734c6f616e546f6b656e3a2043616c6c6572206973206e6f742074686520626f72726f7765724c6f616e546f6b656e3a20546869732063616e20626520706572666f726d6564206f6e6c79206279206c656e64657245524332303a207472616e7366657220616d6f756e7420657863656564732062616c616e63654c6f616e546f6b656e3a2043757272656e74207374617475732073686f756c6420626520536574746c6564206f722044656661756c7465644c6f616e546f6b656e3a2043757272656e74207374617475732073686f756c642062652046756e646564206f722057697468647261776e4c6f616e546f6b656e3a2043616e6e6f74207265636c61696d207768656e2062616c616e636520304c6f616e546f6b656e3a204f6e6c79206166746572206c6f616e20686173206265656e2077697468647261776e536166654d6174683a206d756c7469706c69636174696f6e206f766572666c6f7745524332303a207472616e7366657220616d6f756e74206578636565647320616c6c6f77616e63654c6f616e546f6b656e3a2043616e6e6f74207265706179206f76657220746865206465627445524332303a206275726e2066726f6d20746865207a65726f20616464726573734c6f616e546f6b656e3a20546869732063616e20626520706572666f726d6564206f6e6c79206279206c656e646572206f72206163636f756e747320616c6c6f77656420746f207472616e7366657245524332303a207472616e736665722066726f6d20746865207a65726f20616464726573734c6f616e546f6b656e3a2043757272656e74207374617475732073686f756c642062652046756e6465644c6f616e546f6b656e3a2043757272656e74207374617475732073686f756c64206265204177616974696e6745524332303a20617070726f76652066726f6d20746865207a65726f206164647265737345524332303a2064656372656173656420616c6c6f77616e63652062656c6f77207a65726fa26469706673582212201123c08c40b96dcdc93cc39d6c238f3c401031efe42af3e77095015e002db43164736f6c634300060a0033536166654d6174683a206d756c7469706c69636174696f6e206f766572666c6f774c6f616e466163746f72793a204c6f616e73206f6620616d6f756e7420302c2077696c6c206e6f7420626520617070726f7665644c6f616e466163746f72793a204c6f616e732063616e6e6f74206861766520696e7374616e74616e656f7573207465726d206f66207265706179a2646970667358221220f1b53efdc1d19cd757ecbb77c237542f875ccb83d6d7b844ab814067939a81d964736f6c634300060a0033",
  "immutableReferences": {},
  "source": "// SPDX-License-Identifier: Apache-2.0\npragma solidity ^0.6.10;\n\nimport {ILoanFactory} from \"../interfaces/ILoanFactory.sol\";\n\nimport {LoanToken, IERC20} from \"./LoanToken.sol\";\n\n/**\n * @title LoanFactory\n * @notice Deploy LoanTokens with this Contract\n * @dev LoanTokens are deployed through a factory to ensure that all\n * LoanTokens adhere to the same contract code, rather than using an interface.\n */\ncontract LoanFactory is ILoanFactory {\n    // @dev Track Valid LoanTokens\n    mapping(address => bool) public override isLoanToken;\n\n    address public override loanerAddress;\n    IERC20 public currencyToken;\n\n    /**\n     * @dev Emitted when a LoanToken is created\n     * @param contractAddress LoanToken contract address\n     */\n    event LoanTokenCreated(address contractAddress);\n\n    /**\n     * @dev Initialize this contract and set currency token\n     * @param _currencyToken Currency token to lend\n     */\n    constructor(IERC20 _currencyToken, address _loanerAddress) public {\n        currencyToken = _currencyToken;\n        loanerAddress = _loanerAddress;\n    }\n\n    /**\n     * @dev Deploy LoanToken with parameters\n     * @param _amount Amount to borrow\n     * @param _term Length of loan\n     * @param _apy Loan yield\n     */\n    function createLoanToken(\n        address _lender,\n        uint256 _amount,\n        uint256 _term,\n        uint256 _apy\n    ) external override {\n        require(_amount > 0, \"LoanFactory: Loans of amount 0, will not be approved\");\n        require(_term > 0, \"LoanFactory: Loans cannot have instantaneous term of repay\");\n\n        address newToken = address(new LoanToken(currencyToken, msg.sender, _lender, _amount, _term, _apy));\n        isLoanToken[newToken] = true;\n\n        emit LoanTokenCreated(newToken);\n    }\n}",
  "sourcePath": "/home/bob/loaner-celo/smart-contracts/contracts/lending/LoanFactory.sol",
  "compiler": {
    "name": "solc",
    "version": "0.6.10+commit.00c0fcaf.Emscripten.clang"
  },
  "schemaVersion": "3.3.3",
  "updatedAt": "2021-03-19T23:14:35.053Z",
  "networkType": "ethereum",
  "devdoc": {
    "details": "LoanTokens are deployed through a factory to ensure that all LoanTokens adhere to the same contract code, rather than using an interface.",
    "methods": {
      "constructor": {
        "details": "Initialize this contract and set currency token",
        "params": {
          "_currencyToken": "Currency token to lend"
        }
      },
      "createLoanToken(address,uint256,uint256,uint256)": {
        "details": "Deploy LoanToken with parameters",
        "params": {
          "_amount": "Amount to borrow",
          "_apy": "Loan yield",
          "_term": "Length of loan"
        }
      }
    },
    "title": "LoanFactory"
  },
  "userdoc": {
    "methods": {},
    "notice": "Deploy LoanTokens with this Contract"
  }
}